:100000000C9465000C948D000C948D000C948D0064
:100010000C948D000C948D000C948D000C948D002C
:100020000C948D000C948D000C948D000C948D001C
:100030000C948D000C948D000C948D000C948D000C
:100040000C9440070C948D000C94E0080C942E093D
:100050000C948D000C948D000C948D000C948D00EC
:100060000C948D110C948D000000000024002700DA
:100070002A0000000000250028002B0000000000DE
:1000800023002600290004040404040404040202DA
:100090000202020203030303030301020408102007
:1000A0004080010204081020010204081020000012
:1000B0000007000201000003040600000000000029
:1000C0000000AA029A0A330EA30211241FBECFEF2A
:1000D000D8E0DEBFCDBF12E0A0E0B1E0ECEDF7E28A
:1000E00002C005900D92A032B107D9F713E0A0E24B
:1000F000B2E001C01D92A13CB107E1F710E0C8ECED
:10010000D0E004C02297FE010E94DD13C23CD1075B
:10011000C9F70E9431070C9466020C940000CF933B
:10012000DF93BC018230910510F462E070E0A09191
:10013000BF03B091C003ED01E0E0F0E040E050E02B
:1001400021C0888199818617970769F48A819B81EC
:10015000309719F09383828304C09093C0038093F7
:10016000BF03FE0134C06817790738F44115510503
:1001700019F08417950708F4AC01FE018A819B8170
:100180009C01E9012097E9F641155105A9F1CA0141
:10019000861B970B049708F4BA01E0E0F0E02AC050
:1001A0008D919C91119784179507F9F46417750741
:1001B00081F412968D919C911397309719F0938347
:1001C000828304C09093C0038093BF03FD013296E5
:1001D0004CC0CA01861B970BFD01E80FF91F619304
:1001E000719302978D939C9340C0FD01828193810E
:1001F0009C01D9011097A1F68091BD039091BE0397
:10020000892B41F48091DE019091DF019093BE0330
:100210008093BD034091E0015091E10141155105EA
:1002200041F44DB75EB78091DC019091DD01481B30
:10023000590B2091BD033091BE03CA01821B930B61
:100240008617970780F0AB014E5F5F4F84179507C5
:1002500050F0420F531F5093BE034093BD03F9016A
:100260006193719302C0E0E0F0E0CF01DF91CF91A4
:100270000895CF93DF93009709F450C0EC012297C3
:100280001B821A82A091BF03B091C003109709F19D
:1002900040E050E0AC17BD0708F1BB83AA83FE0124
:1002A00021913191E20FF31FAE17BF0779F48D91C1
:1002B0009C911197280F391F2E5F3F4F3983288358
:1002C00012968D919C9113979B838A8341155105BA
:1002D00071F4D093C003C093BF0320C012968D91D8
:1002E0009C911397AD01009711F0DC01D3CFFA0177
:1002F000D383C28321913191E20FF31FCE17DF0721
:1003000069F488819981280F391F2E5F3F4FFA01C8
:10031000318320838A819B8193838283DF91CF9174
:100320000895A0E0B0E0E7E9F1E00C94A6136C01B9
:10033000009729F4CB010E948F006C01C1C08EEFA1
:10034000882E8FEF982E8C0C9D1C8601060F171F90
:100350000815190508F4B2C0F401A081B181A617EF
:10036000B707B8F0A530B10508F4AAC0CD010497CD
:100370008617970708F4A4C01297A61BB70BF801BD
:10038000A193B193D4016D937C93CF010E94390165
:1003900097C07B01EA1AFB0AEEEFFFEFEE0EFF1E9D
:1003A00036016A0E7B1EC091BF03D091C003442466
:1003B0005524AA24BB244AC0C615D705E1F54881B7
:1003C00059814E155F05B8F1CA0104978E159F0536
:1003D000B0F41296A40FB51FF401B183A0832A8153
:1003E0003B814114510431F0D20113963C932E937A
:1003F000129766C03093C0032093BF0361C08A8107
:100400009B81F80193838283425050404E195F09CB
:10041000518340834114510431F0D20113961C934F
:100420000E93129704C01093C0030093BF03F4010E
:100430007183608345C088819981A816B90608F444
:100440005C012E018A819B819C01E901209709F0C2
:10045000B3CF8091BD039091BE0386159705E9F453
:10046000A616B706D0F42091E0013091E1012115E4
:10047000310541F42DB73EB78091DC019091DD014B
:10048000281B390B02171307C8F41093BE030093FF
:10049000BD03D4016D937C9313C0CB010E948F00E8
:1004A000EC01009759F0F40140815181B6010E949E
:1004B0006902C6010E9439016E0102C0CC24DD240C
:1004C000C601CDB7DEB7E0E10C94C213F8940C94EA
:1004D000E113FB01DC0102C001900D92415050403C
:1004E000D8F70895FB01DC018D910190801901106E
:1004F000D9F3990B0895FB01DC0101900D920020C6
:10050000E1F708958130910581F46F5F7F4FD1F459
:1005100082E392E060E071E00E94A90D89E392E03D
:1005200061E071E00E94A90D0895892B59F46F5F75
:100530007F4F41F489E392E00E94F30D82E392E061
:100540000E94F30D089580E090E06FEF7FEF0E942E
:100550008202089581E090E06FEF7FEF0E948202B7
:100560000895CF92DF92EF92FF920F931F93DF9344
:10057000CF93CDB7DEB72C970FB6F894DEBF0FBE82
:10058000CDBF6C018BED92E066E071E00E94660CDD
:100590008BED92E0B6010E94AF0CC60160E171E004
:1005A0000E941D0D882339F4C60169E171E00E94A3
:1005B0001D0D8823E1F08BED92E06DE171E00E946A
:1005C000660C8BED92E069E372E00E947C0C8BED8F
:1005D00092E06FE271E00E94660C609121027091DE
:1005E00022028BED92E04AE050E00E94470CC601E7
:1005F00067E471E00E941D0D882339F4C60169E1AA
:1006000071E00E941D0D882359F18BED92E061E5A8
:1006100071E00E94660C80E4E82E82E0F82E00E093
:1006200010E0F701608171818BED92E04AE050E0CB
:100630000E94340C0430110531F08BED92E06FE52F
:1006400071E00E94660C0F5F1F4F82E090E0E80EA1
:10065000F91E0530110529F78BED92E00E94220B5F
:10066000C60163E671E00E941D0D882341F4C601B6
:1006700069E171E00E941D0D882309F461C08BEDD2
:1006800092E069E671E00E94660C0E947D0F2F8364
:10069000388749875A876B877C87DE011196FE0170
:1006A000379686E001900D928150E1F7698170E004
:1006B0006053784F8BED92E04AE050E00E94D10BFE
:1006C0008BED92E06FE20E941A0B8BED92E06A8153
:1006D0004AE050E00E94E20B8BED92E06FE20E9454
:1006E0001A0B8BED92E06B814AE050E00E94E20B26
:1006F0008BED92E060E20E941A0B8BED92E06C8130
:100700004AE050E00E94E20B8BED92E06AE30E9427
:100710001A0B8BED92E06D814AE050E00E94E20BF3
:100720008BED92E06AE30E941A0B8BED92E06E81F2
:100730004AE050E00E94E20B8BED92E00E94220B17
:100740002C960FB6F894DEBF0FBECDBFCF91DF91D0
:100750001F910F91FF90EF90DF90CF9008950F932E
:100760001F93DF93CF93CDB7DEB727970FB6F894DB
:10077000DEBF0FBECDBF8091E20161E00E948B0819
:100780008091E20161E00E944C088091E40161E007
:100790000E944C088091E60161E00E944C08809123
:1007A000E80161E00E944C088091EA0161E00E944A
:1007B0004C088091EC0161E00E944C088091EE01B0
:1007C00061E00E944C088091F00161E00E944C08B9
:1007D0008091F20161E00E944C088091F40161E097
:1007E0000E944C088091F60160E00E944C080E9433
:1007F00088076093260270932702809328029093C3
:10080000290283E493E00E94D30E0E947B0F8BEDBC
:1008100092E040E855E260E070E00E94690980E201
:1008200092E00E943610882331F48BED92E063E76A
:1008300071E00E94690C8E010F5F1F4FC80169E1D2
:1008400071E00E94A90DC8010E94B102C8010E9476
:10085000F30D6AEF70E080E090E00E9496078BED68
:1008600092E067E871E00E94690C27960FB6F89451
:10087000DEBF0FBECDBFCF91DF911F910F910895C5
:10088000AF92BF92CF92DF92EF92FF920F931F939E
:100890008091F6010E942A0800D000D0AA2797FD77
:1008A000A095BA2F2FEF30E040E050E0EDB7FEB753
:1008B0002183328343835483BC01CD0129E130E09D
:1008C00040E050E0EAECEE2EE3E0FE2E012D112D8B
:1008D000AA24BB2465010E94C30C0F900F900F90B7
:1008E0000F906F3F710519F014F06FEF70E077FF14
:1008F00002C060E070E0CB011F910F91FF90EF907C
:10090000DF90CF90BF90AF900895EF92FF920F933A
:100910001F93DF93CF93CDB7DEB7E0970FB6F89470
:10092000DEBF0FBECDBF0E94400490932202809391
:1009300021020E947D0F8BED92E00E94F0091816B3
:1009400019060CF0F9C08BED92E00E94210A7C019F
:100950000E948807609326027093270280932802E2
:10096000909329028BED92E06CE971E00E94660C95
:100970008BED92E0B7014AE050E00E94340C8BED21
:1009800092E064EA71E00E94660C8BED92E06E2DBD
:100990000E945A0A8BED92E00E94220BF701F19718
:1009A000E530F10500F5EE0FFF1FE05CFD4F81E043
:1009B00090E0918380830E94880760932E02709359
:1009C0002F0280933002909331028E01095F1F4FF6
:1009D000C80167E471E00E94A90DC8010E94B1023C
:1009E000C8010E94F30D8BE6E816F10409F445C036
:1009F0009CE6E916F104FCF4E4E5EE16F10409F4D2
:100A000081C0F5E5EF16F1045CF480E2E816F1042C
:100A100009F486C092E5E916F10409F087C06CC0BC
:100A2000E1E6EE16F10409F443C0F9E6EF16F1042D
:100A300009F07CC01DC081E7E816F10409F455C037
:100A400092E7E916F10454F4ECE6EE16F104F9F03D
:100A5000FFE6EF16F10409F069C014C083E7E81659
:100A6000F10469F194E7E916F10409F05FC036C0BA
:100A700089E392E06FEA71E057C089E392E062EBAC
:100A800071E052C089E392E067EB71E004C089E352
:100A900092E06EEB71E00E94C30D0E9488076093A4
:100AA0002A0270932B0280932C0290932D023EC059
:100AB0008E01025F1F4FC80160E171E006C08E0128
:100AC0000B5E1F4FC80167E471E00E94A90DC801C9
:100AD0000E94B102C8010E94F30D28C08E01045E7D
:100AE0001F4FC80163E671E0F0CF8E010D5D1F4F0F
:100AF000C80169E171E0E9CF8091E20160E00E9404
:100B00008B0814C08E010F5F1F4FC80167EC71E0A6
:100B100043ED51E00E94DE0EC8010E945C1006C049
:100B200089E392E061E071E00E94C30D82E392E00C
:100B300069E372E00E94DC0D0E9488072091260282
:100B4000309127024091280250912902621B730BB9
:100B5000840B950B2091FC013091FD01442737FD5A
:100B60004095542F261737074807590708F043C008
:100B700080912502882371F08E01065D1F4FC80108
:100B800060E171E00E94A90DC8010E94B102C80194
:100B90000E94F30D209121023091220280912302C4
:100BA000909124022817390731F489E392E061E03B
:100BB00071E00E94C30D89E392E061E071E00E9460
:100BC0001D0D882319F01092250203C081E0809347
:100BD00025020E9488076093260270932702809363
:100BE00028029093290280912102909122029093F1
:100BF00024028093230289E392E061E071E00E9485
:100C00001D0D8823A1F18091E80160E00E948B080E
:100C10008091EA0160E00E948B088091E60160E02B
:100C20000E948B088091E40160E00E948B08809113
:100C3000EC0160E00E948B088091EE0160E00E9470
:100C40008B088091F00160E00E948B088091F20196
:100C500060E00E948B088091F40160E00E948B08A4
:100C6000F0E4EF2EF2E0FF2E01E010E07BC089E31C
:100C700092E06FEA71E00E941D0D882369F0809177
:100C8000E80161E00E948B088091E40161E00E942C
:100C90008B088091E601E1CF89E392E062EB71E09D
:100CA0000E941D0D882371F08091EA0161E00E948D
:100CB0008B088091E40160E00E948B088091E6013E
:100CC00061E0CCCF89E392E067EB71E00E941D0DFB
:100CD000882369F08091E80161E00E948B0880918F
:100CE000E40161E00E948B088091E60115C089E370
:100CF00092E06EEB71E00E941D0D882309F4B0CFE5
:100D00008091EA0161E00E948B088091E60161E038
:100D10000E948B088091E40160E00E948B080E9491
:100D2000880720912A0230912B0240912C02509189
:100D30002D02621B730B840B950B2091FA013091ED
:100D4000FB01442737FD4095542F261737074807E6
:100D5000590708F085CF89E392E061E071E00E94D5
:100D6000C30D7ECFF70180819181892B09F45CC08E
:100D700003301105B9F0043011053CF401301105C0
:100D800059F002301105C9F40AC00430110569F0A8
:100D90000530110591F40CC08091EC010BC08091DD
:100DA000EE0108C08091F00105C08091F20102C0FF
:100DB0008091F40161E00E948B080E9488072091D5
:100DC0002E0230912F024091300250913102621B6D
:100DD000730B840B950B2091F8013091F901442796
:100DE00037FD4095542F2617370748075907E0F479
:100DF0008091EC0160E00E948B088091EE0160E040
:100E00000E948B088091F00160E00E948B08809125
:100E1000F20160E00E948B088091F40160E00E9482
:100E20008B08F701118210820F5F1F4F82E090E064
:100E3000E80EF91E0630110509F094CF6AE070E063
:100E400080E090E00E949607E0960FB6F894DEBF2F
:100E50000FBECDBFCF91DF911F910F91FF90EF900B
:100E60000895CF93DF930E94EF070E94AF03CBE179
:100E7000D9E00E9485042097E1F30E941B09F9CF75
:100E80001F920F920FB60F9211242F933F938F93BF
:100E90009F93AF93BF9380914E0290914F02A09188
:100EA0005002B0915102309152020196A11DB11D24
:100EB000232F2D5F2D3720F02D570196A11DB11D39
:100EC0002093520280934E0290934F02A0935002BF
:100ED000B093510280914A0290914B02A0914C0232
:100EE000B0914D020196A11DB11D80934A029093CD
:100EF0004B02A0934C02B0934D02BF91AF919F91D2
:100F00008F913F912F910F900FBE0F901F901895CA
:100F10008FB7F89420914E0230914F0240915002C9
:100F2000509151028FBFB901CA0108959B01AC01D4
:100F30007FB7F89480914A0290914B02A0914C02A5
:100F4000B0914D0266B5A89B05C06F3F19F00196A0
:100F5000A11DB11D7FBFBA2FA92F982F8827860FFB
:100F6000911DA11DB11D62E0880F991FAA1FBB1F13
:100F70006A95D1F7BC012DC0FFB7F89480914A0261
:100F800090914B02A0914C02B0914D02E6B5A89B06
:100F900005C0EF3F19F00196A11DB11DFFBFBA2F8B
:100FA000A92F982F88278E0F911DA11DB11DE2E05A
:100FB000880F991FAA1FBB1FEA95D1F7861B970BB5
:100FC000885E9340C8F22150304040405040685104
:100FD0007C4F211531054105510571F6089578942E
:100FE00084B5826084BD84B5816084BD85B582602E
:100FF00085BD85B5816085BDEEE6F0E080818160CC
:101000008083E1E8F0E010828081826080838081CB
:1010100081608083E0E8F0E0808181608083E1EBA3
:10102000F0E0808184608083E0EBF0E0808181608B
:101030008083EAE7F0E08081846080838081826041
:10104000808380818160808380818068808310922A
:10105000C1000895982F8E3008F09E5097708091AF
:10106000FE018295880F880F807C892B80937C00FD
:1010700080917A00806480937A0080917A0086FD66
:10108000FCCF2091780040917900942F80E030E0EF
:10109000282B392BC9010895CF93DF93482F50E0B7
:1010A000CA0186569F4FFC0134914A575F4FFA019F
:1010B0008491882369F190E0880F991FFC01E85919
:1010C000FF4FA591B491FC01EE58FF4FC591D4910B
:1010D000662351F42FB7F8948C91932F9095892320
:1010E0008C93888189230BC0623061F42FB7F89408
:1010F0008C91932F909589238C938881832B88835F
:101100002FBF06C09FB7F8948C91832B8C939FBF01
:10111000DF91CF910895482F50E0CA0182559F4F2B
:10112000FC012491CA0186569F4FFC0194914A57B5
:101130005F4FFA013491332309F440C0222351F167
:10114000233071F0243028F42130A1F0223011F541
:1011500014C02630B1F02730C1F02430D9F404C0D7
:10116000809180008F7703C0809180008F7D809375
:10117000800010C084B58F7702C084B58F7D84BD98
:1011800009C08091B0008F7703C08091B0008F7D3F
:101190008093B000E32FF0E0EE0FFF1FEE58FF4FFB
:1011A000A591B4912FB7F894662321F48C91909572
:1011B000892302C08C91892B8C932FBF08950895A9
:1011C0001F920F920FB60F9211242F933F934F93BC
:1011D0008F939F93EF93FF938091C00082FD1DC07A
:1011E0004091C60020919302309194022F5F3F4FAF
:1011F0002F733070809195029091960228173907CD
:1012000071F0E0919302F0919402ED5AFD4F40830A
:10121000309394022093930202C08091C600FF9104
:10122000EF919F918F914F913F912F910F900FBE12
:101230000F901F901895E091E702F091E802E05CB2
:10124000FF4F8191919120813181821B930B8F738C
:101250009070892B11F00E94DF0808951F920F9261
:101260000FB60F9211242F933F938F939F93EF9379
:10127000FF932091D7023091D8028091D9029091AA
:10128000DA022817390731F48091C1008F7D8093ED
:10129000C10014C0E091D902F091DA02E956FD4F85
:1012A00020818091D9029091DA0201968F7390701B
:1012B0009093DA028093D9022093C600FF91EF91B8
:1012C0009F918F913F912F910F900FBE0F901F9084
:1012D0001895AF92BF92DF92EF92FF920F931F93F8
:1012E000CF93DF93EC017A018B01DD24403081EE56
:1012F000580780E0680780E0780711F0DD24D39478
:1013000091E0A92EB12CEC89FD89DD2069F0C501A1
:1013100008A002C0880F991F0A94E2F7808360E05A
:1013200079E08DE390E005C0108260E874E88EE11A
:1013300090E0A80197010E9467132150304040407F
:101340005040569547953795279580E120303807CE
:1013500020F0DD2011F0DD24D6CFE889F989308333
:10136000EA89FB89208319A2EE89FF89408121E067
:1013700030E0C9010C8C02C0880F991F0A94E2F773
:10138000482B4083EE89FF894081C9010D8C02C042
:10139000880F991F0A94E2F7482B4083EE89FF8952
:1013A0004081C9010E8C02C0880F991F0A94E2F790
:1013B000482B4083EE89FF8980810F8C02C0220F69
:1013C000331F0A94E2F7209528232083DF91CF91E1
:1013D0001F910F91FF90EF90DF90BF90AF90089515
:1013E000DC011C96ED91FC911D97E05CFF4F219173
:1013F000319180819181281B390B2F733070C90185
:101400000895DC011C96ED91FC911D97E05CFF4F67
:1014100020813181E054F040DF01AE5BBF4F8D9100
:101420009C9111972817390719F42FEF3FEF07C048
:101430008D919C91E80FF91F8081282F30E0C90120
:101440000895DC011C96ED91FC911D97E05CFF4F27
:1014500020813181E054F040DF01AE5BBF4F8D91C0
:101460009C9111972817390719F42FEF3FEF10C0FF
:101470008D919C911197E80FF91F20818D919C917E
:10148000119701968F73907011969C938E9330E014
:10149000C9010895DC0191968C919197882339F0C8
:1014A0005496ED91FC915597808186FFF9CF9196E6
:1014B0001C920895CF93DF93EC01EE85FF85E05CED
:1014C000FF4F20813181E054F0402F5F3F4F2F7359
:1014D0003070DF01AE5BBF4F8D919C911197281743
:1014E0003907D1F3E05CFF4F80819181E054F040F7
:1014F000E80FF91F6083EE85FF85E05CFF4F3183C5
:101500002083EE89FF89208181E090E00F8C02C06A
:10151000880F991F0A94E2F7282B208381E089A382
:10152000EC89FD8980818064808381E090E0DF9197
:10153000CF9108951092DE021092DD0288EE93E0C2
:10154000A0E0B0E08093DF029093E002A093E1027C
:10155000B093E20283E092E09093DC028093DB029E
:1015600083E592E09093E8028093E70287E992E0B6
:101570009093EA028093E90285EC90E09093EC026C
:101580008093EB0284EC90E09093EE028093ED0266
:1015900080EC90E09093F0028093EF0281EC90E079
:1015A0009093F2028093F10282EC90E09093F40227
:1015B0008093F30286EC90E09093F6028093F5021C
:1015C00084E08093F70283E08093F80287E08093C1
:1015D000F90285E08093FA0281E08093FB0208958E
:1015E000CF92DF92EF92FF920F931F93CF93DF93EF
:1015F0007C016B018A01C0E0D0E00FC0D6016D9183
:101600006D01D701ED91FC910190F081E02DC701B2
:101610000995C80FD91F015010400115110571F728
:10162000CE01DF91CF911F910F91FF90EF90DF904E
:10163000CF900895DC01ED91FC910190F081E02DB7
:1016400009950895EF92FF920F931F938C01DC018F
:10165000ED91FC910190F081E02D6DE009957C0108
:10166000D801ED91FC910190F081E02DC8016AE074
:1016700009959C012E0D3F1DC9011F910F91FF90EF
:10168000EF900895CF93DF93EC016115710519F484
:1016900020E030E00FC0DB010D900020E9F711974A
:1016A000A61BB70BE881F9810280F381E02DAD0123
:1016B00009959C01C901DF91CF9108954F925F92E6
:1016C0007F928F929F92AF92BF92CF92DF92EF92D2
:1016D000FF920F931F93DF93CF93CDB7DEB7A19700
:1016E0000FB6F894DEBF0FBECDBF2C01742ECB0118
:1016F000223008F42AE019A231E2C32ED12CCC0EFC
:10170000DD1E822E9924AA24BB24672D752FA501E6
:1017100094010E94671379018A01C801B701A501EC
:1017200094010E943C13472D461B0894C108D10820
:101730004A3014F4405D01C0495CF6014083E11475
:10174000F1040105110521F07E2C5F2DC801DDCFCC
:10175000C201B6010E94420BA1960FB6F894DEBFFB
:101760000FBECDBFCF91DF911F910F91FF90EF90F2
:10177000DF90CF90BF90AF909F908F907F905F90C1
:101780004F900895DC012115310541F4ED91FC9154
:101790000190F081E02D642F099508950E945E0B61
:1017A0000895EF92FF920F931F939A017B0100E03F
:1017B00010E0B801A7010E94C20B1F910F91FF908A
:1017C000EF900895EF92FF920F931F939A01E62EE8
:1017D000FF2400E010E0B801A7010E94C20B1F9196
:1017E0000F91FF90EF900895CF92DF92EF92FF92CA
:1017F0000F931F93CF93DF93EC016A017B012115B7
:10180000310541F4E881F9810190F081E02D642FE8
:1018100009951FC02A303105D1F477FF17C0E88140
:10182000F9810190F081E02D6DE209958C0144274A
:101830005527BA014C195D096E097F09CE012AE0CE
:101840000E945E0B9801280F391F04C02AE00E94F5
:101850005E0B9C01C901DF91CF911F910F91FF9009
:10186000EF90DF90CF900895EF92FF920F931F9328
:101870007B019A010027F7FC0095102FB801A70102
:101880000E94F40B1F910F91FF90EF900895CF925B
:10189000DF92EF92FF920F931F936C017B019A01ED
:1018A0000027F7FC0095102FB801A7010E94F40B48
:1018B0008C01C6010E94220B080F191FC8011F913D
:1018C0000F91FF90EF90DF90CF9008950E94420B10
:1018D0000895EF92FF920F931F937C010E94420B99
:1018E0008C01C7010E94220B080F191FC8011F910C
:1018F0000F91FF90EF900895AF92BF92CF92DF9239
:10190000EF92FF920F931F93CF93DF935C016B01D4
:10191000EE24FF24C0E0D0E010C0D501ED91FC9191
:1019200000811181C601BE010E940C0D682FC50106
:10193000F8010995E80EF91E2196F601848195813A
:10194000C817D90750F3C701DF91CF911F910F91AD
:10195000FF90EF90DF90CF90BF90AF900895EF92FF
:10196000FF920F931F937C010E947C0C8C01C70196
:101970000E94220B9C01200F311FC9011F910F9162
:10198000FF90EF9008952F923F924F925F926F9247
:101990007F928F929F92AF92BF92CF92DF92EF92FF
:1019A000FF920F931F93DF93CF93CDB7DEB73B0129
:1019B0004C0119012A016D897E898F89988D6A19D8
:1019C0007B098C099D09621A730A840A950AA4018D
:1019D00093010E943C13E218F30804091509A801B9
:1019E00097010E9489132A0D3B1D4C1D5D1DB901F5
:1019F000CA01CF91DF911F910F91FF90EF90DF907F
:101A0000CF90BF90AF909F908F907F906F905F909E
:101A10004F903F902F900895FC0184819581681725
:101A2000790748F40190F081E02D309721F0E60F1E
:101A3000F71F8081089580E00895DC01FB01149672
:101A40008D919C911597892B31F461157105A9F041
:101A500090E0808108C00D90BC91A02D61157105AA
:101A600029F490E08C91882349F407C0CD010E94AD
:101A700072029C0190E0232B09F491E0892F0895D4
:101A80000F931F93CF93DF93EC018B016F5F7F4F19
:101A9000888199810E949101009711F480E005C02E
:101AA000998388831B830A8381E0DF91CF911F9103
:101AB0000F910895CF93DF93EC0188819981892B51
:101AC00029F08A819B818617970760F4CE010E94D6
:101AD000400D882341F08C819D81892B19F4E88188
:101AE000F981108281E0DF91CF910895CF93DF9348
:101AF000EC0188819981009711F00E9439011982C7
:101B000018821D821C821B821A82DF91CF91089558
:101B1000EF92FF920F931F93CF93DF93EC017B0122
:101B20008A01BA010E945A0D882321F4CE010E9435
:101B3000760D07C01D830C8388819981B7010E94AF
:101B40007B02CE01DF91CF911F910F91FF90EF901B
:101B50000895CF93DF93EC01198218821B821A82B9
:101B60001D821C821E826115710551F0DB010D90F2
:101B70000020E9F71197A61BB70BAD010E94880D55
:101B8000DF91CF9108950F931F93182F092F61159F
:101B9000710559F0DB010D900020E9F71197A61BA4
:101BA000B70BAD010E94880D02C00E94760D812FF7
:101BB000902F1F910F910895CF93DF93EC01FB01BC
:101BC0008617970761F0608171816115710529F0B1
:101BD000448155810E94880D02C00E94760DCE017D
:101BE000DF91CF910895FC01808191810E9439019C
:101BF000089581E08093420360931F031092400395
:101C000010924103089520911E0330E080911D033E
:101C1000281B3109C901089540911D0380911E03BD
:101C2000481718F02FEF3FEF0AC0E42FF0E0E35021
:101C3000FD4F8081282F30E04F5F40931D03C90185
:101C40000895E0911D0380911E03E81718F0EFEF4F
:101C5000FFEF06C0F0E0E350FD4F8081E82FF0E099
:101C6000CF0108950895109246031092450388EE1F
:101C700093E0A0E0B0E08093470390934803A093E3
:101C80004903B0934A0383E192E090934403809325
:101C900043030895CF92DF92EF92FF920F931F9329
:101CA000CF93DF937C016B018A01809142038823EB
:101CB000A1F0C0E0D0E00DC0D701ED91FC91D601BC
:101CC000AC0FBD1F0190F081E02DC7016C9109950B
:101CD0002196C017D10780F304C0CB01642F0E9466
:101CE0007211C801DF91CF911F910F91FF90EF907A
:101CF000DF90CF900895DF93CF930F92CDB7DEB7EB
:101D0000FC016983809142038823C9F080914103DB
:101D1000803238F081E090E09383828320E030E0ED
:101D200015C080914003E82FF0E0E05EFC4F998100
:101D300090838F5F809340038093410305C0CE0161
:101D4000019661E00E94721121E030E0C9010F901C
:101D5000CF91DF9108950F93062F80911F0360E2CA
:101D600073E04091410321E00E941D111092400355
:101D700010924103109242030F91089561E00E9476
:101D8000AB0E0895413208F040E2862F6DEF72E00D
:101D90000E94D41010921D0380931E03089521E029
:101DA0000E94C20E089510921D0310921E031092FD
:101DB0004003109241030E941E130895CF93DF93B6
:101DC000DC01FB01EB012996818580538A3008F004
:101DD00080E0298120533AE0839FC0011124280F1D
:101DE0002C9380818A34A9F08B343CF48434C1F183
:101DF0008634F1F08134C1F51DC08E3479F18F3411
:101E00001CF48D3489F51DC08F3421F1833561F5C3
:101E10001FC08181813611F481E023C082818E361A
:101E200011F087E001C086E011968C93119719C0DC
:101E300082E017C08281823711F088E012C084E00E
:101E400010C08281823711F085E00BC083E009C0A9
:101E500089E007C011963C93119706C08BE001C042
:101E60008CE011968C931197EF0124966481605356
:101E70006A3008F060E0298120538AE0689FC00141
:101E80001124280F12962C931297EA0198819053EF
:101E90009A3008F090E0FA01218120538AE0989F5F
:101EA000C0011124280F13962C9313973396EA013F
:101EB0009B8190539A3008F090E0218120538AE072
:101EC000989FC0011124280F14962C931497FA019F
:101ED0003696EA014E8140534A3008F040E02181B5
:101EE00020538AE0489FC0011124280F15962C9397
:101EF000DF91CF91089581E00895BF92CF92DF9254
:101F0000EF92FF920F931F93DF93CF9300D000D0F7
:101F100000D0CDB7DEB703E413E0C80168E670E097
:101F20000E94F90DC80160E00E947B0EC8010E946A
:101F3000BE0EC80168E670E047E050E00E94CF0E98
:101F4000C8010E940C0E9FE7B92EB822C8010E945A
:101F50000C0EC82EC8010E940C0ED82EC8010E947B
:101F60000C0EC8010E940C0EE82EC8010E940C0E37
:101F7000F82EC8010E940C0E282F30E0B4E03595F1
:101F80002795BA95E1F74AEF5FEFB901649F900199
:101F9000659F300D749F300D1124820F90E02B2D22
:101FA00030E0A4E035952795AA95E1F7B901649F43
:101FB0009001659F300D749F300D1124B20E2C2DB1
:101FC00030E0F4E035952795FA95E1F7B901649F83
:101FD0009001659F300D749F300D1124C20E2D2D80
:101FE00030E0E4E035952795EA95E1F7B901649F83
:101FF0009001659F300D749F300D1124D20E2E2D4F
:1020000030E074E0359527957A95E1F7B901649F42
:102010009001659F300D749F300D1124E20E2F2D1D
:1020200030E064E0359527956A95E1F7B901649F42
:102030009001659F300D749F300D1124F20E282FF2
:102040003F2D4E2D5D2D6C2D7B2D80E026960FB6FD
:10205000F894DEBF0FBECDBFCF91DF911F910F91DE
:10206000FF90EF90DF90CF90BF90089583E493E0CE
:1020700068E670E00E94F90D83E493E060E00E945E
:102080007B0E83E493E00E94BE0E83E493E068E657
:1020900070E041E050E00E94CF0E83E493E00E94A4
:1020A0000C0E20E090E0880F892F881F990B892B58
:1020B00009F421E0822F0895DF92EF92FF920F93AF
:1020C0001F937C0103E413E0C80168E670E00E94FE
:1020D000F90DC80160E00E947B0EF7012581822F77
:1020E0006AE00E945B1346E0D42E8D9DC00111244E
:1020F000280FC801622F0E947B0EF7012481822FD6
:102100006AE00E945B138D9DC0011124280FC80155
:10211000622F0E947B0EF7012381822F6AE00E94CA
:102120005B138D9DC0011124280FC801622F0E94EE
:102130007B0EC80160E00E947B0EF7012281822F96
:102140006AE00E945B138D9DC0011124280FC80115
:10215000622F0E947B0EF7012181822F6AE00E948C
:102160005B138D9DC0011124280FC801622F0E94AE
:102170007B0EF7012081822F6AE00E945B138D9D08
:10218000C0011124280FC801622F0E947B0EC801D4
:1021900060E00E947B0EC8010E94BE0E1F910F914D
:1021A000FF90EF90DF900895382F413210F040E01B
:1021B00042C080914F038823E1F791E090934F0351
:1021C000209351038FEF8093BC031092770341500B
:1021D000409378034F5F9093500380915003330FE7
:1021E000832B8093500380915203813041F41092ED
:1021F0005203809150038093BB0085EC01C085EEB3
:102200008093BC0080914F038130E1F3809177038C
:10221000841710F44091770320E030E00AC0FB01FE
:10222000E20FF31FD901A95ABC4F8C9180832F5F15
:102230003F4F2417A0F3842F08950F931F93582F17
:10224000122F413210F081E04AC080914F03882361
:10225000E1F782E080934F03009351038FEF809367
:10226000BC031092770340937803A7E5B3E0FB012A
:1022700002C081918D938E2F861B8417D0F310920C
:10228000500380915003550F852B8093500380910C
:102290005203813041F41092520380915003809395
:1022A000BB0085EC01C085EE8093BC00112321F0BA
:1022B00080914F038230E1F38091BC038F3F11F492
:1022C00080E00DC08091BC03803211F482E007C031
:1022D0008091BC03803311F084E001C083E01F9142
:1022E0000F910895482F613210F081E00895809198
:1022F0004F03843011F082E0089560939A03A9E7B8
:10230000B3E0842F9C01F90102C081918D938E2F3F
:10231000841B8617D0F380E008951F920F920FB6AA
:102320000F9211242F933F934F935F936F937F935B
:102330008F939F93AF93BF93EF93FF938091B900D7
:1023400090E0887F90708036910509F4F2C0813664
:102350009105CCF58832910509F47BC0893291054D
:10236000B4F48031910509F46FC0813191053CF4DA
:10237000009709F447C1089709F04FC165C088313B
:10238000910509F466C0809709F047C182C0803486
:10239000910509F4A4C08134910544F4803391057A
:1023A00009F482C0C89709F038C189C08035910509
:1023B00009F489C08835910509F496C088349105DF
:1023C00009F02BC1AEC08839910509F413C18939D0
:1023D0009105ECF48837910509F4ABC08937910574
:1023E0004CF48836910509F4A4C08037910509F0B2
:1023F00014C19FC08838910509F4FCC0803991054B
:1024000009F49DC08038910509F007C198C0803B50
:10241000910509F4C6C0813B91054CF4803A9105C1
:1024200009F49FC0883A910509F0F7C0BAC0803C12
:10243000910509F4E3C0883C910509F4DFC0883BAD
:10244000910509F0EAC0C2C0809150038093BB009F
:10245000CFC09091770380917803981768F490919A
:102460007703E92FF0E0E95AFC4F80818093BB00AD
:102470009F5F90937703BCC080915103882309F438
:102480004BC085ED8093BC008091BC0084FDFCCFE7
:10249000C2C080E28093BC0385ED8093BC00809134
:1024A000BC0084FDFCCFB7C080E38093BC0385ED06
:1024B0008093BC008091BC0084FDFCCFACC088E35D
:1024C0008093BC039BC0809177039091BB00E82F61
:1024D000F0E0E95AFC4F90838F5F809377039091EF
:1024E00077038091780382C0809177039091BB003D
:1024F000E82FF0E0E95AFC4F90838F5F80937703D9
:1025000080915103882341F085ED8093BC00809138
:10251000BC0084FDFCCF7FC081E08093520384EA3D
:102520006EC085ED8093BC008091BC0084FDFCCF23
:1025300072C083E080934F031092BB0359C0809117
:10254000BB03803208F056C08091BB039091BB0062
:10255000E82FF0E0E556FC4F90838F5F8093BB033C
:1025600047C08091BB03803230F4E091BB03F0E0C0
:10257000E556FC4F108285ED8093BC008091BC0035
:1025800084FDFCCF10924F036091BB03E091550393
:10259000F09156038BE993E070E009951092BB032C
:1025A0002DC084E080934F031092990310929A03F8
:1025B000E0915303F0915403099580919A03882385
:1025C00029F481E080939A03109279039091990302
:1025D000E92FF0E0E758FC4F80818093BB009F5FBC
:1025E000909399039091990380919A03981710F40E
:1025F00085EC01C085E88093BC000FC085EC80931A
:10260000BC0009C01092BC0385ED8093BC00809192
:10261000BC0084FDFCCF10924F03FF91EF91BF915E
:10262000AF919F918F917F916F915F914F913F916A
:102630002F910F900FBE0F901F90189510924F037F
:1026400081E0809351031092520382E161E00E9485
:102650008B0883E161E00E948B08E9EBF0E0808168
:102660008E7F808380818D7F808388E48093B80013
:1026700085E48093BC000895629FD001739FF001B0
:10268000829FE00DF11D649FE00DF11D929FF00D02
:10269000839FF00D749FF00D659FF00D9927729F39
:1026A000B00DE11DF91F639FB00DE11DF91FBD01C4
:1026B000CF0111240895991B79E004C0991F961742
:1026C00008F0961B881F7A95C9F780950895A1E2B6
:1026D0001A2EAA1BBB1BFD010DC0AA1FBB1FEE1F9C
:1026E000FF1FA217B307E407F50720F0A21BB30BE7
:1026F000E40BF50B661F771F881F991F1A9469F763
:1027000060957095809590959B01AC01BD01CF01BE
:10271000089597FB092E05260ED057FD04D0D7DF6C
:102720000AD0001C38F450954095309521953F4FC4
:102730004F4F5F4F0895F6F790958095709561958E
:102740007F4F8F4F9F4F08952F923F924F925F92EE
:102750006F927F928F929F92AF92BF92CF92DF92B1
:10276000EF92FF920F931F93CF93DF93CDB7DEB716
:10277000CA1BDB0B0FB6F894DEBF0FBECDBF0994AA
:102780002A88398848885F846E847D848C849B8401
:10279000AA84B984C884DF80EE80FD800C811B810F
:1027A000AA81B981CE0FD11D0FB6F894DEBF0FBE3E
:1027B000CDBFED010895EE0FFF1F0590F491E02DC0
:1027C000099410E0C8ECD0E004C0FE010E94DD13C3
:0C27D0002296CA3CD107C9F7F894FFCF4D
:1027DC000073746F70007175657279696E67200093
:1027EC006163747561746F7200616C6C0061637409
:1027FC007561746F72202D2D20636D643A20000971
:10280C00093A3A0963757272656E7420706F736958
:10281C0074696F6E3A0900736F6C656E6F696473DF
:10282C0000736F6C656E6F696473202D2D20002012
:10283C007C2000636C6F636B00636C6F636B202D8B
:10284C002D2000525443206973204E4F5420727532
:10285C006E6E696E6721002D2D2073657475702066
:10286C00636F6D706C657465202D2D00696E7075CD
:10287C00743A200009206C65747465723A200075F6
:10288C007000646F776E0062756D707570006275A4
:10289C006D70646F776E004A756C20323320323065
:1028AC0031330031383A30383A3535002000C10325
:1028BC0000000A00080009000B000C0003000400D3
:1028CC000500060007000E006400EE02F401010092
:1028DC000000005A0AF00AF009210A010A4A0A000B
:1028EC000000007B0E4A0E030E0C0E210E320E0061
:00000001FF
