:100000000C946B000C9493000C9493000C9493004C
:100010000C9493000C9493000C9493000C94930014
:100020000C9493000C9493000C9493000C94930004
:100030000C9493000C9493000C9493000C949300F4
:100040000C94130A0C9493000C94B30B0C94010CB5
:100050000C9493000C9493000C9493000C949300D4
:100060000C9402160C94930000000000240027005A
:100070002A0000000000250028002B0000000000DE
:1000800023002600290004040404040404040202DA
:100090000202020203030303030301020408102007
:1000A0004080010204081020010204081020000012
:1000B0000007000201000003040600000000000029
:1000C00000001F1C1F1E1F1E1F1F1E1F1E1F680358
:1000D0006D0D3312610311241FBECFEFD8E0DEBFD8
:1000E000CDBF12E0A0E0B1E0E4E0F5E302C005908E
:1000F0000D92AC3BB107D9F714E0ACEBB2E001C014
:100100001D92AF36B107E1F710E0C4EDD0E004C0B6
:100110002297FE010E94711ACE3CD107C9F70E94B6
:10012000040A0C94CD020C940000CF93DF93BC0121
:100130008230910510F462E070E0A0916D04B091FE
:100140006E04ED01E0E0F0E040E050E021C0888185
:1001500099818617970769F48A819B81309719F0F6
:100160009383828304C090936E0480936D04FE0198
:1001700034C06817790738F44115510519F0841710
:10018000950708F4AC01FE018A819B819C01E9017D
:100190002097E9F641155105A9F1CA01861B970B75
:1001A000049708F4BA01E0E0F0E02AC08D919C9138
:1001B000119784179507F9F46417750781F412965F
:1001C0008D919C911397309719F09383828304C08B
:1001D00090936E0480936D04FD0132964CC0CA0169
:1001E000861B970BFD01E80FF91F6193719302972E
:1001F0008D939C9340C0FD01828193819C01D90124
:100200001097A1F680916B0490916C04892B41F4B6
:10021000809162029091630290936C0480936B04CE
:1002200040916402509165024115510541F44DB76A
:100230005EB78091600290916102481B590B20913A
:100240006B0430916C04CA01821B930B86179707CD
:1002500080F0AB014E5F5F4F8417950750F0420F5F
:10026000531F50936C0440936B04F9016193719395
:1002700002C0E0E0F0E0CF01DF91CF910895CF938D
:10028000DF93009709F450C0EC0122971B821A8279
:10029000A0916D04B0916E04109709F140E050E018
:1002A000AC17BD0708F1BB83AA83FE0121913191F0
:1002B000E20FF31FAE17BF0779F48D919C91119750
:1002C000280F391F2E5F3F4F3983288312968D9157
:1002D0009C9113979B838A834115510571F4D093A8
:1002E0006E04C0936D0420C012968D919C9113975B
:1002F000AD01009711F0DC01D3CFFA01D383C283A3
:1003000021913191E20FF31FCE17DF0769F4888145
:100310009981280F391F2E5F3F4FFA0131832083C7
:100320008A819B8193838283DF91CF910895A0E09E
:10033000B0E0EDE9F1E00C94401AEC01A880B9803E
:10034000CA80DB80A114B104C104D10441F484E269
:10035000A82E89EDB82E8BE5C82E87E0D82EC601D1
:10036000B5012DE133EF41E050E00E941D1A27EA6C
:1003700031E440E050E00E94D0197B018C01C601BD
:10038000B5012DE133EF41E050E00E941D1ACA0192
:10039000B9012CEE34EF4FEF5FEF0E94D0196E0DD4
:1003A0007F1D801F911F97FF04C0615070408040E7
:1003B0009048688379838A839B839B01AC015F7734
:1003C000B901CA01CDB7DEB7EAE00C945C1A0E940D
:1003D0009701089586E692E00E9497010895609340
:1003E0006602709367028093680290936902089591
:1003F000A0E0B0E0EEEFF1E00C943A1A6C01009747
:1004000029F4CB010E9495006C01C1C08EEF882EAB
:100410008FEF982E8C0C9D1C8601060F171F081558
:10042000190508F4B2C0F401A081B181A617B7077D
:10043000B8F0A530B10508F4AAC0CD01049786171D
:10044000970708F4A4C01297A61BB70BF801A19355
:10045000B193D4016D937C93CF010E943F0197C06B
:100460007B01EA1AFB0AEEEFFFEFEE0EFF1E3601EC
:100470006A0E7B1EC0916D04D0916E0444245524F5
:10048000AA24BB244AC0C615D705E1F54881598185
:100490004E155F05B8F1CA0104978E159F05B0F49B
:1004A0001296A40FB51FF401B183A0832A813B816A
:1004B0004114510431F0D20113963C932E931297BC
:1004C00066C030936E0420936D0461C08A819B8165
:1004D000F80193838283425050404E195F09518343
:1004E00040834114510431F0D20113961C930E93B2
:1004F000129704C010936E0400936D04F40171838D
:10050000608345C088819981A816B90608F45C010A
:100510002E018A819B819C01E901209709F0B3CFCC
:1005200080916B0490916C0486159705E9F4A616EA
:10053000B706D0F42091640230916502211531058F
:1005400041F42DB73EB78091600290916102281B63
:10055000390B02171307C8F410936C0400936B0453
:10056000D4016D937C9313C0CB010E949500EC01E4
:10057000009759F0F40140815181B6010E94D002E8
:10058000C6010E943F016E0102C0CC24DD24C601D9
:10059000CDB7DEB7E0E10C94561AF8940C94751AB6
:1005A000FB01DC0102C001900D9241505040D8F790
:1005B0000895FB01DC018D91019080190110D9F3A0
:1005C000990B0895FB01DC0101900D920020E1F7E9
:1005D0000895FC0181E992E0918380830895FC01F4
:1005E00081E992E091838083CF010E94EC1108950C
:1005F000CF93DF93EC018B818F3F19F060E00E9475
:100600005E0B8C8180778C8380E0DF91CF910895A1
:10061000CF93DF93EC018B818F3F19F061E00E9453
:100620005E0B8C818068807F8C8380E0DF91CF912E
:100630000895CF93DF93EC0181E992E09983888359
:100640006A834B831C821E821D8218861F824F3F45
:1006500041F0842F60E00E945E0B8B8161E00E947C
:100660001F0BDF91CF91089581309105B1F46F5F39
:100670007F4F31F58DEB92E067E242E00E94190373
:1006800080EE92E060E071E00E949C1187EE92E0C3
:1006900061E071E00E949C110895892B89F46F5FDD
:1006A0007F4F71F487EE92E00E94E61180EE92E0B7
:1006B0000E94E61181E992E09093BE028093BD0210
:1006C000089580E090E06FEF7FEF0E94340308957B
:1006D00081E090E06FEF7FEF0E9434030895AF92C6
:1006E000BF92CF92DF92EF92FF920F931F93809170
:1006F00080020E94FD0A00D000D0AA2797FDA09595
:10070000BA2F2FEF30E040E050E0EDB7FEB7218385
:10071000328343835483BC01CD0129E130E040E0C2
:1007200050E0EAECEE2EE3E0FE2E012D112DAA247E
:10073000BB2465010E94AE100F900F900F900F9098
:100740006F3F710519F014F06FEF70E077FF02C092
:1007500060E070E0CB011F910F91FF90EF90DF9070
:10076000CF90BF90AF9008950F931F93CF93DF93D7
:10077000EC018C8187FD05C0807F83608C8383E0E2
:1007800088C081EF93E06A810E94EF1181EF93E0CE
:100790000E94BE12082F10E00115110509F067C074
:1007A0006AE070E080E090E00E94690A81EF93E0E7
:1007B0006A8144E00E94D31281EF93E00E94031209
:1007C000892B09F44EC081EF93E00E940C12182F80
:1007D00081EF93E00E940C12282F812F90E0AC0152
:1007E000B6E055954795BA95E1F7413059F141305A
:1007F00018F04230A9F62BC08F739070982F88277D
:1008000030E0822B932B9E838D8381EF93E00E94B7
:100810000C12182F81EF93E00E940C12312F20E070
:1008200090E0282B392B36952795369527953887D4
:100830002F8381EF93E00E94BE128C81807F8C8396
:1008400080E027C081EF93E00E94BE12A9CF81EF24
:1008500093E00E94BE128C81807F84608C8384E050
:1008600018C08C81807F82608C8382E012C089E80E
:1008700093E066E071E00E94570F89E893E0B801C9
:100880004AE050E00E94380F8C81807F81608C8329
:1008900081E0DF91CF911F910F910895CF92DF9268
:1008A000EF92FF920F931F93DF93CF93CDB7DEB7F5
:1008B0002C970FB6F894DEBF0FBECDBF6C0189E850
:1008C00093E06AE071E00E94570F89E893E0B60177
:1008D0000E949A10C60164E171E00E941011882301
:1008E00039F4C6016DE171E00E9410118823E1F036
:1008F00089E893E061E271E00E94570F89E893E094
:1009000067EE72E00E94671089E893E063E371E0AC
:100910000E94570F6091C7027091C80289E893E066
:100920004AE050E00E94380FC6016BE471E00E947B
:100930001011882339F4C6016DE171E00E94101195
:10094000882359F189E893E065E571E00E94570F2B
:100950001EEEE12E12E0F12E00E010E0F7016081C2
:10096000718189E893E04AE050E00E94250F04304D
:10097000110531F089E893E063E671E00E94570FBA
:100980000F5F1F4F82E090E0E80EF91E0530110561
:1009900029F789E893E00E94F50DC60167E671E04A
:1009A0000E941011882341F4C6016DE171E00E949C
:1009B0001011882309F461C089E893E06DE671E0C5
:1009C0000E94570F0E94F2132F83388749875A8756
:1009D0006B877C87DE011196FE01379686E00190D9
:1009E0000D928150E1F7698170E06053784F89E89A
:1009F00093E04AE050E00E94A40E89E893E06FE2A1
:100A00000E94ED0D89E893E06A814AE050E00E947F
:100A1000B50E89E893E06FE20E94ED0D89E893E05E
:100A20006B814AE050E00E94B50E89E893E060E2F5
:100A30000E94ED0D89E893E06C814AE050E00E944D
:100A4000B50E89E893E06AE30E94ED0D89E893E032
:100A50006D814AE050E00E94B50E89E893E06AE3B8
:100A60000E94ED0D89E893E06E814AE050E00E941B
:100A7000B50E89E893E00E94F50DC60167E771E0C5
:100A80000E941011882339F4C6016DE171E00E94C3
:100A90001011882341F1809182020E94FD0AAA2749
:100AA00097FDA095BA2FBC01CD010E94B5186093A7
:100AB000CB027093CC028093CD029093CE0289E852
:100AC00093E06DE771E00E94570F4091CB02509187
:100AD000CC026091CD027091CE0289E893E022E0D1
:100AE00030E00E944110C60161E971E00E941011DE
:100AF000882341F4C6016DE171E00E941011882342
:100B000009F478C08DEB92E00E9408038DEB92E02F
:100B10000E94B40389E893E065E971E00E94570FF1
:100B20006091C2027091C30280E090E00E94B3180D
:100B300020E038EF4FE756E40E941A18AB01BC01E1
:100B400089E893E025E030E00E943E1089E893E0D8
:100B500062EA71E00E94570F6091C2027091C30275
:100B600089E893E04AE050E00E94A40E89E893E00F
:100B700068EA71E00E94541089E893E06AEA71E043
:100B80000E94570F6091C4027091C50280E090E00E
:100B90000E94B31820E038EF4FE756E40E941A187D
:100BA00020E030E045E253E40E94691920E030E0A3
:100BB00040E252E40E94B117AB01BC0189E893E026
:100BC00025E030E00E943E1089E893E06AEB71E096
:100BD0000E94570F6091C4027091C50289E893E0AA
:100BE0004AE050E00E94A40E89E893E068EA71E0D0
:100BF0000E9454102C960FB6F894DEBF0FBECDBFE6
:100C0000CF91DF911F910F91FF90EF90DF90CF90E8
:100C100008950F931F93DF93CF93CDB7DEB7279738
:100C20000FB6F894DEBF0FBECDBF80916A0261E0BF
:100C30000E945E0B80916C0261E00E941F0B80910C
:100C40006A0261E00E941F0B80916E0261E00E94C7
:100C50001F0B8091700261E00E941F0B8091720255
:100C600061E00E941F0B8091740261E00E941F0BE3
:100C700080918402909185020E94F71006E712E0AD
:100C8000F801808161E00E941F0B0E5F1F4FF2E0B0
:100C900000381F07A9F78091800260E00E941F0BB7
:100CA0000E945B0A6093D4027093D5028093D602AF
:100CB0009093D70281EF93E00E94D7120E94F01325
:100CC00089E893E040E855E260E070E00E943C0C67
:100CD0008CEB92E00E94AB14882331F489E893E016
:100CE0006FEB71E00E9454108E010F5F1F4FC8011F
:100CF0006DE171E00E949C11C8010E944E04C80180
:100D00000E94E6116AEF70E080E090E00E94690ABC
:100D100089E893E063ED71E00E94541027960FB6C6
:100D2000F894DEBF0FBECDBFCF91DF911F910F9121
:100D300008951F93CF93DF93DC01EB014836A9F0B0
:100D4000493650F4413309F451C0413609F43FC0EB
:100D5000403309F062C051C04437B1F0453709F45F
:100D600042C0403709F059C036C015966D917C914C
:100D7000169780E090E00E94B31820E038EF4FE72C
:100D800056E40E941A181AC017966D917C91189714
:100D900080E090E00E94B31820E038EF4FE756E47F
:100DA0000E941A1820E030E045E253E40E946919DD
:100DB00020E030E040E252E40E94B117AB01BC01F8
:100DC000CE0122E030E00E94411010E02DC0CB01A6
:100DD00012966C9103C0CB0113966C914AE050E0DF
:100DE0000E94C70EF2CF0E94B4030FC0ED91FC9198
:100DF00011970480F581E02D06C0ED91FC911197CB
:100E00000680F781E02DCD010995182FCE01612FC5
:100E10004AE050E00E94C70E07C0CE016EEF4AE0E4
:100E200050E00E94C70E1EEF812FDF91CF911F91DE
:100E30000895CF92DF92EF92FF920F931F93DF936B
:100E4000CF93CDB7DEB7C354D0400FB6F894DEBF12
:100E50000FBECDBF0E946F039093C8028093C7025C
:100E600080916C026091C6020E945E0B0E94F21398
:100E70002EAF3FAFFE01E05CFF4F4083FE01EF5B12
:100E8000FF4F5083FE01EE5BFF4F6083FE01ED5B81
:100E9000FF4F7083DE011196FE01FE9686E0019001
:100EA0000D928150E1F78C818930D0F18631C0F507
:100EB0001092D302CE0101960E94B3132091CF026B
:100EC0003091D0024091D1025091D2026217730743
:100ED0008407950719F190E08091C602882309F4F0
:100EE00091E09093C6028091D302882351F00E9432
:100EF0005B0A6093DC027093DD028093DE029093C4
:100F0000DF02CE0101960E94B3136093CF0270936B
:100F1000D0028093D1029093D20202C01092D302E9
:100F200089E893E00E94C30C181619060CF02AC138
:100F300089E893E00E94F40C7C010E945B0A6093B4
:100F4000D4027093D5028093D6029093D70289E899
:100F500093E068EE71E00E94570F89E893E0B701D3
:100F60004AE050E00E94250F89E893E060EF71E0CD
:100F70000E94570F89E893E06E2D0E942D0D89E89D
:100F800093E00E94F50DF701F197E530F10500F5CA
:100F9000EE0FFF1FE251FD4F81E090E091838083CF
:100FA0000E945B0A6093DC027093DD028093DE0294
:100FB0009093DF028E01035F1F4FC8016BE471E065
:100FC0000E949C11C8010E944E04C8010E94E611B3
:100FD0008BE6E816F10409F450C09CE6E916F1042A
:100FE00024F5E1E6EE16F10409F462C0F2E6EF162C
:100FF000F10484F482E5E816F10409F48BC094E569
:10100000E916F10409F48CC0E0E2EE16F10409F0EF
:10101000B3C0ACC0F8E6EF16F10409F474C089E679
:10102000E816F10409F0A8C023C091E7E916F1041D
:1010300009F462C0E2E7EE16F10454F4FCE6EF16A0
:10104000F10429F18FE6E816F10409F095C01AC001
:1010500094E7E916F10409F441C0E9E7EE16F1045A
:1010600009F443C0F3E7EF16F10409F085C027C087
:1010700087EE92E06BEF71E07DC087EE92E06EEF5D
:1010800071E078C087EE92E063E072E004C087EE22
:1010900092E06AE072E00E94B6110E945B0A6093DF
:1010A000D8027093D9028093DA029093DB0264C075
:1010B0008E010C5E1F4FC80164E171E006C08E0115
:1010C000055E1F4FC8016BE471E00E949C11C801CE
:1010D0000E944E04C8010E94E6114EC08E010E5DB2
:1010E0001F4FC80167E671E0F0CF8E01075D1F4F0B
:1010F000C80167E771E0E9CF8E01005D1F4FC801AD
:101100006DE171E0E2CF8E01095C1F4FC80161E91A
:1011100071E0DBCF80916A0260E00E945E0B2CC020
:1011200089E893E063E172E00E94570F89E893E059
:1011300064E272E00E94570F89E893E060E372E096
:101140000E94570F89E893E065E372E00E94541013
:101150008E01095F1F4FC80164E272E045E352E06F
:101160000E941613C8010E94D11406C087EE92E0B7
:1011700061E071E00E94B61180EE92E067EE72E0ED
:101180000E94CF110E945B0A2091D4023091D502B7
:101190004091D6025091D702621B730B840B950BC2
:1011A00020918A0230918B02442737FD4095542FBD
:1011B0002617370748075907D8F42091C7023091FE
:1011C000C8028091C9029091CA022817390731F4E8
:1011D00087EE92E061E071E00E94B6110E945B0A26
:1011E0006093D4027093D5028093D6029093D70275
:1011F00087EE92E061E071E00E9410118823F1F027
:101200008091720260E00E945E0B8091740260E047
:101210000E945E0B8091700260E00E945E0B8091E4
:101220006E0260E00E945E0B8EEEE82E82E0F82EE9
:1012300006E7C02E02E0D02E86018FC087EE92E036
:101240006BEF71E00E941011882369F080917202A7
:1012500061E00E945E0B80916E0261E00E945E0B75
:1012600080917002DECF87EE92E06EEF71E00E9417
:101270001011882311F18091C7029091C802803B20
:10128000910574F08091740261E00E945E0B809180
:101290006E0260E00E945E0B8091700261E0C2CF3E
:1012A00087EE92E061E071E00E94B61189E893E078
:1012B0006EE372E00E945410A8CF87EE92E063E0E4
:1012C00072E00E941011882369F08091720261E03F
:1012D0000E945E0B80916E0261E00E945E0B809125
:1012E000700215C087EE92E06AE072E00E94101171
:1012F000882309F499CF8091740261E00E945E0B0B
:101300008091700261E00E945E0B80916E0260E04D
:101310000E945E0B0E945B0A2091D8023091D90294
:101320004091DA025091DB02621B730B840B950B28
:101330002091880230918902442737FD4095542F2F
:10134000261737074807590708F06ECF87EE92E057
:1013500061E071E00E94B61167CFF7018081918151
:10136000892B41F0F801808161E00E945E0BF7015A
:101370001182108282E090E0E80EF91E0E5F1F4F8E
:1013800098EFE91692E0F90641F70E945B0A209176
:10139000DC023091DD024091DE025091DF02621BDF
:1013A000730B840B950B20918602309187024427A2
:1013B00037FD4095542F261737074807590770F413
:1013C000F601808160E00E945E0B82E090E0C80E32
:1013D000D91E90E8C91692E0D90691F76AE070E04C
:1013E00080E090E00E94690ACD5BDF4F0FB6F89471
:1013F000DEBF0FBECDBFCF91DF911F910F91FF9048
:10140000EF90DF90CF900895CF93DF930E94C20AB0
:101410000E940906CEEEDBE00E9419072097E1F357
:101420000E94EE0BF9CF1F920F920FB60F9211246C
:101430002F933F938F939F93AF93BF938091FC0221
:101440009091FD02A091FE02B091FF023091000345
:101450000196A11DB11D232F2D5F2D3720F02D5793
:101460000196A11DB11D209300038093FC0290936F
:10147000FD02A093FE02B093FF028091F8029091CA
:10148000F902A091FA02B091FB020196A11DB11DD3
:101490008093F8029093F902A093FA02B093FB02B2
:1014A000BF91AF919F918F913F912F910F900FBE60
:1014B0000F901F9018958FB7F8942091FC023091EF
:1014C000FD024091FE025091FF028FBFB901CA0197
:1014D00008959B01AC017FB7F8948091F802909138
:1014E000F902A091FA02B091FB0266B5A89B05C073
:1014F0006F3F19F00196A11DB11D7FBFBA2FA92F13
:10150000982F8827860F911DA11DB11D62E0880FBD
:10151000991FAA1FBB1F6A95D1F7BC012DC0FFB749
:10152000F8948091F8029091F902A091FA02B0919A
:10153000FB02E6B5A89B05C0EF3F19F00196A11D7F
:10154000B11DFFBFBA2FA92F982F88278E0F911D8D
:10155000A11DB11DE2E0880F991FAA1FBB1FEA95CC
:10156000D1F7861B970B885E9340C8F2215030401C
:101570004040504068517C4F2115310541055105CF
:1015800071F60895789484B5826084BD84B58160D5
:1015900084BD85B5826085BD85B5816085BDEEE67B
:1015A000F0E0808181608083E1E8F0E0108280815A
:1015B00082608083808181608083E0E8F0E08081C8
:1015C00081608083E1EBF0E0808184608083E0EBE8
:1015D000F0E0808181608083EAE7F0E080818460D0
:1015E000808380818260808380818160808380812C
:1015F000806880831092C1000895982F8E3008F083
:101600009E50977080918C028295880F880F807C05
:10161000892B80937C0080917A00806480937A008B
:1016200080917A0086FDFCCF20917800409179006E
:10163000942F80E030E0282B392BC9010895CF93F7
:10164000DF93482F50E0CA0186569F4FFC0134912A
:101650004A575F4FFA018491882369F190E0880F1F
:10166000991FFC01E859FF4FA591B491FC01EE5878
:10167000FF4FC591D491662351F42FB7F8948C9104
:10168000932F909589238C93888189230BC0623096
:1016900061F42FB7F8948C91932F909589238C93B4
:1016A0008881832B88832FBF06C09FB7F8948C91C5
:1016B000832B8C939FBFDF91CF910895482F50E0EB
:1016C000CA0182559F4FFC012491CA0186569F4F43
:1016D000FC0194914A575F4FFA013491332309F486
:1016E00040C0222351F1233071F0243028F42130FE
:1016F000A1F0223011F514C02630B1F02730C1F02E
:101700002430D9F404C0809180008F7703C0809189
:1017100080008F7D8093800010C084B58F7702C0D9
:1017200084B58F7D84BD09C08091B0008F7703C0E0
:101730008091B0008F7D8093B000E32FF0E0EE0F3A
:10174000FF1FEE58FF4FA591B4912FB7F894662371
:1017500021F48C919095892302C08C91892B8C93D4
:101760002FBF089508951F920F920FB60F92112464
:101770002F933F934F938F939F93EF93FF9380917A
:10178000C00082FD1DC04091C600209141033091F0
:1017900042032F5F3F4F2F7330708091430390912E
:1017A00044032817390771F0E0914103F091420397
:1017B000EF5FFC4F4083309342032093410302C00C
:1017C0008091C600FF91EF919F918F914F913F9132
:1017D0002F910F900FBE0F901F901895E0919503D9
:1017E000F0919603E05CFF4F8191919120813181CE
:1017F000821B930B8F739070892B11F00E94B20B98
:1018000008951F920F920FB60F9211242F933F93BA
:101810008F939F93EF93FF932091850330918603DD
:1018200080918703909188032817390731F48091BC
:10183000C1008F7D8093C10014C0E0918703F091B7
:101840008803EB5BFC4F2081809187039091880394
:1018500001968F73907090938803809387032093F1
:10186000C600FF91EF919F918F913F912F910F9023
:101870000FBE0F901F901895AF92BF92DF92EF921C
:10188000FF920F931F93CF93DF93EC017A018B01AB
:10189000DD24403081EE580780E0680780E078075B
:1018A00011F0DD24D39491E0A92EB12CEC89FD89AF
:1018B000DD2069F0C50108A002C0880F991F0A94B5
:1018C000E2F7808360E079E08DE390E005C010826C
:1018D00060E874E88EE190E0A80197010E94FB198E
:1018E00021503040404050405695479537952795B8
:1018F00080E12030380720F0DD2011F0DD24D6CF44
:10190000E889F9893083EA89FB89208319A2EE8965
:10191000FF89408121E030E0C9010C8C02C0880FB2
:10192000991F0A94E2F7482B4083EE89FF89408192
:10193000C9010D8C02C0880F991F0A94E2F7482B49
:101940004083EE89FF894081C9010E8C02C0880F57
:10195000991F0A94E2F7482B4083EE89FF89808122
:101960000F8C02C0220F331F0A94E2F72095282320
:101970002083DF91CF911F910F91FF90EF90DF9027
:10198000BF90AF900895DC011C96ED91FC911D97DE
:10199000E05CFF4F2191319180819181281B390BAF
:1019A0002F733070C9010895DC011C96ED91FC91F4
:1019B0001D97E05CFF4F20813181E054F040DF0152
:1019C000AE5BBF4F8D919C9111972817390719F481
:1019D0002FEF3FEF07C08D919C91E80FF91F808199
:1019E000282F30E0C9010895DC011C96ED91FC918F
:1019F0001D97E05CFF4F20813181E054F040DF0112
:101A0000AE5BBF4F8D919C9111972817390719F440
:101A10002FEF3FEF10C08D919C911197E80FF91FA8
:101A200020818D919C91119701968F7390701196E2
:101A30009C938E9330E0C9010895DC0191968C91BE
:101A40009197882339F05496ED91FC9155978081B8
:101A500086FFF9CF91961C920895CF93DF93EC0106
:101A6000EE85FF85E05CFF4F20813181E054F0403E
:101A70002F5F3F4F2F733070DF01AE5BBF4F8D91F3
:101A80009C91119728173907D1F3E05CFF4F8081B3
:101A90009181E054F040E80FF91F6083EE85FF85E7
:101AA000E05CFF4F31832083EE89FF89208181E054
:101AB00090E00F8C02C0880F991F0A94E2F7282B40
:101AC000208381E089A3EC89FD8980818064808303
:101AD00081E090E0DF91CF91089510928C031092F5
:101AE0008B0388EE93E0A0E0B0E080938D039093A9
:101AF0008E03A0938F03B09390038FE992E09093AD
:101B00008A038093890381E093E090939603809306
:101B1000950385E493E0909398038093970385EC75
:101B200090E090939A038093990384EC90E09093D3
:101B30009C0380939B0380EC90E090939E038093A2
:101B40009D0381EC90E09093A00380939F0382EC2F
:101B500090E09093A2038093A10386EC90E0909391
:101B6000A4038093A30384E08093A50383E0809380
:101B7000A60387E08093A70385E08093A80381E014
:101B80008093A9030895CF92DF92EF92FF920F9373
:101B90001F93CF93DF937C016B018A01C0E0D0E0FB
:101BA0000FC0D6016D916D01D701ED91FC910190AF
:101BB000F081E02DC7010995C80FD91F01501040D1
:101BC0000115110571F7CE01DF91CF911F910F9192
:101BD000FF90EF90DF90CF900895DC01ED91FC91A4
:101BE0000190F081E02D09950895EF92FF920F93F7
:101BF0001F938C01DC01ED91FC910190F081E02DAF
:101C00006DE009957C01D801ED91FC910190F08186
:101C1000E02DC8016AE009959C012E0D3F1DC90108
:101C20001F910F91FF90EF900895CF93DF93EC01F8
:101C30006115710519F420E030E00FC0DB010D9053
:101C40000020E9F71197A61BB70BE881F981028004
:101C5000F381E02DAD0109959C01C901DF91CF9180
:101C600008954F925F927F928F929F92AF92BF9210
:101C7000CF92DF92EF92FF920F931F93DF93CF9358
:101C8000CDB7DEB7A1970FB6F894DEBF0FBECDBFBC
:101C90002C01742ECB01223008F42AE019A231E283
:101CA000C32ED12CCC0EDD1E822E9924AA24BB2457
:101CB000672D752FA50194010E94FB1979018A01F6
:101CC000C801B701A50194010E94D019472D461BF8
:101CD0000894C108D1084A3014F4405D01C0495C41
:101CE000F6014083E114F1040105110521F07E2C79
:101CF0005F2DC801DDCFC201B6010E94150EA1966D
:101D00000FB6F894DEBF0FBECDBFCF91DF911F910C
:101D10000F91FF90EF90DF90CF90BF90AF909F908A
:101D20008F907F905F904F900895DC0121153105D1
:101D300041F4ED91FC910190F081E02D642F099523
:101D400008950E94310E0895EF92FF920F931F9312
:101D50009A017B0100E010E0B801A7010E94950EF6
:101D60001F910F91FF90EF900895EF92FF920F93C4
:101D70001F939A01E62EFF2400E010E0B801A701AE
:101D80000E94950E1F910F91FF90EF900895CF92B2
:101D9000DF92EF92FF920F931F936C01E62E9A0150
:101DA000FF2400E010E0B801A7010E94950E8C010D
:101DB000C6010E94F50D080F191FC8011F910F9150
:101DC000FF90EF90DF90CF900895CF92DF92EF9247
:101DD000FF920F931F93CF93DF93EC016A017B0176
:101DE0002115310541F4E881F9810190F081E02D60
:101DF000642F09951FC02A303105D1F477FF17C031
:101E0000E881F9810190F081E02D6DE209958C0166
:101E100044275527BA014C195D096E097F09CE0187
:101E20002AE00E94310E9801280F391F04C02AE0D1
:101E30000E94310E9C01C901DF91CF911F910F913A
:101E4000FF90EF90DF90CF900895EF92FF920F9365
:101E50001F937B019A010027F7FC0095102FB80112
:101E6000A7010E94E50E1F910F91FF90EF9008953A
:101E7000CF92DF92EF92FF920F931F936C017B0141
:101E80009A010027F7FC0095102FB801A7010E94C6
:101E9000E50E8C01C6010E94F50D080F191FC8013F
:101EA0001F910F91FF90EF90DF90CF9008950E94C7
:101EB000150E08957F928F929F92AF92BF92CF920C
:101EC000DF92EF92FF920F931F93CF93DF934C011A
:101ED0007A018B01722ECB01BA01A80197010E94F1
:101EE000CC19882321F0C40162E572E021C0C0E072
:101EF000D0E057016801E894D7F8C601B5012FEF8B
:101F00003FEF4FE75FE70E94CC19882351F4C601E9
:101F1000B5012FEF3FEF4FE75FE70E941618181645
:101F200014F0C1E0D0E0219739F0C40166E572E019
:101F30000E94150EEC0193C0C801B7012FEF3FEFCF
:101F40004FE75FE40E946519181654F0C801B70105
:101F50002FEF3FEF4FE75FEC0E941618882324F421
:101F6000C4016AE572E0E4CFC801B70120E030E0C7
:101F700040E050E00E94161887FD03C0C0E0D0E0AA
:101F80000EC0D401ED91FC910190F081E02DC401CF
:101F90006DE20995EC0117FB109517F9109520E0FB
:101FA00030E040E05FE3DD240BC0CA01B90120E06E
:101FB00030E040E251E40E941A189B01AC01D39436
:101FC000D71498F3C801B7010E94B2175B016C01E6
:101FD0000E9487187B018C01C401B801A7012AE087
:101FE00030E00E94950EC80FD91F772039F0C40148
:101FF0006EE572E00E94150EC80FD91FC801B70127
:102000000E94B3189B01AC01C601B5010E94B11733
:1020100024C020E030E040E251E40E9469197B01D5
:102020008C010E9482185B016C01CC24B7FCC09427
:10203000DC2CC401B601A5012AE030E00E94E50EC7
:10204000C80FD91FC601B5010E94B5189B01AC018C
:10205000C801B7010E94B1177A947720D1F6CE015A
:10206000DF91CF911F910F91FF90EF90DF90CF9074
:10207000BF90AF909F908F907F9008950E945A0FCD
:102080000895EF92FF920F931F937C010E945A0FC5
:102090008C01C7010E94F50D080F191FC8011F917F
:1020A0000F91FF90EF900895EF92FF920F931F937F
:1020B0007C010E94150E8C01C7010E94F50D080FCE
:1020C000191FC8011F910F91FF90EF900895AF92D3
:1020D000BF92CF92DF92EF92FF920F931F93CF9315
:1020E000DF935C016B01EE24FF24C0E0D0E010C060
:1020F000D501ED91FC9100811181C601BE010E94C4
:10210000FF10682FC501F8010995E80EF91E219608
:10211000F60184819581C817D90750F3C701DF9173
:10212000CF911F910F91FF90EF90DF90CF90BF90D4
:10213000AF900895EF92FF920F931F937C010E943E
:1021400067108C01C7010E94F50D9C01200F311F03
:10215000C9011F910F91FF90EF9008952F923F9228
:102160004F925F926F927F928F929F92AF92BF92A7
:10217000CF92DF92EF92FF920F931F93DF93CF9353
:10218000CDB7DEB73B014C0119012A016D897E896B
:102190008F89988D6A197B098C099D09621A730AC7
:1021A000840A950AA40193010E94D019E218F30849
:1021B00004091509A80197010E941D1A2A0D3B1D4B
:1021C0004C1D5D1DB901CA01CF91DF911F910F9187
:1021D000FF90EF90DF90CF90BF90AF909F908F9047
:1021E0007F906F905F904F903F902F900895009751
:1021F00029F0BC0180E090E00E94EF010895FC010D
:10220000848195816817790748F40190F081E02D69
:10221000309721F0E60FF71F8081089580E0089540
:10222000DC01FB0114968D919C911597892B31F45B
:1022300061157105A9F090E0808108C00D90BC91F6
:10224000A02D6115710529F490E08C91882349F443
:1022500007C0CD010E94D9029C0190E0232B09F414
:1022600091E0892F08950F931F93CF93DF93EC0193
:102270008B016F5F7F4F888199810E94F8010097E1
:1022800011F480E005C0998388831B830A8381E071
:10229000DF91CF911F910F910895CF93DF93EC01C0
:1022A00088819981892B29F08A819B8186179707DC
:1022B00060F4CE010E943311882341F08C819D810E
:1022C000892B19F4E881F981108281E0DF91CF91A7
:1022D0000895CF93DF93EC0188819981009711F0E5
:1022E0000E943F01198218821D821C821B821A8261
:1022F000DF91CF910895EF92FF920F931F93CF93A9
:10230000DF93EC017B018A01BA010E944D11882301
:1023100021F4CE010E94691107C01D830C838881BE
:102320009981B7010E94E202CE01DF91CF911F9106
:102330000F91FF90EF900895CF93DF93EC011982F6
:1023400018821B821A821D821C821E8261157105F1
:1023500051F0DB010D900020E9F71197A61BB70B98
:10236000AD010E947B11DF91CF9108950F931F93D0
:10237000182F092F6115710559F0DB010D90002010
:10238000E9F71197A61BB70BAD010E947B1102C0A4
:102390000E946911812F902F1F910F910895CF9363
:1023A000DF93EC01FB018617970761F06081718173
:1023B0006115710529F0448155810E947B1102C08D
:1023C0000E946911CE01DF91CF910895FC018081B7
:1023D00091810E943F0108950E943F01089581E08C
:1023E0008093F0036093CD031092EE031092EF03FD
:1023F000089581E08093F0036093CD031092EE0383
:102400001092EF0308952091CC0330E08091CB032C
:10241000281B3109C90108954091CB038091CC0359
:10242000481718F02FEF3FEF0AC0E42FF0E0E55512
:10243000FC4F8081282F30E04F5F4093CB03C901D0
:102440000895E091CB038091CC03E81718F0EFEFEB
:10245000FFEF06C0F0E0E555FC4F8081E82FF0E08B
:10246000CF01089508951092F4031092F30388EEBB
:1024700093E0A0E0B0E08093F5039093F603A0937F
:10248000F703B093F8038FEA92E09093F2038093FE
:10249000F1030895CF92DF92EF92FF920F931F9373
:1024A000CF93DF937C016B018A018091F003882335
:1024B000A1F0C0E0D0E00DC0D701ED91FC91D601B4
:1024C000AC0FBD1F0190F081E02DC7016C91099503
:1024D0002196C017D10780F304C0CB01642F0E945E
:1024E000E715C801DF91CF911F910F91FF90EF90F9
:1024F000DF90CF900895DF93CF930F92CDB7DEB7E3
:10250000FC0169838091F0038823C9F08091EF0377
:10251000803238F081E090E09383828320E030E0E5
:1025200015C08091EE03E82FF0E0E253FC4F998153
:1025300090838F5F8093EE038093EF0305C0CE01FD
:10254000019661E00E94E71521E030E0C9010F909B
:10255000CF91DF9108950F93062F8091CD036EECFC
:1025600073E04091EF0321E00E9492151092EE0378
:102570001092EF031092F0030F91089561E00E9412
:10258000AB120895413208F040E2862F6BEA73E007
:102590000E9449151092CB038093CC03089521E04B
:1025A0000E94C212089521E00E94C2120895109262
:1025B000CB031092CC031092EE031092EF030E9413
:1025C00093170895DC0187E0A03DB80710F0A05DE7
:1025D000B74050E022EC30E091E007C0F90184916F
:1025E000480F511D9F5F2F5F3F4F9617B8F3633021
:1025F00038F0CD0183709070892B11F44F5F5F4FDD
:102600008DE691E0A89F9001A99F300DB89F300DF5
:102610001124215030401396B695A795B695A795ED
:102620002A0F3B1F240F351FC9010895CF93DF9355
:10263000DC01FB01EB012996818580538A3008F08B
:1026400080E0298120533AE0839FC0011124280FA4
:102650002C9380818A34A9F08B343CF48434C1F10A
:102660008634F1F08134C1F51DC08E3479F18F3498
:102670001CF48D3489F51DC08F3421F1833561F54B
:102680001FC08181813611F481E023C082818E36A2
:1026900011F087E001C086E011968C93119719C064
:1026A00082E017C08281823711F088E012C084E096
:1026B00010C08281823711F085E00BC083E009C031
:1026C00089E007C011963C93119706C08BE001C0CA
:1026D0008CE011968C931197EF01249664816053DE
:1026E0006A3008F060E0298120538AE0689FC001C9
:1026F0001124280F12962C931297EA019881905377
:102700009A3008F090E0FA01218120538AE0989FE6
:10271000C0011124280F13962C9313973396EA01C6
:102720009B8190539A3008F090E0218120538AE0F9
:10273000989FC0011124280F14962C931497FA0126
:102740003696EA014E8140534A3008F040E021813C
:1027500020538AE0489FC0011124280F15962C931E
:10276000DF91CF9108950F931F938C01FC0180811D
:1027700090E0618142810E94E212A0E0B0E0BC01E1
:10278000CD0128E130E040E050E00E94D019F8018E
:102790002381620F711D811D911D2CE330E040E00B
:1027A00050E00E94D019F8012481620F711D811D33
:1027B000911D2CE330E040E050E00E94D0199B01D5
:1027C000AC01F8018581280F311D411D511D205894
:1027D0003C4B4249574CB901CA011F910F910895D2
:1027E00081E00895BF92CF92DF92EF92FF920F9314
:1027F0001F93DF93CF9300D000D000D0CDB7DEB7CA
:1028000001EF13E0C80168E670E00E94F911C80109
:1028100060E00E947B12C8010E94BE12C80168E6F7
:1028200070E047E050E00E94CF12C8010E940C12F5
:102830009FE7B92EB822C8010E940C12C82EC80109
:102840000E940C12D82EC8010E940C12C8010E94CE
:102850000C12E82EC8010E940C12F82EC8010E942A
:102860000C12282F30E0B4E035952795BA95E1F7A2
:102870004AEF5FEFB901649F9001659F300D749F2F
:10288000300D1124820F90E02B2D30E0A4E035951F
:102890002795AA95E1F7B901649F9001659F300DD6
:1028A000749F300D1124B20E2C2D30E0F4E03595DC
:1028B0002795FA95E1F7B901649F9001659F300D66
:1028C000749F300D1124C20E2D2D30E0E4E03595BB
:1028D0002795EA95E1F7B901649F9001659F300D56
:1028E000749F300D1124D20E2E2D30E074E03595FA
:1028F00027957A95E1F7B901649F9001659F300DA6
:10290000749F300D1124E20E2F2D30E064E03595D8
:1029100027956A95E1F7B901649F9001659F300D95
:10292000749F300D1124F20E282F3F2D4E2D5D2D5A
:102930006C2D7B2D80E026960FB6F894DEBF0FBE7F
:10294000CDBFCF91DF911F910F91FF90EF90DF905E
:10295000CF90BF90089581EF93E068E670E00E9409
:10296000F91181EF93E060E00E947B1281EF93E028
:102970000E94BE1281EF93E068E670E041E050E013
:102980000E94CF1281EF93E00E940C1220E090E0B1
:10299000880F892F881F990B892B09F421E0822F3A
:1029A0000895DF92EF92FF920F931F937C0101EF46
:1029B00013E0C80168E670E00E94F911C80160E008
:1029C0000E947B12F7012581822F6AE00E94EF1995
:1029D00046E0D42E8D9DC0011124280FC801622F1E
:1029E0000E947B12F7012481822F6AE00E94EF1976
:1029F0008D9DC0011124280FC801622F0E947B12F7
:102A0000F7012381822F6AE00E94EF198D9DC0019A
:102A10001124280FC801622F0E947B12C80160E0B8
:102A20000E947B12F7012281822F6AE00E94EF1937
:102A30008D9DC0011124280FC801622F0E947B12B6
:102A4000F7012181822F6AE00E94EF198D9DC0015C
:102A50001124280FC801622F0E947B12F7012081E8
:102A6000822F6AE00E94EF198D9DC0011124280F6A
:102A7000C801622F0E947B12C80160E00E947B1295
:102A8000C8010E94BE121F910F91FF90EF90DF903E
:102A90000895382F413210F040E042C08091FD038C
:102AA0008823E1F791E09093FD032093FF038FEFDC
:102AB00080936A04109225044150409326044F5F8E
:102AC0009093FE038091FE03330F832B8093FE03CC
:102AD00080910004813041F4109200048091FE0343
:102AE0008093BB0085EC01C085EE8093BC00809193
:102AF000FD038130E1F380912504841710F44091A7
:102B0000250420E030E00AC0FB01E20FF31FD901E9
:102B1000AB5FBB4F8C9180832F5F3F4F2417A0F397
:102B2000842F08950F931F93582F122F413210F0C6
:102B300081E04AC08091FD038823E1F782E0809321
:102B4000FD030093FF038FEF80936A041092250426
:102B500040932604A5E0B4E0FB0102C081918D936F
:102B60008E2F861B8417D0F31092FE038091FE03F4
:102B7000550F852B8093FE0380910004813041F432
:102B8000109200048091FE038093BB0085EC01C08D
:102B900085EE8093BC00112321F08091FD038230EB
:102BA000E1F380916A048F3F11F480E00DC08091C1
:102BB0006A04803211F482E007C080916A04803395
:102BC00011F084E001C083E01F910F910895482F18
:102BD000613210F081E008958091FD03843011F09E
:102BE00082E0089560934804A7E2B4E0842F9C013A
:102BF000F90102C081918D938E2F841B8617D0F32B
:102C000080E008951F920F920FB60F9211242F9318
:102C10003F934F935F936F937F938F939F93AF9364
:102C2000BF93EF93FF938091B90090E0887F9070FD
:102C30008036910509F4F2C081369105CCF58832D1
:102C4000910509F47BC089329105B4F48031910576
:102C500009F46FC0813191053CF4009709F447C134
:102C6000089709F04FC165C08831910509F466C025
:102C7000809709F047C182C08034910509F4A4C04F
:102C80008134910544F48033910509F482C0C897DA
:102C900009F038C189C08035910509F489C08835AB
:102CA000910509F496C08834910509F02BC1AEC096
:102CB0008839910509F413C189399105ECF48837F5
:102CC000910509F4ABC0893791054CF4883691051C
:102CD00009F4A4C08037910509F014C19FC0883859
:102CE000910509F4FCC08039910509F49DC0803834
:102CF000910509F007C198C0803B910509F4C6C051
:102D0000813B91054CF4803A910509F49FC0883AC3
:102D1000910509F0F7C0BAC0803C910509F4E3C001
:102D2000883C910509F4DFC0883B910509F0EAC0B1
:102D3000C2C08091FE038093BB00CFC09091250458
:102D400080912604981768F490912504E92FF0E00B
:102D5000EB5FFB4F80818093BB009F5F90932504C6
:102D6000BCC08091FF03882309F44BC085ED80939C
:102D7000BC008091BC0084FDFCCFC2C080E2809387
:102D80006A0485ED8093BC008091BC0084FDFCCF7B
:102D9000B7C080E380936A0485ED8093BC00809186
:102DA000BC0084FDFCCFACC088E380936A049BC068
:102DB000809125049091BB00E82FF0E0EB5FFB4F82
:102DC00090838F5F80932504909125048091260441
:102DD00082C0809125049091BB00E82FF0E0EB5F6A
:102DE000FB4F90838F5F809325048091FF0388239E
:102DF00041F085ED8093BC008091BC0084FDFCCF48
:102E00007FC081E08093000484EA6EC085ED8093EA
:102E1000BC008091BC0084FDFCCF72C083E0809335
:102E2000FD031092690459C080916904803208F052
:102E300056C0809169049091BB00E82FF0E0E75BF9
:102E4000FB4F90838F5F8093690447C08091690432
:102E5000803230F4E0916904F0E0E75BFB4F1082D0
:102E600085ED8093BC008091BC0084FDFCCF109266
:102E7000FD0360916904E0910304F091040489E486
:102E800094E070E00995109269042DC084E080936D
:102E9000FD031092470410924804E0910104F09160
:102EA0000204099580914804882329F481E08093E5
:102EB00048041092270490914704E92FF0E0E95D5F
:102EC000FB4F80818093BB009F5F9093470490915C
:102ED000470480914804981710F485EC01C085E8F8
:102EE0008093BC000FC085EC8093BC0009C0109299
:102EF0006A0485ED8093BC008091BC0084FDFCCF0A
:102F00001092FD03FF91EF91BF91AF919F918F912F
:102F10007F916F915F914F913F912F910F900FBED5
:102F20000F901F9018951092FD0381E08093FF038E
:102F30001092000482E161E00E945E0B83E161E097
:102F40000E945E0BE9EBF0E080818E7F80838081C0
:102F50008D7F808388E48093B80085E48093BC00F3
:102F600008955058BB27AA270ED075C166D130F0FE
:102F70006BD120F031F49F3F11F41EF45BC10EF4CD
:102F8000E095E7FB51C1E92F77D180F3BA176207CB
:102F900073078407950718F071F49EF58FC10EF43E
:102FA000E0950B2EBA2FA02D0B01B90190010C0159
:102FB000CA01A0011124FF27591B99F0593F50F471
:102FC000503E68F11A16F040A22F232F342F4427C9
:102FD000585FF3CF469537952795A795F0405395C1
:102FE000C9F77EF41F16BA0B620B730B840BBAF091
:102FF0009150A1F0FF0FBB1F661F771F881FC2F7FC
:103000000EC0BA0F621F731F841F48F4879577950F
:103010006795B795F7959E3F08F0B3CF9395880FC6
:1030200008F09927EE0F979587950895D9D008F461
:1030300081E008950CD00FC107D140F0FED030F0F0
:1030400021F45F3F19F0F0C0511139C1F3C014D120
:1030500098F39923C9F35523B1F3951B550BBB275F
:10306000AA2762177307840738F09F5F5F4F220F0C
:10307000331F441FAA1FA9F333D00E2E3AF0E0E805
:1030800030D091505040E695001CCAF729D0FE2F51
:1030900027D0660F771F881FBB1F261737074807E3
:1030A000AB07B0E809F0BB0B802DBF01FF27935899
:1030B0005F4F2AF09E3F510568F0B6C000C15F3FE8
:1030C000ECF3983EDCF3869577956795B795F79581
:1030D0009F5FC9F7880F911D9695879597F9089579
:1030E000E1E0660F771F881FBB1F62177307840715
:1030F000BA0720F0621B730B840BBA0BEE1F88F724
:10310000E095089504D06894B111D9C00895BCD059
:1031100088F09F5790F0B92F9927B751A0F0D1F0C0
:10312000660F771F881F991F1AF0BA95C9F712C04A
:10313000B13081F0C3D0B1E00895C0C0672F782FBF
:103140008827B85F39F0B93FCCF3869577956795B6
:10315000B395D9F73EF490958095709561957F4F22
:103160008F4F9F4F0895E89409C097FB3EF49095C8
:103170008095709561957F4F8F4F9F4F9923A9F050
:10318000F92F96E9BB279395F695879577956795DF
:10319000B795F111F8CFFAF4BB0F11F460FF1BC023
:1031A0006F5F7F4F8F4F9F4F16C0882311F096E9B6
:1031B00011C0772321F09EE8872F762F05C0662364
:1031C00071F096E8862F70E060E02AF09A95660F1D
:1031D000771F881FDAF7880F9695879597F90895D6
:1031E000990F0008550FAA0BE0E8FEEF1616170618
:1031F000E807F907C0F012161306E407F50798F080
:10320000621B730B840B950B39F40A2661F0232B98
:10321000242B252B21F408950A2609F4A140A69514
:103220008FEF811D811D089597F99F6780E870E0F9
:1032300060E008959FEF80EC089500240A9416162C
:10324000170618060906089500240A941216130694
:10325000140605060895092E0394000C11F4882322
:1032600052F0BB0F40F4BF2B11F460FF04C06F5F3E
:103270007F4F8F4F9F4F089557FD9058440F551F14
:1032800059F05F3F71F04795880F97FB991F61F0E8
:103290009F3F79F087950895121613061406551F5F
:1032A000F2CF4695F1DF08C0161617061806991FCB
:1032B000F1CF86957105610508940895E894BB27C0
:1032C00066277727CB0197F908958ADF08F48FEFF7
:1032D00008950BD0C0CFB1DF28F0B6DF18F09523EA
:1032E00009F0A2CFA7CF1124EACFC6DFA0F3959FA4
:1032F000D1F3950F50E0551F629FF001729FBB27DD
:10330000F00DB11D639FAA27F00DB11DAA1F649F88
:103310006627B00DA11D661F829F2227B00DA11D3B
:10332000621F739FB00DA11D621F839FA00D611DC1
:10333000221F749F3327A00D611D231F849F600DE2
:10334000211D822F762F6A2F11249F5750408AF01B
:10335000E1F088234AF0EE0FFF1FBB1F661F771FA7
:10336000881F91505040A9F79E3F510570F05CCFE7
:10337000A6CF5F3FECF3983EDCF386957795679593
:10338000B795F795E7959F5FC1F7FE2B880F911DC5
:103390009695879597F9089523DF880B990B0895E3
:1033A000629FD001739FF001829FE00DF11D649F29
:1033B000E00DF11D929FF00D839FF00D749FF00DB5
:1033C000659FF00D9927729FB00DE11DF91F639F56
:1033D000B00DE11DF91FBD01CF0111240895991B06
:1033E00079E004C0991F961708F0961B881F7A95FC
:1033F000C9F780950895A1E21A2EAA1BBB1BFD01F7
:103400000DC0AA1FBB1FEE1FFF1FA217B307E407C3
:10341000F50720F0A21BB30BE40BF50B661F771F1B
:10342000881F991F1A9469F76095709580959095FB
:103430009B01AC01BD01CF01089597FB092E052624
:103440000ED057FD04D0D7DF0AD0001C38F45095B9
:103450004095309521953F4F4F4F5F4F0895F6F7B8
:1034600090958095709561957F4F8F4F9F4F0895F0
:103470002F923F924F925F926F927F928F929F9284
:10348000AF92BF92CF92DF92EF92FF920F931F9372
:10349000CF93DF93CDB7DEB7CA1BDB0B0FB6F89423
:1034A000DEBF0FBECDBF09942A88398848885F8463
:1034B0006E847D848C849B84AA84B984C884DF80D4
:1034C000EE80FD800C811B81AA81B981CE0FD11DB8
:1034D0000FB6F894DEBF0FBECDBFED010895EE0F1D
:1034E000FF1F0590F491E02D099410E0C4EDD0E0A9
:1034F00004C0FE010E94711A2296C63DD107C9F789
:04350000F894FFCF6D
:103504000073746F70002E2E2E00717565727969C8
:103514006E6720006163747561746F7200616C6C16
:10352400006163747561746F72202D2D20636D6466
:103534003A200009093A3A0963757272656E74207B
:10354400706F736974696F6E3A0900736F6C656E9E
:103554006F69647300736F6C656E6F696473202D9B
:103564002D2000207C2000636C6F636B00636C6F04
:10357400636B202D2D20006C6967687400616D6F8A
:10358400756E74206F66206C69676874202D2D2019
:10359400006869680048756D6964697479202D2D27
:1035A4002000205248202800290054656D7065725F
:1035B4006174757265202D2D20002043202800524F
:1035C4005443206973204E4F542072756E6E696E99
:1035D4006721002D2D20736574757020636F6D70E5
:1035E4006C657465202D2D00696E7075743A200029
:1035F40009206C65747465723A2000757000646FFC
:10360400776E0062756D7075700062756D70646FB1
:10361400776E0073657474696E672074696D6520D4
:10362400746F200041756720323720323031330007
:10363400202D2D200031313A30343A34300021210C
:10364400206C696D6974207265616368656420210A
:1036540021006E616E00696E66006F7666002E0052
:1036640020006F040000010000000A000D000800A3
:1036740009000B000C00030004000500060007000D
:103684000E000F00100032004B00F4010100000096
:1036940000E902EF020803F8029906000000002D79
:1036A4000DC30DC30CF40CD40C1D0D000000007BE5
:0C36B400124A1203120C122112321200F2
:00000001FF
