:100000000C9465000C948D000C948D000C948D0064
:100010000C948D000C948D000C948D000C948D002C
:100020000C948D000C948D000C948D000C948D001C
:100030000C948D000C948D000C948D000C948D000C
:100040000C94F0080C948D000C94900A0C94DE0A29
:100050000C948D000C948D000C948D000C948D00EC
:100060000C9466140C948D000000000024002700FE
:100070002A0000000000250028002B0000000000DE
:1000800023002600290004040404040404040202DA
:100090000202020203030303030301020408102007
:1000A0004080010204081020010204081020000012
:1000B0000007000201000003040600000000000029
:1000C000000001034A0C0811FA0211241FBECFEFF1
:1000D000D8E0DEBFCDBF12E0A0E0B1E0ECECF1E390
:1000E00002C005900D92A038B107D9F714E0A0E83E
:1000F000B2E001C01D92A933B107E1F710E0C8ECEE
:10010000D0E004C02297FE010E94D518C23CD1075E
:10011000C9F70E94E1080C9466020C940000CF938A
:10012000DF93BC018230910510F462E070E0A09191
:100130003704B0913804ED01E0E0F0E040E050E039
:1001400021C0888199818617970769F48A819B81EC
:10015000309719F09383828304C09093380480937E
:100160003704FE0134C06817790738F4411551058A
:1001700019F08417950708F4AC01FE018A819B8170
:100180009C01E9012097E9F641155105A9F1CA0141
:10019000861B970B049708F4BA01E0E0F0E02AC050
:1001A0008D919C91119784179507F9F46417750741
:1001B00081F412968D919C911397309719F0938347
:1001C000828304C09093380480933704FD013296F3
:1001D0004CC0CA01861B970BFD01E80FF91F619304
:1001E000719302978D939C9340C0FD01828193810E
:1001F0009C01D9011097A1F68091350490913604A5
:10020000892B41F480913002909131029093360411
:1002100080933504409132025091330241155105CB
:1002200041F44DB75EB780912E0290912F02481B8A
:10023000590B2091350430913604CA01821B930B6F
:100240008617970780F0AB014E5F5F4F84179507C5
:1002500050F0420F531F5093360440933504F90178
:100260006193719302C0E0E0F0E0CF01DF91CF91A4
:100270000895CF93DF93009709F450C0EC012297C3
:100280001B821A82A0913704B0913804109709F1AB
:1002900040E050E0AC17BD0708F1BB83AA83FE0124
:1002A00021913191E20FF31FAE17BF0779F48D91C1
:1002B0009C911197280F391F2E5F3F4F3983288358
:1002C00012968D919C9113979B838A8341155105BA
:1002D00071F4D0933804C093370420C012968D91E6
:1002E0009C911397AD01009711F0DC01D3CFFA0177
:1002F000D383C28321913191E20FF31FCE17DF0721
:1003000069F488819981280F391F2E5F3F4FFA01C8
:10031000318320838A819B8193838283DF91CF9174
:100320000895A0E0B0E0E7E9F1E00C949E186C01BC
:10033000009729F4CB010E948F006C01C1C08EEFA1
:10034000882E8FEF982E8C0C9D1C8601060F171F90
:100350000815190508F4B2C0F401A081B181A617EF
:10036000B707B8F0A530B10508F4AAC0CD010497CD
:100370008617970708F4A4C01297A61BB70BF801BD
:10038000A193B193D4016D937C93CF010E94390165
:1003900097C07B01EA1AFB0AEEEFFFEFEE0EFF1E9D
:1003A00036016A0E7B1EC0913704D0913804442474
:1003B0005524AA24BB244AC0C615D705E1F54881B7
:1003C00059814E155F05B8F1CA0104978E159F0536
:1003D000B0F41296A40FB51FF401B183A0832A8153
:1003E0003B814114510431F0D20113963C932E937A
:1003F000129766C0309338042093370461C08A8115
:100400009B81F80193838283425050404E195F09CB
:10041000518340834114510431F0D20113961C934F
:100420000E93129704C01093380400933704F4011C
:100430007183608345C088819981A816B90608F444
:100440005C012E018A819B819C01E901209709F0C2
:10045000B3CF809135049091360486159705E9F461
:10046000A616B706D0F4209132023091330221153E
:10047000310541F42DB73EB780912E0290912F02A5
:10048000281B390B02171307C8F410933604009386
:100490003504D4016D937C9313C0CB010E948F006F
:1004A000EC01009759F0F40140815181B6010E949E
:1004B0006902C6010E9439016E0102C0CC24DD240C
:1004C000C601CDB7DEB7E0E10C94BA18F8940C94ED
:1004D000D918FB01DC0102C001900D92415050403F
:1004E000D8F70895FB01DC018D910190801901106E
:1004F000D9F3990B0895FB01DC0101900D920020C6
:10050000E1F70895FC0185E592E0918380830895E9
:10051000FC0185E592E091838083CF010E94C110A8
:100520000895CF93DF93EC018B818F3F19F060E04A
:100530000E943B0A8C8180778C8380E0DF91CF9191
:100540000895CF93DF93EC018B818F3F19F061E029
:100550000E943B0A8C818068807F8C8380E0DF91E1
:10056000CF910895CF93DF93EC0185E592E09983D5
:1005700088836A834B831C821E821D8218861F8299
:100580004F3F41F0842F60E00E943B0A8B8161E085
:100590000E94FC09DF91CF91089581309105B1F45B
:1005A0006F5F7F4F31F581E892E067E242E00E94A1
:1005B000B2028AEA92E060E071E00E94711081EB81
:1005C00092E061E071E00E9471100895892B89F436
:1005D0006F5F7F4F71F481EB92E00E94BB108AEA5B
:1005E00092E00E94BB1085E592E090938202809396
:1005F0008102089580E090E06FEF7FEF0E94CD02CE
:10060000089581E090E06FEF7FEF0E94CD020895A2
:10061000AF92BF92CF92DF92EF92FF920F931F9310
:10062000809148020E94DA0900D000D0AA2797FDE5
:10063000A095BA2F2FEF30E040E050E0EDB7FEB7C5
:100640002183328343835483BC01CD0129E130E00F
:1006500040E050E0EAECEE2EE3E0FE2E012D112DFD
:10066000AA24BB2465010E948B0F0F900F900F905E
:100670000F906F3F710519F014F06FEF70E077FF86
:1006800002C060E070E0CB011F910F91FF90EF90EE
:10069000DF90CF90BF90AF9008950F931F93CF93AB
:1006A000DF93EC018C8187FD05C0807F83608C83A4
:1006B00083E088C08BEB93E06A810E94C4108BEBCF
:1006C00093E00E949311082F10E00115110509F025
:1006D00067C06AE070E080E090E00E9446098BEB22
:1006E00093E06A8144E00E94A8118BEB93E00E94A2
:1006F000D810892B09F44EC08BEB93E00E94E110D7
:10070000182F8BEB93E00E94E110282F812F90E0AF
:10071000AC01B6E055954795BA95E1F7413059F1EE
:10072000413018F04230A9F62BC08F739070982F8B
:10073000882730E0822B932B9E838D838BEB93E075
:100740000E94E110182F8BEB93E00E94E110312FF3
:1007500020E090E0282B392B369527953695279564
:1007600038872F838BEB93E00E9493118C81807FDD
:100770008C8380E027C08BEB93E00E949311A9CF7C
:100780008BEB93E00E9493118C81807F84608C833B
:1007900084E018C08C81807F82608C8382E012C0EC
:1007A00083E593E066E071E00E94340E83E593E018
:1007B000B8014AE050E00E94150E8C81807F816074
:1007C0008C8381E0DF91CF911F910F910895CF929B
:1007D000DF92EF92FF920F931F93DF93CF93CDB7EA
:1007E000DEB72C970FB6F894DEBF0FBECDBF6C01FD
:1007F00083E593E06AE071E00E94340E83E593E0C4
:10080000B6010E94770FC60164E171E00E94E50F16
:10081000882339F4C6016DE171E00E94E50F882359
:10082000E1F083E593E061E271E00E94340E83E53C
:1008300093E061EB72E00E94440F83E593E063E391
:1008400071E00E94340E60918A0270918B0283E500
:1008500093E04AE050E00E94150EC6016BE471E09F
:100860000E94E50F882339F4C6016DE171E00E9412
:10087000E50F882359F183E593E065E571E00E9477
:10088000340E18EBE12E12E0F12E00E010E0F7013B
:100890006081718183E593E04AE050E00E94020E9E
:1008A0000430110531F083E593E063E671E00E94C6
:1008B000340E0F5F1F4F82E090E0E80EF91E053006
:1008C000110529F783E593E00E94D20CC60167E683
:1008D00071E00E94E50F882341F4C6016DE171E0EB
:1008E0000E94E50F882309F461C083E593E06DE67B
:1008F00071E00E94340E0E9456122F833887498778
:100900005A876B877C87DE011196FE01379686E059
:1009100001900D928150E1F7698170E06053784F4A
:1009200083E593E04AE050E00E94810D83E593E087
:100930006FE20E94CA0C83E593E06A814AE050E0CE
:100940000E94920D83E593E06FE20E94CA0C83E55A
:1009500093E06B814AE050E00E94920D83E593E0C2
:1009600060E20E94CA0C83E593E06C814AE050E0AB
:100970000E94920D83E593E06AE30E94CA0C83E52E
:1009800093E06D814AE050E00E94920D83E593E090
:100990006AE30E94CA0C83E593E06E814AE050E06E
:1009A0000E94920D83E593E00E94D20CC60167E796
:1009B00071E00E94E50F882341F4C6016DE171E00A
:1009C0000E94E50F882309F478C081E892E00E9434
:1009D000A10281E892E00E944D0383E593E06BE77A
:1009E00071E00E94340E609186027091870280E06F
:1009F00090E00E94171720E038EF4FE756E40E947E
:100A00007E16AB01BC0183E593E025E030E00E9457
:100A10001B0F83E593E066E871E00E94340E60915D
:100A200086027091870283E593E04AE050E00E94DD
:100A3000810D83E593E06CE871E00E94310F83E55E
:100A400093E06EE871E00E94340E6091880270912C
:100A5000890280E090E00E94171720E038EF4FE70E
:100A600056E40E947E1620E030E045E253E40E9406
:100A7000CD1720E030E040E252E40E941516AB01B1
:100A8000BC0183E593E025E030E00E941B0F83E585
:100A900093E06CE971E00E94340E609188027091DD
:100AA000890283E593E04AE050E00E94810D83E5EE
:100AB00093E06CE871E00E94310F2C960FB6F89429
:100AC000DEBF0FBECDBFCF91DF911F910F91FF9081
:100AD000EF90DF90CF9008950F931F93DF93CF9304
:100AE000CDB7DEB727970FB6F894DEBF0FBECDBFE8
:100AF0008091340261E00E943B0A8091340261E0FF
:100B00000E94FC098091360261E00E94FC098091FC
:100B1000380261E00E94FC0980913A0261E00E9483
:100B2000FC0980913C0261E00E94FC090EE312E0A6
:100B3000F801808161E00E94FC090E5F1F4FF2E026
:100B400008341F07A9F78091480260E00E94FC0961
:100B50000E94380960938E0270938F0280939002F6
:100B6000909391028BEB93E00E94AC110E9454127F
:100B700083E593E040E855E260E070E00E94190BE5
:100B800080E892E00E940F13882331F483E593E01C
:100B900061EA71E00E94310F8E010F5F1F4FC801A3
:100BA0006DE171E00E947110C8010E94E703C80165
:100BB0000E94BB106AEF70E080E090E00E9446095E
:100BC00083E593E065EB71E00E94310F27960FB645
:100BD000F894DEBF0FBECDBFCF91DF911F910F9173
:100BE00008951F93CF93DF93DC01EB014836A9F002
:100BF000493650F4413309F451C0413609F43FC03D
:100C0000403309F062C051C04437B1F0453709F4B0
:100C100042C0403709F059C036C015966D917C919D
:100C2000169780E090E00E94171720E038EF4FE71A
:100C300056E40E947E161AC017966D917C91189703
:100C400080E090E00E94171720E038EF4FE756E46D
:100C50000E947E1620E030E045E253E40E94CD176A
:100C600020E030E040E252E40E941516AB01BC01E6
:100C7000CE0122E030E00E941E0F10E02DC0CB011B
:100C800012966C9103C0CB0113966C914AE050E030
:100C90000E94A40DF2CF0E944D030FC0ED91FC9174
:100CA00011970480F581E02D06C0ED91FC9111971C
:100CB0000680F781E02DCD010995182FCE01612F17
:100CC0004AE050E00E94A40D07C0CE016EEF4AE05A
:100CD00050E00E94A40D1EEF812FDF91CF911F9154
:100CE0000895CF92DF92EF92FF920F931F93DF93BD
:100CF000CF93CDB7DEB7E0970FB6F894DEBF0FBE47
:100D0000CDBF0E94080390938B0280938A0283E5F3
:100D100093E00E94A00B181619060CF020C183E581
:100D200093E00E94D10B7C010E94380960938E02EF
:100D300070938F02809390029093910283E593E0E9
:100D40006AEC71E00E94340E83E593E0B7014AE05B
:100D500050E00E94020E83E593E062ED71E00E9494
:100D6000340E83E593E06E2D0E940A0C83E593E038
:100D70000E94D20C8701015310400530110510F577
:100D8000000F111FF801E854FD4F81E090E09183BE
:100D900080830E943809000F111F0A561D4FF80169
:100DA00060837183828393838E01095F1F4FC80123
:100DB0006BE471E00E947110C8010E94E703C80152
:100DC0000E94BB10FBE6EF16F10409F44AC08CE662
:100DD000E816F10424F591E6E916F10409F45CC083
:100DE000E2E6EE16F10484F4F2E5EF16F10409F4FC
:100DF0007EC084E5E816F10409F47FC090E2E916AC
:100E0000F10409F0A6C09FC0E8E6EE16F10409F46B
:100E100067C0F9E6EF16F10409F09BC01DC081E739
:100E2000E816F10409F455C092E7E916F10454F408
:100E3000ECE6EE16F104F9F0FFE6EF16F10409F026
:100E400088C014C083E7E816F10469F194E7E91655
:100E5000F10409F07EC036C081EB92E06DED71E0E7
:100E600076C081EB92E060EE71E071C081EB92E0C0
:100E700065EE71E004C081EB92E06CEE71E00E94DF
:100E80008B100E94380960939202709393028093B2
:100E90009402909395025DC08E01025F1F4FC801BE
:100EA00064E171E006C08E010B5E1F4FC8016BE468
:100EB00071E00E947110C8010E94E703C8010E94FE
:100EC000BB1047C08E01045E1F4FC80167E671E08A
:100ED000F0CF8E010D5D1F4FC8016DE171E0E9CFCC
:100EE0008E01065D1F4FC80167E771E0E2CF809178
:100EF000340260E00E943B0A2CC083E593E065EF7A
:100F000071E00E94340E83E593E066E072E00E9497
:100F1000340E83E593E062E172E00E94340E83E5D3
:100F200093E067E172E00E94310F8E010F5F1F4F67
:100F3000C80166E072E047E152E00E94B711C801C3
:100F40000E94351306C081EB92E061E071E00E94DF
:100F50008B108AEA92E061EB72E00E94A4100E947A
:100F6000380920918E0230918F0240919002509169
:100F70009102621B730B840B950B20914E023091F2
:100F80004F02442737FD4095542F2617370748074F
:100F90005907D8F420918A0230918B0280918C02FB
:100FA00090918D022817390731F481EB92E061E0CE
:100FB00071E00E948B100E94380960938E0270933A
:100FC0008F02809390029093910281EB92E061E016
:100FD00071E00E94E50F882311F180913A0260E0F0
:100FE0000E943B0A80913C0260E00E943B0A809193
:100FF000380260E00E943B0A8091360260E00E9465
:101000003B0A0EE312E0F801808160E00E943B0A97
:101010000E5F1F4FF2E008341F07A9F77BC081EB7A
:1010200092E06DED71E00E94E50F882371F08091F0
:101030003A0261E00E943B0A8091360261E00E9420
:101040003B0A8091380260E015C081EB92E060EECF
:1010500071E00E94E50F882381F080913C0261E0FD
:101060000E943B0A8091360260E00E943B0A809118
:10107000380261E00E943B0A4DC081EB92E065EED0
:1010800071E00E94E50F882369F080913A0261E0E7
:101090000E943B0A8091360261E00E943B0A8091E7
:1010A000380214C081EB92E06CEE71E00E94E50F13
:1010B000882381F180913C0261E00E943B0A80918B
:1010C000380261E00E943B0A8091360260E00E9493
:1010D0003B0A0E943809209192023091930240917C
:1010E000940250919502621B730B840B950B209117
:1010F0004C0230914D02442737FD4095542F26175E
:1011000037074807590730F481EB92E061E071E05E
:101110000E948B1008EB12E09EE3E92E92E0F92E7C
:1011200086E9C82E82E0D82EF80180819181892B32
:1011300029F1F701808161E00E943B0A0E94380991
:10114000F6012081318142815381621B730B840B34
:10115000950B20914A0230914B02442737FD409570
:10116000542F261737074807590740F4F7018081A5
:1011700060E00E943B0AF801118210820E5F1F4F4F
:1011800082E090E0E80EF91EE4E0F0E0CE0EDF1E13
:10119000F2E0023C1F0741F66AE070E080E090E078
:1011A0000E944609E0960FB6F894DEBF0FBECDBF91
:1011B000CF91DF911F910F91FF90EF90DF90CF9033
:1011C0000895CF93DF930E949F090E946C05CBEC9A
:1011D000DAE00E9471062097E1F30E94CB0AF9CF72
:1011E0001F920F920FB60F9211242F933F938F935C
:1011F0009F93AF93BF938091C6029091C702A09135
:10120000C802B091C9023091CA020196A11DB11D58
:10121000232F2D5F2D3720F02D570196A11DB11DD5
:101220002093CA028093C6029093C702A093C8027B
:10123000B093C9028091C2029091C302A091C402EE
:10124000B091C5020196A11DB11D8093C202909379
:10125000C302A093C402B093C502BF91AF919F9106
:101260008F913F912F910F900FBE0F901F90189567
:101270008FB7F8942091C6023091C7024091C802FE
:101280005091C9028FBFB901CA0108959B01AC01F9
:101290007FB7F8948091C2029091C302A091C402DA
:1012A000B091C50266B5A89B05C06F3F19F00196C5
:1012B000A11DB11D7FBFBA2FA92F982F8827860F98
:1012C000911DA11DB11D62E0880F991FAA1FBB1FB0
:1012D0006A95D1F7BC012DC0FFB7F8948091C20286
:1012E0009091C302A091C402B091C502E6B5A89B3B
:1012F00005C0EF3F19F00196A11DB11DFFBFBA2F28
:10130000A92F982F88278E0F911DA11DB11DE2E0F6
:10131000880F991FAA1FBB1FEA95D1F7861B970B51
:10132000885E9340C8F221503040404050406851A0
:101330007C4F211531054105510571F608957894CA
:1013400084B5826084BD84B5816084BD85B58260CA
:1013500085BD85B5816085BDEEE6F0E08081816068
:101360008083E1E8F0E01082808182608083808168
:1013700081608083E0E8F0E0808181608083E1EB40
:10138000F0E0808184608083E0EBF0E08081816028
:101390008083EAE7F0E080818460808380818260DE
:1013A00080838081816080838081806880831092C7
:1013B000C1000895982F8E3008F09E50977080914C
:1013C00050028295880F880F807C892B80937C0047
:1013D00080917A00806480937A0080917A0086FD03
:1013E000FCCF2091780040917900942F80E030E08C
:1013F000282B392BC9010895CF93DF93482F50E054
:10140000CA0186569F4FFC0134914A575F4FFA013B
:101410008491882369F190E0880F991FFC01E859B5
:10142000FF4FA591B491FC01EE58FF4FC591D491A7
:10143000662351F42FB7F8948C91932F90958923BC
:101440008C93888189230BC0623061F42FB7F894A4
:101450008C91932F909589238C938881832B8883FB
:101460002FBF06C09FB7F8948C91832B8C939FBF9E
:10147000DF91CF910895482F50E0CA0182559F4FC8
:10148000FC012491CA0186569F4FFC0194914A5752
:101490005F4FFA013491332309F440C0222351F104
:1014A000233071F0243028F42130A1F0223011F5DE
:1014B00014C02630B1F02730C1F02430D9F404C074
:1014C000809180008F7703C0809180008F7D809312
:1014D000800010C084B58F7702C084B58F7D84BD35
:1014E00009C08091B0008F7703C08091B0008F7DDC
:1014F0008093B000E32FF0E0EE0FFF1FEE58FF4F98
:10150000A591B4912FB7F894662321F48C9190950E
:10151000892302C08C91892B8C932FBF0895089545
:101520001F920F920FB60F9211242F933F934F9358
:101530008F939F93EF93FF938091C00082FD1DC016
:101540004091C60020910B0330910C032F5F3F4F59
:101550002F73307080910D0390910E032817390777
:1015600071F0E0910B03F0910C03E553FD4F4083C4
:1015700030930C0320930B0302C08091C600FF91AF
:10158000EF919F918F914F913F912F910F900FBEAF
:101590000F901F901895E0915F03F0916003E05C5D
:1015A000FF4F8191919120813181821B930B8F7329
:1015B0009070892B11F00E948F0A08951F920F924C
:1015C0000FB60F9211242F933F938F939F93EF9316
:1015D000FF9320914F0330915003809151039091DC
:1015E00052032817390731F48091C1008F7D809311
:1015F000C10014C0E0915103F0915203E15FFC4F30
:101600002081809151039091520301968F739070C5
:1016100090935203809351032093C600FF91EF9162
:101620009F918F913F912F910F900FBE0F901F9020
:101630001895AF92BF92DF92EF92FF920F931F9394
:10164000CF93DF93EC017A018B01DD24403081EEF2
:10165000580780E0680780E0780711F0DD24D39414
:1016600091E0A92EB12CEC89FD89DD2069F0C5013E
:1016700008A002C0880F991F0A94E2F7808360E0F7
:1016800079E08DE390E005C0108260E874E88EE1B7
:1016900090E0A80197010E945F182150304040401F
:1016A0005040569547953795279580E1203038076B
:1016B00020F0DD2011F0DD24D6CFE889F9893083D0
:1016C000EA89FB89208319A2EE89FF89408121E004
:1016D00030E0C9010C8C02C0880F991F0A94E2F710
:1016E000482B4083EE89FF894081C9010D8C02C0DF
:1016F000880F991F0A94E2F7482B4083EE89FF89EF
:101700004081C9010E8C02C0880F991F0A94E2F72C
:10171000482B4083EE89FF8980810F8C02C0220F05
:10172000331F0A94E2F7209528232083DF91CF917D
:101730001F910F91FF90EF90DF90BF90AF900895B1
:10174000DC011C96ED91FC911D97E05CFF4F21910F
:10175000319180819181281B390B2F733070C90121
:101760000895DC011C96ED91FC911D97E05CFF4F04
:1017700020813181E054F040DF01AE5BBF4F8D919D
:101780009C9111972817390719F42FEF3FEF07C0E5
:101790008D919C91E80FF91F8081282F30E0C901BD
:1017A0000895DC011C96ED91FC911D97E05CFF4FC4
:1017B00020813181E054F040DF01AE5BBF4F8D915D
:1017C0009C9111972817390719F42FEF3FEF10C09C
:1017D0008D919C911197E80FF91F20818D919C911B
:1017E000119701968F73907011969C938E9330E0B1
:1017F000C9010895DC0191968C919197882339F065
:101800005496ED91FC915597808186FFF9CF919682
:101810001C920895CF93DF93EC01EE85FF85E05C89
:10182000FF4F20813181E054F0402F5F3F4F2F73F5
:101830003070DF01AE5BBF4F8D919C9111972817DF
:101840003907D1F3E05CFF4F80819181E054F04093
:10185000E80FF91F6083EE85FF85E05CFF4F318361
:101860002083EE89FF89208181E090E00F8C02C007
:10187000880F991F0A94E2F7282B208381E089A31F
:10188000EC89FD8980818064808381E090E0DF9134
:10189000CF910895109256031092550388EE93E06D
:1018A000A0E0B0E08093570390935803A0935903AE
:1018B000B0935A0383E692E09093540380935303CA
:1018C0008BEC92E09093600380935F038FE093E052
:1018D000909362038093610385EC90E0909364039E
:1018E0008093630384EC90E0909366038093650398
:1018F00080EC90E0909368038093670381EC90E024
:1019000090936A038093690382EC90E090936C0358
:1019100080936B0386EC90E090936E0380936D034D
:1019200084E080936F0383E08093700387E080936B
:10193000710385E08093720381E0809373030895BF
:10194000CF92DF92EF92FF920F931F93CF93DF938B
:101950007C016B018A01C0E0D0E00FC0D6016D911F
:101960006D01D701ED91FC910190F081E02DC7014F
:101970000995C80FD91F015010400115110571F7C5
:10198000CE01DF91CF911F910F91FF90EF90DF90EB
:10199000CF900895DC01ED91FC910190F081E02D54
:1019A00009950895EF92FF920F931F938C01DC012C
:1019B000ED91FC910190F081E02D6DE009957C01A5
:1019C000D801ED91FC910190F081E02DC8016AE011
:1019D00009959C012E0D3F1DC9011F910F91FF908C
:1019E000EF900895CF93DF93EC016115710519F421
:1019F00020E030E00FC0DB010D900020E9F71197E7
:101A0000A61BB70BE881F9810280F381E02DAD01BF
:101A100009959C01C901DF91CF9108954F925F9282
:101A20007F928F929F92AF92BF92CF92DF92EF926E
:101A3000FF920F931F93DF93CF93CDB7DEB7A1979C
:101A40000FB6F894DEBF0FBECDBF2C01742ECB01B4
:101A5000223008F42AE019A231E2C32ED12CCC0E98
:101A6000DD1E822E9924AA24BB24672D752FA50183
:101A700094010E945F1879018A01C801B701A5018C
:101A800094010E943418472D461B0894C108D108C0
:101A90004A3014F4405D01C0495CF6014083E11412
:101AA000F1040105110521F07E2C5F2DC801DDCF69
:101AB000C201B6010E94F20CA1960FB6F894DEBFE7
:101AC0000FBECDBFCF91DF911F910F91FF90EF908F
:101AD000DF90CF90BF90AF909F908F907F905F905E
:101AE0004F900895DC012115310541F4ED91FC91F1
:101AF0000190F081E02D642F099508950E940E0D4C
:101B00000895EF92FF920F931F939A017B0100E0DB
:101B100010E0B801A7010E94720D1F910F91FF9074
:101B2000EF900895EF92FF920F931F939A01E62E84
:101B3000FF2400E010E0B801A7010E94720D1F9180
:101B40000F91FF90EF900895CF92DF92EF92FF9266
:101B50000F931F936C01E62E9A01FF2400E010E022
:101B6000B801A7010E94720D8C01C6010E94D20C1F
:101B7000080F191FC8011F910F91FF90EF90DF9080
:101B8000CF900895CF92DF92EF92FF920F931F9321
:101B9000CF93DF93EC016A017B012115310541F4FC
:101BA000E881F9810190F081E02D642F09951FC033
:101BB0002A303105D1F477FF17C0E881F98101900F
:101BC000F081E02D6DE209958C0144275527BA017B
:101BD0004C195D096E097F09CE012AE00E940E0DA5
:101BE0009801280F391F04C02AE00E940E0D9C01A5
:101BF000C901DF91CF911F910F91FF90EF90DF907E
:101C0000CF900895EF92FF920F931F937B019A015B
:101C10000027F7FC0095102FB801A7010E94C20D04
:101C20001F910F91FF90EF900895CF92DF92EF9266
:101C3000FF920F931F936C017B019A010027F7FC21
:101C40000095102FB801A7010E94C20D8C01C6019A
:101C50000E94D20C080F191FC8011F910F91FF900D
:101C6000EF90DF90CF9008950E94F20C08957F923C
:101C70008F929F92AF92BF92CF92DF92EF92FF929C
:101C80000F931F93CF93DF934C017A018B01722E38
:101C9000CB01BA01A80197010E943018882321F0D6
:101CA000C40160E272E021C0C0E0D0E057016801E9
:101CB000E894D7F8C601B5012FEF3FEF4FE75FE794
:101CC0000E943018882351F4C601B5012FEF3FEF71
:101CD0004FE75FE70E947A16181614F0C1E0D0E0D3
:101CE000219739F0C40164E272E00E94F20CEC0129
:101CF00093C0C801B7012FEF3FEF4FE75FE40E94A9
:101D0000C917181654F0C801B7012FEF3FEF4FE77E
:101D10005FEC0E947A16882324F4C40168E272E022
:101D2000E4CFC801B70120E030E040E050E00E947D
:101D30007A1687FD03C0C0E0D0E00EC0D401ED915B
:101D4000FC910190F081E02DC4016DE20995EC0158
:101D500017FB109517F9109520E030E040E05FE3A5
:101D6000DD240BC0CA01B90120E030E040E251E4BB
:101D70000E947E169B01AC01D394D71498F3C8013E
:101D8000B7010E9416165B016C010E94EB167B01E5
:101D90008C01C401B801A7012AE030E00E94720D55
:101DA000C80FD91F772039F0C4016CE272E00E949D
:101DB000F20CC80FD91FC801B7010E9417179B0169
:101DC000AC01C601B5010E94151624C020E030E028
:101DD00040E251E40E94CD177B018C010E94E6167F
:101DE0005B016C01CC24B7FCC094DC2CC401B601AF
:101DF000A5012AE030E00E94C20DC80FD91FC6011C
:101E0000B5010E9419179B01AC01C801B7010E94DE
:101E100015167A947720D1F6CE01DF91CF911F91DC
:101E20000F91FF90EF90DF90CF90BF90AF909F9079
:101E30008F907F9008950E94370E0895EF92FF9241
:101E40000F931F937C010E94370E8C01C7010E94E3
:101E5000D20C080F191FC8011F910F91FF90EF902E
:101E60000895EF92FF920F931F937C010E94F20C52
:101E70008C01C7010E94D20C080F191FC8011F91C5
:101E80000F91FF90EF900895AF92BF92CF92DF92A3
:101E9000EF92FF920F931F93CF93DF935C016B013F
:101EA000EE24FF24C0E0D0E010C0D501ED91FC91FC
:101EB00000811181C601BE010E94D40F682FC501A7
:101EC000F8010995E80EF91E2196F60184819581A5
:101ED000C817D90750F3C701DF91CF911F910F9118
:101EE000FF90EF90DF90CF90BF90AF900895EF926A
:101EF000FF920F931F937C010E94440F8C01C70136
:101F00000E94D20C9C01200F311FC9011F910F911B
:101F1000FF90EF9008952F923F924F925F926F92B1
:101F20007F928F929F92AF92BF92CF92DF92EF9269
:101F3000FF920F931F93DF93CF93CDB7DEB73B0193
:101F40004C0119012A016D897E898F89988D6A1942
:101F50007B098C099D09621A730A840A950AA401F7
:101F600093010E943418E218F30804091509A80126
:101F700097010E9481182A0D3B1D4C1D5D1DB90162
:101F8000CA01CF91DF911F910F91FF90EF90DF90E9
:101F9000CF90BF90AF909F908F907F906F905F9009
:101FA0004F903F902F900895FC0184819581681790
:101FB000790748F40190F081E02D309721F0E60F89
:101FC000F71F8081089580E00895DC01FB011496DD
:101FD0008D919C911597892B31F461157105A9F0AC
:101FE00090E0808108C00D90BC91A02D6115710515
:101FF00029F490E08C91882349F407C0CD010E9418
:1020000072029C0190E0232B09F491E0892F08953E
:102010000F931F93CF93DF93EC018B016F5F7F4F83
:10202000888199810E949101009711F480E005C098
:10203000998388831B830A8381E0DF91CF911F916D
:102040000F910895CF93DF93EC0188819981892BBB
:1020500029F08A819B818617970760F4CE010E9440
:102060000810882341F08C819D81892B19F4E88127
:10207000F981108281E0DF91CF910895CF93DF93B2
:10208000EC0188819981009711F00E943901198231
:1020900018821D821C821B821A82DF91CF910895C3
:1020A000EF92FF920F931F93CF93DF93EC017B018D
:1020B0008A01BA010E942210882321F4CE010E94D5
:1020C0003E1007C01D830C8388819981B7010E944F
:1020D0007B02CE01DF91CF911F910F91FF90EF9086
:1020E0000895CF93DF93EC01198218821B821A8224
:1020F0001D821C821E826115710551F0DB010D905D
:102100000020E9F71197A61BB70BAD010E945010F4
:10211000DF91CF9108950F931F93182F092F611509
:10212000710559F0DB010D900020E9F71197A61B0E
:10213000B70BAD010E94501002C00E943E10812FCB
:10214000902F1F910F910895CF93DF93EC01FB0126
:102150008617970761F0608171816115710529F01B
:10216000448155810E94501002C00E943E10CE0151
:10217000DF91CF910895FC01808191810E94390106
:1021800008950E943901089581E08093BA03609315
:1021900097031092B8031092B903089581E08093D9
:1021A000BA03609397031092B8031092B90308958D
:1021B0002091960330E080919503281B3109C901D5
:1021C00008954091950380919603481718F02FEFDA
:1021D0003FEF0AC0E42FF0E0EB58FC4F8081282F3E
:1021E00030E04F5F40939503C9010895E091950356
:1021F00080919603E81718F0EFEFFFEF06C0F0E0CC
:10220000EB58FC4F8081E82FF0E0CF01089508954E
:102210001092BE031092BD0388EE93E0A0E0B0E000
:102220008093BF039093C003A093C103B093C203F4
:1022300083E792E09093BC038093BB030895CF9211
:10224000DF92EF92FF920F931F93CF93DF937C0166
:102250006B018A018091BA038823A1F0C0E0D0E02D
:102260000DC0D701ED91FC91D601AC0FBD1F0190BF
:10227000F081E02DC7016C9109952196C017D10717
:1022800080F304C0CB01642F0E944B14C801DF917E
:10229000CF911F910F91FF90EF90DF90CF90089515
:1022A000DF93CF930F92CDB7DEB7FC0169838091A6
:1022B000BA038823C9F08091B903803238F081E0F5
:1022C00090E09383828320E030E015C08091B803D2
:1022D000E82FF0E0E856FC4F998190838F5F809360
:1022E000B8038093B90305C0CE01019661E00E9456
:1022F0004B1421E030E0C9010F90CF91DF91089598
:102300000F93062F8091970368E973E04091B9031A
:1023100021E00E94F6131092B8031092B9031092B4
:10232000BA030F91089561E00E948011089541322F
:1023300008F040E2862F65E773E00E94AD1310922B
:10234000950380939603089521E00E9497110895C4
:1023500021E00E9497110895109295031092960320
:102360001092B8031092B9030E94F7150895CF9305
:10237000DF93DC01FB01EB012996818580538A30D4
:1023800008F080E0298120533AE0839FC0011124A6
:10239000280F2C9380818A34A9F08B343CF4843448
:1023A000C1F18634F1F08134C1F51DC08E3479F16C
:1023B0008F341CF48D3489F51DC08F3421F18335A1
:1023C00061F51FC08181813611F481E023C08281D3
:1023D0008E3611F087E001C086E011968C9311973C
:1023E00019C082E017C08281823711F088E012C0E4
:1023F00084E010C08281823711F085E00BC083E059
:1024000009C089E007C011963C93119706C08BE084
:1024100001C08CE011968C931197EF012496648192
:1024200060536A3008F060E0298120538AE0689F99
:10243000C0011124280F12962C931297EA0198815B
:1024400090539A3008F090E0FA01218120538AE0FD
:10245000989FC0011124280F13962C93139733963D
:10246000EA019B8190539A3008F090E0218120533B
:102470008AE0989FC0011124280F14962C9314977A
:10248000FA013696EA014E8140534A3008F040E0A6
:10249000218120538AE0489FC0011124280F1596FE
:1024A0002C93DF91CF91089581E00895BF92CF9250
:1024B000DF92EF92FF920F931F93DF93CF9300D0A1
:1024C00000D000D0CDB7DEB70BEB13E0C80168E653
:1024D00070E00E94CE10C80160E00E945011C80157
:1024E0000E949311C80168E670E047E050E00E9446
:1024F000A411C8010E94E1109FE7B92EB822C801BB
:102500000E94E110C82EC8010E94E110D82EC80117
:102510000E94E110C8010E94E110E82EC8010E944B
:10252000E110F82EC8010E94E110282F30E0B4E03D
:1025300035952795BA95E1F74AEF5FEFB901649FAA
:102540009001659F300D749F300D1124820F90E033
:102550002B2D30E0A4E035952795AA95E1F7B90138
:10256000649F9001659F300D749F300D1124B20E51
:102570002C2D30E0F4E035952795FA95E1F7B90177
:10258000649F9001659F300D749F300D1124C20E21
:102590002D2D30E0E4E035952795EA95E1F7B90176
:1025A000649F9001659F300D749F300D1124D20EF1
:1025B0002E2D30E074E0359527957A95E1F7B90135
:1025C000649F9001659F300D749F300D1124E20EC1
:1025D0002F2D30E064E0359527956A95E1F7B90134
:1025E000649F9001659F300D749F300D1124F20E91
:1025F000282F3F2D4E2D5D2D6C2D7B2D80E02696B6
:102600000FB6F894DEBF0FBECDBFCF91DF911F9103
:102610000F91FF90EF90DF90CF90BF9008958BEBDC
:1026200093E068E670E00E94CE108BEB93E060E0F0
:102630000E9450118BEB93E00E9493118BEB93E07F
:1026400068E670E041E050E00E94A4118BEB93E05B
:102650000E94E11020E090E0880F892F881F990BDD
:10266000892B09F421E0822F0895DF92EF92FF92E7
:102670000F931F937C010BEB13E0C80168E670E039
:102680000E94CE10C80160E00E945011F701258120
:10269000822F6AE00E94531846E0D42E8D9DC0011F
:1026A0001124280FC801622F0E945011F7012481C4
:1026B000822F6AE00E9453188D9DC0011124280FBB
:1026C000C801622F0E945011F7012381822F6AE016
:1026D0000E9453188D9DC0011124280FC801622F3C
:1026E0000E945011C80160E00E945011F701228140
:1026F000822F6AE00E9453188D9DC0011124280F7B
:10270000C801622F0E945011F7012181822F6AE0D7
:102710000E9453188D9DC0011124280FC801622FFB
:102720000E945011F7012081822F6AE00E94531805
:102730008D9DC0011124280FC801622F0E945011E5
:10274000C80160E00E945011C8010E9493111F91BE
:102750000F91FF90EF90DF900895382F413210F0E5
:1027600040E042C08091C7038823E1F791E0909355
:10277000C7032093C9038FEF809334041092EF03B3
:1027800041504093F0034F5F9093C8038091C8037A
:10279000330F832B8093C8038091CA03813041F4A7
:1027A0001092CA038091C8038093BB0085EC01C0DE
:1027B00085EE8093BC008091C7038130E1F3809166
:1027C000EF03841710F44091EF0320E030E00AC0DB
:1027D000FB01E20FF31FD901A153BC4F8C91808301
:1027E0002F5F3F4F2417A0F3842F08950F931F935B
:1027F000582F122F413210F081E04AC08091C70358
:102800008823E1F782E08093C7030093C9038FEF29
:10281000809334041092EF034093F003AFECB3E0E5
:10282000FB0102C081918D938E2F861B8417D0F3FC
:102830001092C8038091C803550F852B8093C8035D
:102840008091CA03813041F41092CA038091C80379
:102850008093BB0085EC01C085EE8093BC00112302
:1028600021F08091C7038230E1F3809134048F3FDF
:1028700011F480E00DC080913404803211F482E0C4
:1028800007C080913404803311F084E001C083E0FC
:102890001F910F910895482F613210F081E0089543
:1028A0008091C703843011F082E008956093120490
:1028B000A1EFB3E0842F9C01F90102C081918D93B7
:1028C0008E2F841B8617D0F380E008951F920F92FD
:1028D0000FB60F9211242F933F934F935F936F93F3
:1028E0007F938F939F93AF93BF93EF93FF938091C9
:1028F000B90090E0887F90708036910509F4F2C0AD
:1029000081369105CCF58832910509F47BC0893276
:102910009105B4F48031910509F46FC081319105BE
:102920003CF4009709F447C1089709F04FC165C00E
:102930008831910509F466C0809709F047C182C0CB
:102940008034910509F4A4C08134910544F48033A6
:10295000910509F482C0C89709F038C189C0803553
:10296000910509F489C08835910509F496C0883429
:10297000910509F02BC1AEC08839910509F413C146
:1029800089399105ECF48837910509F4ABC0893792
:1029900091054CF48836910509F4A4C0803791055F
:1029A00009F014C19FC08838910509F4FCC0803932
:1029B000910509F49DC08038910509F007C198C0C0
:1029C000803B910509F4C6C0813B91054CF4803AE7
:1029D000910509F49FC0883A910509F0F7C0BAC083
:1029E000803C910509F4E3C0883C910509F4DFC0FF
:1029F000883B910509F0EAC0C2C08091C80380936A
:102A0000BB00CFC09091EF038091F003981768F45A
:102A10009091EF03E92FF0E0E153FC4F8081809328
:102A2000BB009F5F9093EF03BCC08091C9038823D4
:102A300009F44BC085ED8093BC008091BC0084FDFF
:102A4000FCCFC2C080E28093340485ED8093BC004B
:102A50008091BC0084FDFCCFB7C080E38093340438
:102A600085ED8093BC008091BC0084FDFCCFACC0A0
:102A700088E3809334049BC08091EF039091BB0066
:102A8000E82FF0E0E153FC4F90838F5F8093EF03DA
:102A90009091EF038091F00382C08091EF039091B9
:102AA000BB00E82FF0E0E153FC4F90838F5F8093F1
:102AB000EF038091C903882341F085ED8093BC002A
:102AC0008091BC0084FDFCCF7FC081E08093CA036D
:102AD00084EA6EC085ED8093BC008091BC0084FDCB
:102AE000FCCF72C083E08093C7031092330459C0B7
:102AF00080913304803208F056C080913304909165
:102B0000BB00E82FF0E0ED5EFB4F90838F5F80937A
:102B1000330447C080913304803230F4E0913304B1
:102B2000F0E0ED5EFB4F108285ED8093BC0080915C
:102B3000BC0084FDFCCF1092C70360913304E09188
:102B4000CD03F091CE0383E194E070E009951092FB
:102B500033042DC084E08093C703109211041092B7
:102B60001204E091CB03F091CC03099580911204FB
:102B7000882329F481E0809312041092F10390914C
:102B80001104E92FF0E0EF50FC4F80818093BB00EF
:102B90009F5F9093110490911104809112049817F3
:102BA00010F485EC01C085E88093BC000FC085EC73
:102BB0008093BC0009C01092340485ED8093BC0062
:102BC0008091BC0084FDFCCF1092C703FF91EF9170
:102BD000BF91AF919F918F917F916F915F914F9135
:102BE0003F912F910F900FBE0F901F90189510924C
:102BF000C70381E08093C9031092CA0382E161E0B8
:102C00000E943B0A83E161E00E943B0AE9EBF0E0AD
:102C100080818E7F808380818D7F808388E4809314
:102C2000B80085E48093BC0008955058BB27AA27BC
:102C30000ED075C166D130F06BD120F031F49F3FDA
:102C400011F41EF45BC10EF4E095E7FB51C1E92FCE
:102C500077D180F3BA17620773078407950718F0D6
:102C600071F49EF58FC10EF4E0950B2EBA2FA02DB6
:102C70000B01B90190010C01CA01A0011124FF2729
:102C8000591B99F0593F50F4503E68F11A16F04024
:102C9000A22F232F342F4427585FF3CF4695379523
:102CA0002795A795F0405395C9F77EF41F16BA0BE8
:102CB000620B730B840BBAF09150A1F0FF0FBB1F96
:102CC000661F771F881FC2F70EC0BA0F621F731FDF
:102CD000841F48F4879577956795B795F7959E3F3C
:102CE00008F0B3CF9395880F08F09927EE0F9795CA
:102CF00087950895D9D008F481E008950CD00FC1CC
:102D000007D140F0FED030F021F45F3F19F0F0C061
:102D1000511139C1F3C014D198F39923C9F3552344
:102D2000B1F3951B550BBB27AA27621773078407BE
:102D300038F09F5F5F4F220F331F441FAA1FA9F374
:102D400033D00E2E3AF0E0E830D091505040E69566
:102D5000001CCAF729D0FE2F27D0660F771F881FC7
:102D6000BB1F261737074807AB07B0E809F0BB0BB6
:102D7000802DBF01FF2793585F4F2AF09E3F5105DA
:102D800068F0B6C000C15F3FECF3983EDCF3869577
:102D900077956795B795F7959F5FC9F7880F911D50
:102DA0009695879597F90895E1E0660F771F881F3C
:102DB000BB1F621773078407BA0720F0621B730BEF
:102DC000840BBA0BEE1F88F7E095089504D0689441
:102DD000B111D9C00895BCD088F09F5790F0B92F99
:102DE0009927B751A0F0D1F0660F771F881F991F60
:102DF0001AF0BA95C9F712C0B13081F0C3D0B1E072
:102E00000895C0C0672F782F8827B85F39F0B93F81
:102E1000CCF3869577956795B395D9F73EF4909561
:102E20008095709561957F4F8F4F9F4F0895E894DF
:102E300009C097FB3EF490958095709561957F4F02
:102E40008F4F9F4F9923A9F0F92F96E9BB279395B0
:102E5000F695879577956795B795F111F8CFFAF4C0
:102E6000BB0F11F460FF1BC06F5F7F4F8F4F9F4FF1
:102E700016C0882311F096E911C0772321F09EE84F
:102E8000872F762F05C0662371F096E8862F70E0B5
:102E900060E02AF09A95660F771F881FDAF7880F8F
:102EA0009695879597F90895990F0008550FAA0BE5
:102EB000E0E8FEEF16161706E807F907C0F012164D
:102EC0001306E407F50798F0621B730B840B950B50
:102ED00039F40A2661F0232B242B252B21F40895A5
:102EE0000A2609F4A140A6958FEF811D811D089542
:102EF00097F99F6780E870E060E008959FEF80ECAD
:102F0000089500240A94161617061806090608954F
:102F100000240A9412161306140605060895092EB5
:102F20000394000C11F4882352F0BB0F40F4BF2B24
:102F300011F460FF04C06F5F7F4F8F4F9F4F089564
:102F400057FD9058440F551F59F05F3F71F047955A
:102F5000880F97FB991F61F09F3F79F0879508953F
:102F6000121613061406551FF2CF4695F1DF08C05E
:102F7000161617061806991FF1CF8695710561057B
:102F800008940895E894BB2766277727CB0197F923
:102F900008958ADF08F48FEF08950BD0C0CFB1DF1A
:102FA00028F0B6DF18F0952309F0A2CFA7CF11249F
:102FB000EACFC6DFA0F3959FD1F3950F50E0551FE0
:102FC000629FF001729FBB27F00DB11D639FAA277E
:102FD000F00DB11DAA1F649F6627B00DA11D661FCD
:102FE000829F2227B00DA11D621F739FB00DA11DEE
:102FF000621F839FA00D611D221F749F3327A00DA8
:10300000611D231F849F600D211D822F762F6A2F43
:1030100011249F5750408AF0E1F088234AF0EE0FC8
:10302000FF1FBB1F661F771F881F91505040A9F7D5
:103030009E3F510570F05CCFA6CF5F3FECF3983E0A
:10304000DCF3869577956795B795F795E7959F5F3C
:10305000C1F7FE2B880F911D9695879597F90895D6
:1030600023DF880B990B0895629FD001739FF001B5
:10307000829FE00DF11D649FE00DF11D929FF00D08
:10308000839FF00D749FF00D659FF00D9927729F3F
:10309000B00DE11DF91F639FB00DE11DF91FBD01CA
:1030A000CF0111240895991B79E004C0991F961748
:1030B00008F0961B881F7A95C9F780950895A1E2BC
:1030C0001A2EAA1BBB1BFD010DC0AA1FBB1FEE1FA2
:1030D000FF1FA217B307E407F50720F0A21BB30BED
:1030E000E40BF50B661F771F881F991F1A9469F769
:1030F00060957095809590959B01AC01BD01CF01C5
:10310000089597FB092E05260ED057FD04D0D7DF72
:103110000AD0001C38F450954095309521953F4FCA
:103120004F4F5F4F0895F6F7909580957095619594
:103130007F4F8F4F9F4F08952F923F924F925F92F4
:103140006F927F928F929F92AF92BF92CF92DF92B7
:10315000EF92FF920F931F93CF93DF93CDB7DEB71C
:10316000CA1BDB0B0FB6F894DEBF0FBECDBF0994B0
:103170002A88398848885F846E847D848C849B8407
:10318000AA84B984C884DF80EE80FD800C811B8115
:10319000AA81B981CE0FD11D0FB6F894DEBF0FBE44
:1031A000CDBFED010895EE0FFF1F0590F491E02DC6
:1031B000099410E0C8ECD0E004C0FE010E94D518CC
:0C31C0002296CA3CD107C9F7F894FFCF53
:1031CC000073746F70002E2E2E0071756572796904
:1031DC006E6720006163747561746F7200616C6C52
:1031EC00006163747561746F72202D2D20636D64A2
:1031FC003A200009093A3A0963757272656E7420B7
:10320C00706F736974696F6E3A0900736F6C656ED9
:10321C006F69647300736F6C656E6F696473202DD6
:10322C002D2000207C2000636C6F636B00636C6F3F
:10323C00636B202D2D20006869680048756D6964EA
:10324C006974793A200020524820280029005465DE
:10325C006D70657261747572653A20002043202888
:10326C0000525443206973204E4F542072756E6E79
:10327C00696E6721002D2D20736574757020636F46
:10328C006D706C657465202D2D00696E7075743AC7
:10329C00200009206C65747465723A20007570000A
:1032AC00646F776E0062756D7075700062756D700D
:1032BC00646F776E0073657474696E672074696DE2
:1032CC006520746F20004A756C2032382032303102
:1032DC003300202D2D200031333A31333A30330076
:1032EC006E616E00696E66006F7666002E002000BF
:1032FC00390400000A00080009000B000C00030050
:10330C0004000500060007000E006400EE02F40144
:10331C00010000000082028802A1029102F1050066
:10332C000000000A0CA00CA00BD10BB10BFA0B0087
:10333C0000000050111F11D810E110F610071100F9
:00000001FF
