:100000000C946B000C9493000C9493000C9493004C
:100010000C9493000C9493000C9493000C94930014
:100020000C9493000C9493000C9493000C94930004
:100030000C9493000C9493000C9493000C949300F4
:100040000C94FE0D0C9493000C949E0F0C94EC0FEA
:100050000C9493000C9493000C9493000C949300D4
:100060000C940F1A0C949300000000002400270049
:100070002A0000000000250028002B0000000000DE
:1000800023002600290004040404040404040202DA
:100090000202020203030303030301020408102007
:1000A0004080010204081020010204081020000012
:1000B0000007000201000003040600000000000029
:1000C00000001F1C1F1E1F1E1F1F1E1F1E1F680358
:1000D00058114016610311241FBECFEFD8E0DEBFD8
:1000E000CDBF13E0A0E0B1E0E6E1FEE302C0059081
:1000F0000D92A83BB107D9F715E0A8EBB3E001C01A
:100100001D92AF3AB107E1F710E0C4EDD0E004C0B2
:100110002297FE010E94FA1ECE3CD107C9F70E9429
:10012000EF0D0C94CD020C940000CF93DF93BC0133
:100130008230910510F462E070E0A091AD05B091BD
:10014000AE05ED01E0E0F0E040E050E021C0888144
:1001500099818617970769F48A819B81309719F0F6
:100160009383828304C09093AE058093AD05FE0116
:1001700034C06817790738F44115510519F0841710
:10018000950708F4AC01FE018A819B819C01E9017D
:100190002097E9F641155105A9F1CA01861B970B75
:1001A000049708F4BA01E0E0F0E02AC08D919C9138
:1001B000119784179507F9F46417750781F412965F
:1001C0008D919C911397309719F09383828304C08B
:1001D0009093AE058093AD05FD0132964CC0CA01E7
:1001E000861B970BFD01E80FF91F6193719302972E
:1001F0008D939C9340C0FD01828193819C01D90124
:100200001097A1F68091AB059091AC05892B41F434
:100210008091CA029091CB029093AC058093AB057C
:100220004091CC025091CD024115510541F44DB79A
:100230005EB78091C8029091C902481B590B20916A
:10024000AB053091AC05CA01821B930B861797074B
:1002500080F0AB014E5F5F4F8417950750F0420F5F
:10026000531F5093AC054093AB05F9016193719313
:1002700002C0E0E0F0E0CF01DF91CF910895CF938D
:10028000DF93009709F450C0EC0122971B821A8279
:10029000A091AD05B091AE05109709F140E050E096
:1002A000AC17BD0708F1BB83AA83FE0121913191F0
:1002B000E20FF31FAE17BF0779F48D919C91119750
:1002C000280F391F2E5F3F4F3983288312968D9157
:1002D0009C9113979B838A834115510571F4D093A8
:1002E000AE05C093AD0520C012968D919C911397D9
:1002F000AD01009711F0DC01D3CFFA01D383C283A3
:1003000021913191E20FF31FCE17DF0769F4888145
:100310009981280F391F2E5F3F4FFA0131832083C7
:100320008A819B8193838283DF91CF910895A0E09E
:10033000B0E0EDE9F1E00C94C91EEC01A880B980B1
:10034000CA80DB80A114B104C104D10441F484E269
:10035000A82E89EDB82E8BE5C82E87E0D82EC601D1
:10036000B5012DE133EF41E050E00E94A61E27EADF
:1003700031E440E050E00E94321E7B018C01C60156
:10038000B5012DE133EF41E050E00E94A61ECA0105
:10039000B9012CEE34EF4FEF5FEF0E94321E6E0D6D
:1003A0007F1D801F911F97FF04C0615070408040E7
:1003B0009048688379838A839B839B01AC015F7734
:1003C000B901CA01CDB7DEB7EAE00C94E51E0E9480
:1003D000970108958EEC92E00E9497010895609332
:1003E000CE027093CF028093D0029093D1020895F1
:1003F000A0E0B0E0EEEFF1E00C94C31E6C010097BA
:1004000029F4CB010E9495006C01C1C08EEF882EAB
:100410008FEF982E8C0C9D1C8601060F171F081558
:10042000190508F4B2C0F401A081B181A617B7077D
:10043000B8F0A530B10508F4AAC0CD01049786171D
:10044000970708F4A4C01297A61BB70BF801A19355
:10045000B193D4016D937C93CF010E943F0197C06B
:100460007B01EA1AFB0AEEEFFFEFEE0EFF1E3601EC
:100470006A0E7B1EC091AD05D091AE054424552473
:10048000AA24BB244AC0C615D705E1F54881598185
:100490004E155F05B8F1CA0104978E159F05B0F49B
:1004A0001296A40FB51FF401B183A0832A813B816A
:1004B0004114510431F0D20113963C932E931297BC
:1004C00066C03093AE052093AD0561C08A819B81E3
:1004D000F80193838283425050404E195F09518343
:1004E00040834114510431F0D20113961C930E93B2
:1004F000129704C01093AE050093AD05F40171830B
:10050000608345C088819981A816B90608F45C010A
:100510002E018A819B819C01E901209709F0B3CFCC
:100520008091AB059091AC0586159705E9F4A61668
:10053000B706D0F42091CC023091CD0221153105BF
:1005400041F42DB73EB78091C8029091C902281B93
:10055000390B02171307C8F41093AC050093AB05D1
:10056000D4016D937C9313C0CB010E949500EC01E4
:10057000009759F0F40140815181B6010E94D002E8
:10058000C6010E943F016E0102C0CC24DD24C601D9
:10059000CDB7DEB7E0E10C94DF1EF8940C94FE1E9C
:1005A000FB01DC0102C001900D9241505040D8F790
:1005B0000895FB01DC018D91019080190110D9F3A0
:1005C000990B0895FB01DC0101900D920020E1F7E9
:1005D0000895FC018DE893E0918380830895FC01E8
:1005E0008DE893E091838083CF010E94F9150895EF
:1005F000CF93DF93EC018B818F3F19F060E00E9475
:10060000490F8C8180778C8380E0DF91CF910895B2
:10061000CF93DF93EC018B818F3F19F061E00E9453
:10062000490F8C818068807F8C8380E0DF91CF913F
:100630000895CF93DF93EC018DE893E0998388834D
:100640006A834B831C821E821D8218861F824F3F45
:1006500041F0842F60E00E94490F8B8161E00E948D
:100660000A0FDF91CF91089581309105B1F46F5F4A
:100670007F4F31F589EB93E067E242E00E94190376
:100680008CEE93E060E071E00E94A91583EF93E0A7
:1006900061E071E00E94A9150895892B89F46F5FCC
:1006A0007F4F71F483EF93E00E94F3158CEE93E09B
:1006B0000E94F3158DE893E09093BA038093B903F9
:1006C000089580E090E06FEF7FEF0E94340308957B
:1006D00081E090E06FEF7FEF0E94340308952F9246
:1006E0003F924F925F926F927F928F929F92AF92C2
:1006F000BF92CF92DF92EF92FF920F931F93DF93FF
:10070000CF9300D000D000D0CDB7DEB729833A8395
:100710004B835C83170128016091040470910504E8
:10072000882777FD8095982F0E94C21C20E030E03A
:1007300040E751E40E94271C7B018C0120E030E05F
:1007400040E051E40E94CB1D0E94FD1C0E948F1CC2
:100750007093070460930604E092DC03F092DD03DB
:100760000093DE031093DF038091D8039091D903A7
:1007700064EF71E00E94711EFC01EE0FFF1FEE524C
:10078000FD4F8080918063E070E080E090E00E9407
:10079000E2140E94C21C0E94FD1C20E030E040E8F0
:1007A0005FE30E94BE1B0E948F1C7093DB0360936B
:1007B000DA03C201B1012091D4033091D5034091F5
:1007C000D6035091D7030E94C71D20916E0330912C
:1007D0006F0318161CF42150304002C02F5F3F4FAA
:1007E00030936F0320936E0369817A818B819C81A2
:1007F0002091D0033091D1034091D2035091D30383
:100800000E94C71D209170033091710318161CF4CB
:100810002150304002C02F5F3F4F3093710320932F
:10082000700380916E0390916F038B30910514F0EB
:100830008AE090E097FF02C080E090E090936F0321
:1008400080936E0380917003909171038B309105BA
:1008500014F08AE090E097FF02C080E090E090936F
:10086000710380937003A8E76A2EA3E07A2ECC244C
:10087000DD24F6E0AF2EB12CE090DC03F090DD0338
:100880000091DE031091DF0365E070E080E090E00E
:100890000E94E2149B01AC01809106049091070430
:1008A000C816D906A4F5CA01B9010E94C21C9B0151
:1008B000AC01C801B7010E94CB1D0E94FD1C4091F4
:1008C000DA035091DB0320916E0330916F03429F56
:1008D0008001439F100D529F100D11240E948F1C08
:1008E000060F171FC801880D991D65E070E00E9472
:1008F000711E9C01D30111969C938E9397FF0AC0A1
:1009000088279927821B930B8D939C9303C0F30137
:10091000B182A0820894C11CD11C42E050E0640E58
:10092000751E58E0C516D10409F0A6CFE8E0EE2EFA
:10093000E4E0FE2E78E1672E74E0772E68E2862EE2
:1009400064E0962E1E821D82A090DC03B090DD0331
:10095000C090DE03D090DF0360917003709171034B
:10096000882777FD8095982F0E94C21C20E030E0F8
:1009700040EC50E40E94CB1D0E948F1C0E94E214A8
:100980009B01AC0180910604909107046D817E81EA
:10099000681779070CF04DC0009170031091710336
:1009A0000115110521F4D7016D937C9323C0CA0171
:1009B000B9010E94C21C9B01AC01C601B5010E9495
:1009C000CB1D0E94FD1C9801220F331F200F311FE9
:1009D000220F331FED81FE812E9F80012F9F100D6E
:1009E0003E9F100D11240E948F1C060F171FD70168
:1009F0000D931C93F70100811181B801882777FDC1
:100A00008095982F0E94C21C20E030E040E752E41D
:100A10000E94271C0E94FD1C0E948F1CD3016D9315
:100A20007C93C8016CE370E00E94711EF401918315
:100A300080834D815E814F5F5F4F5E834D8362E0B7
:100A400070E0E60EF71E660E771E860E971E483083
:100A5000510509F079CF2092D4033092D50340920A
:100A6000D6035092D70389819A81AB81BC81809350
:100A7000D0039093D103A093D203B093D30380917A
:100A8000D8039091D90301969093D9038093D8030A
:100A900026960FB6F894DEBF0FBECDBFCF91DF9183
:100AA0001F910F91FF90EF90DF90CF90BF90AF908C
:100AB0009F908F907F906F905F904F903F902F907E
:100AC0000895AF92BF92CF92DF92EF92FF920F9371
:100AD0001F93809160030E94E80E00D000D0AA27E7
:100AE00097FDA095BA2F2FEF30E040E050E0EDB732
:100AF000FEB72183328343835483BC01CD0129E1B6
:100B000030E040E050E01AECE12E13E0F12E012D30
:100B1000112DAA24BB2465010E9499140F900F90F7
:100B20000F900F906F3F710519F014F06FEF70E0A8
:100B300077FF02C060E070E0CB011F910F91FF9042
:100B4000EF90DF90CF90BF90AF9008950F931F93D9
:100B5000CF93DF93EC018C8187FD05C0807F83609C
:100B60008C8383E088C081E395E06A810E94FC1554
:100B700081E395E00E94CB16082F10E001151105C6
:100B800009F067C06AE070E080E090E00E94540ED7
:100B900081E395E06A8144E00E94E01681E395E0FC
:100BA0000E941016892B09F44EC081E395E00E9443
:100BB0001916182F81E395E00E941916282F812F0E
:100BC00090E0AC0166E0559547956A95E1F74130B4
:100BD00059F1413018F04230A9F62BC08F73907054
:100BE000982F882730E0822B932B9E838D8381E37F
:100BF00095E00E941916182F81E395E00E941916BE
:100C0000312F20E090E0282B392B3695279536950B
:100C1000279538872F8381E395E00E94CB168C813E
:100C2000807F8C8380E027C081E395E00E94CB1613
:100C3000A9CF81E395E00E94CB168C81807F8460F0
:100C40008C8384E018C08C81807F82608C8382E0FA
:100C500012C089EC94E066E071E00E94421389ECD6
:100C600094E0B8014AE050E00E9423138C81807F19
:100C700081608C8381E0DF91CF911F910F91089566
:100C80000F931F9309EB13E0C8010E940803C801EA
:100C90000E94A6056091C0037091C10380E090E0BE
:100CA0000E94C01C20E038EF4FE756E40E94271C4A
:100CB00020E030E045E253E40E94CB1D20E030E02C
:100CC00040E252E40E94BE1B1F910F9108950F93C2
:100CD0001F9309EB13E0C8010E940803C8010E949A
:100CE000A6056091BE037091BF0380E090E00E9472
:100CF000C01C20E038EF4FE756E40E94271C1F91EC
:100D00000F910895CF92DF92EF92FF920F931F936E
:100D1000DF93CF93CDB7DEB72C970FB6F894DEBF35
:100D20000FBECDBF6C0189EC94E06AE071E00E94D7
:100D3000421389EC94E0B6010E948514C60164E177
:100D400071E00E941D15882339F4C6016DE171E040
:100D50000E941D158823E1F089EC94E061E271E0C6
:100D60000E94421389EC94E063EF73E00E945214F6
:100D700089EC94E063E371E00E9442136091C30345
:100D80007091C40389EC94E04AE050E00E94231380
:100D9000C6016BE471E00E941D15882339F4C60179
:100DA0006DE171E00E941D15882359F189EC94E0F2
:100DB00065E571E00E9442137AEFE72E73E0F72EAB
:100DC00000E010E0F7016081718189EC94E04AE075
:100DD00050E00E9410130430110531F089EC94E0CA
:100DE00063E671E00E9442130F5F1F4F82E090E0C4
:100DF000E80EF91E0530110529F789EC94E00E94F0
:100E0000E011C60167E671E00E941D15882341F4D8
:100E1000C6016DE171E00E941D15882309F461C0CF
:100E200089EC94E06DE671E00E9442130E94FF1786
:100E30002F83388749875A876B877C87DE01119615
:100E4000FE01379686E001900D928150E1F76981AD
:100E500070E06053784F89EC94E04AE050E00E94E3
:100E60008F1289EC94E06FE20E94D81189EC94E033
:100E70006A814AE050E00E94A01289EC94E06FE29F
:100E80000E94D81189EC94E06B814AE050E00E9406
:100E9000A01289EC94E060E20E94D81189EC94E001
:100EA0006C814AE050E00E94A01289EC94E06AE371
:100EB0000E94D81189EC94E06D814AE050E00E94D4
:100EC000A01289EC94E06AE30E94D81189EC94E0C6
:100ED0006E814AE050E00E94A01289EC94E00E94EA
:100EE000E011C60167E771E00E941D15882339F4FF
:100EF000C6016DE171E00E941D15882341F18091CA
:100F000062030E94E80EAA2797FDA095BA2FBC01A4
:100F1000CD010E94C21C6093CC037093CD038093DB
:100F2000CE039093CF0389EC94E06DE771E00E94CB
:100F300042134091CC035091CD036091CE03709148
:100F4000CF0389EC94E022E030E00E942C14C6012B
:100F500061E971E00E941D15882341F4C6016DE12D
:100F600071E00E941D15882309F478C089EB93E095
:100F70000E94080389EB93E00E94A60589EC94E0A7
:100F800065E971E00E9442136091BE037091BF0356
:100F900080E090E00E94C01C20E038EF4FE756E46C
:100FA0000E94271CAB01BC0189EC94E025E030E0F5
:100FB0000E94291489EC94E062EA71E00E944213D5
:100FC0006091BE037091BF0389EC94E04AE050E069
:100FD0000E948F1289EC94E068EA71E00E943F144D
:100FE00089EC94E06AEA71E00E9442136091C003C8
:100FF0007091C10380E090E00E94C01C20E038EFB7
:101000004FE756E40E94271C20E030E045E253E41D
:101010000E94CB1D20E030E040E252E40E94BE1B63
:10102000AB01BC0189EC94E025E030E00E9429147A
:1010300089EC94E06AEB71E00E9442136091C00376
:101040007091C10389EC94E04AE050E00E948F1255
:1010500089EC94E068EA71E00E943F142C960FB688
:10106000F894DEBF0FBECDBFCF91DF911F910F91DE
:10107000FF90EF90DF90CF9008950F931F93DF9331
:10108000CF93CDB7DEB727970FB6F894DEBF0FBE6C
:10109000CDBF80914A0361E00E94490F80914C03CB
:1010A00061E00E940A0F80914A0361E00E940A0FEA
:1010B00080914E0361E00E940A0F8091500361E02D
:1010C0000E940A0F8091520361E00E940A0F8091F2
:1010D000540361E00E940A0F8091640390916503BC
:1010E0000E94041506E513E0F801808161E00E948A
:1010F0000A0F0E5F1F4FF3E000361F07A9F780911C
:10110000600360E00E940A0F0E94460E6093E003B5
:101110007093E1038093E2039093E30381E395E00E
:101120000E94E4160E94FD1789EC94E040E855E225
:1011300060E070E00E94271088EB93E00E94B818EE
:10114000882331F489EC94E06FEB71E00E943F1446
:101150000E9440066093D4037093D5038093D60316
:101160009093D7030E9467066093D0037093D103D6
:101170008093D2039093D3038E010F5F1F4FC8015A
:101180006DE171E00E94A915C8010E948206C801A4
:101190000E94F3156AEF70E080E090E00E94540E28
:1011A00089EC94E063ED71E00E943F1427960FB63E
:1011B000F894DEBF0FBECDBFCF91DF911F910F918D
:1011C00008951F93CF93DF93DC01EB014836A9F01C
:1011D000493650F4413309F451C0413609F43FC057
:1011E000403309F062C051C04437B1F0453709F4CB
:1011F00042C0403709F059C036C015966D917C91B8
:10120000169780E090E00E94C01C20E038EF4FE786
:1012100056E40E94271C1AC017966D917C9118976E
:1012200080E090E00E94C01C20E038EF4FE756E4D9
:101230000E94271C20E030E045E253E40E94CB1DD1
:1012400020E030E040E252E40E94BE1BAB01BC0152
:10125000CE0122E030E00E942C1410E02DC0CB0122
:1012600012966C9103C0CB0113966C914AE050E04A
:101270000E94B212F2CF0E94A6050FC0ED91FC9120
:1012800011970480F581E02D06C0ED91FC91119736
:101290000680F781E02DCD010995182FCE01612F31
:1012A0004AE050E00E94B21207C0CE016EEF4AE061
:1012B00050E00E94B2121EEF812FDF91CF911F915B
:1012C00008958F929F92AF92BF92CF92DF92EF924A
:1012D000FF920F931F93DF93CF93CDB7DEB7C35425
:1012E000D0400FB6F894DEBF0FBECDBF0E9461059F
:1012F0009093C4038093C30380914C036091C20315
:101300000E94490F0E94FF172EAF3FAFFE01E05C25
:10131000FF4F4083FE01EF5BFF4F5083FE01EE5B0A
:10132000FF4F6083FE01ED5BFF4F7083DE0111967E
:10133000FE01FE9686E001900D928150E1F78C81CE
:10134000883008F429C1873108F026C11092CB03F8
:1013500090E007979093050480930404CE010196D2
:101360000E94C0172091C7033091C8034091C90360
:101370005091CA03621773078407950709F40AC1DD
:1013800090E08091C203882309F491E09093C20316
:101390009C819C30E0F58D818823C9F58E8188235E
:1013A000B1F5C0906A03D0906B03892F90E0079746
:1013B00064E070E00E94711E882777FD8095982F69
:1013C0000E94C21C7B018C0180916C0390916D0383
:1013D000B601681B790B882777FD8095982F0E94AE
:1013E000C21C9B01AC01C801B7010E94CB1D0E9429
:1013F000FD1C0E948F1CC61AD70AD0926703C092A8
:10140000660383EF93E068EE71E00E94C3156C8180
:101410006331D8F18D818823C1F58E818823A9F5A8
:10142000C0906C03D0906D0370E062517040759570
:10143000679575956795882777FD8095982F0E9409
:10144000C21C7B018C0160916A0370916B036C1963
:101450007D09882777FD8095982F0E94C21C9B01EB
:10146000AC01C801B7010E94CB1D0E94FD1C0E9467
:101470008F1C6C0D7D1D709369036093680383EF6F
:1014800093E060EF71E00E94C3158C818C3070F0A6
:10149000833160F48D81882349F48E81882331F46F
:1014A00083EF93E066EF71E00E94C3158C818C306E
:1014B00070F0833160F48D81813049F48E8188230E
:1014C00031F483EF93E068EE71E00E94C3158E81E2
:1014D000882391F49C808D800E9467065B016C01DB
:1014E0000E9440067B018C01892D90E0682D70E000
:1014F000A60195010E946F0340E050E0A1E0B0E03A
:1015000011E08D816FE00E94511E892F90E0FA0159
:10151000E85EFB4F2081318182179307D9F48E81D9
:1015200090E0FA01E85DFB4F20813181821793073B
:1015300089F4FA01E858FC4F0190F081E02DE63083
:10154000F10541F0EE0FFF1FE650FC4FB183A08381
:101550001093CB034E5F5F4F4031510591F6809160
:10156000CB03882351F00E94460E6093E8037093EA
:10157000E9038093EA039093EB03CE0101960E9466
:10158000C0176093C7037093C8038093C9039093F7
:10159000CA0302C01092CB038C81883028F4E8E79C
:1015A000F3E086E090E003C08731C8F717C081936D
:1015B000919323E0E838F207D1F72091C3033091EB
:1015C000C40380916A0390916B032817390731F0A7
:1015D00083EF93E066EF71E00E94C31589EC94E01D
:1015E0000E94AE10181619060CF05CC189EC94E04C
:1015F0000E94DF107C010E94460E6093E00370930E
:10160000E1038093E2039093E30389EC94E069EFB4
:1016100071E00E94421389EC94E0B7014AE050E087
:101620000E94101389EC94E061E072E00E94421382
:1016300089EC94E06E2D0E94181189EC94E00E94D0
:10164000E011F701F197E530F10500F5EE0FFF1F0E
:10165000E650FC4F81E090E0918380830E94460E2B
:101660006093E8037093E9038093EA039093EB039C
:101670008E01035F1F4FC8016BE471E00E94A91542
:10168000C8010E948206C8010E94F3158BE6E81685
:10169000F10409F458C09CE6E916F10444F5E1E6CA
:1016A000EE16F10409F494C0F2E6EF16F10484F4A6
:1016B00022E5E216F10409F4BDC084E5E816F10460
:1016C00009F4BEC090E2E916F10409F0E5C0DEC0FD
:1016D000E9E6EE16F10491F1FAE6EF16F1040CF0EA
:1016E00062C028E6E216F10409F0D6C09CC083E788
:1016F000E816F10409F473C094E7E916F1047CF4E8
:10170000EFE6EE16F10421F1F1E7EF16F10409F42A
:1017100083C02CE6E216F10409F0BEC01EC085E7C6
:10172000E816F10459F195E7E916F1040CF466C0E6
:10173000E9E7EE16F10409F0AFC067C083EF93E06C
:1017400066EF71E0A7C083EF93E06CE072E0A2C0A7
:1017500083EF93E061E172E004C083EF93E068E11E
:1017600072E00E94C3150E94460E6093E4037093DA
:10177000E5038093E6039093E7038EC089EC94E041
:1017800061E272E00E944213609168037091690304
:1017900089EC94E04AE050E00E94231383EF93E049
:1017A00060EF71E077C089EC94E06CE272E00E9437
:1017B0004213609166037091670389EC94E04AE0FC
:1017C00050E00E94231383EF93E068EE71E062C063
:1017D0008E010C5E1F4FC80164E171E006C08E01EE
:1017E000055E1F4FC8016BE471E00E94A915C80196
:1017F0000E948206C8010E94F3154EC08E010E5D44
:101800001F4FC80167E671E0F0CF8E01075D1F4FE3
:10181000C80167E771E0E9CF8E01005D1F4FC80185
:101820006DE171E0E2CF8E01095C1F4FC80161E9F3
:1018300071E0DBCF80914A0360E00E94490F2CC029
:1018400089EC94E069E372E00E94421389EC94E031
:101850006AE472E00E94421389EC94E066E572E06B
:101860000E94421389EC94E06BE572E00E943F1401
:101870008E01095F1F4FC8016AE472E04BE552E038
:101880000E942317C8010E94DE1806C083EF93E070
:1018900061E071E00E94C3158CEE93E063EF73E0AA
:1018A0000E94DC150E94460E2091E0033091E10376
:1018B0004091E2035091E303621B730B840B950B81
:1018C0002091760330917703442737FD4095542FBC
:1018D0002617370748075907F0F42091C3033091C2
:1018E000C4032B3F3105BCF08091C5039091C60322
:1018F0002817390731F483EF93E061E071E00E942B
:10190000C3150E94460E6093E0037093E103809339
:10191000E2039093E30383EF93E061E071E00E94C0
:101920001D158823E1F08091520360E00E94490F69
:101930008091540360E00E94490F8091500360E061
:101940000E94490F80914E0360E00E94490F0AEF08
:1019500013E0E6E58E2EE3E09E2E7401E6C083EFF1
:1019600093E066EF71E00E941D15882309F097C08F
:1019700083EF93E06CE072E00E941D158823B1F0C4
:101980008091C3039091C403803B91050CF469C01E
:101990008091540361E00E94490F80914E0360E002
:1019A0000E94490F8091500361E0CFCF83EF93E015
:1019B00061E172E00E941D15882369F08091520355
:1019C00061E00E94490F80914E0361E00E94490F3F
:1019D0008091500320C083EF93E068E172E00E94A1
:1019E0001D15882309F448C02091C3033091C40316
:1019F00080916C0390916D038217930794F5809109
:101A0000540361E00E94490F8091500361E00E94FD
:101A1000490F80914E0360E00E94490F0E94460EDC
:101A20002091E4033091E5034091E6035091E703F0
:101A3000621B730B840B950B20917403309175031B
:101A4000442737FD4095542F261737074807590775
:101A500008F07DCF83EF93E061E071E00E94C31551
:101A600076CF83EF93E061E071E00E94C31589ECCB
:101A700094E064E672E056C083EF93E060EF71E0BB
:101A80000E941D15882339F12091C3033091C403AE
:101A90008091680390916903281739076CF480914D
:101AA000520361E00E94490F80914E0361E00E9461
:101AB000490F8091500348CF83EF93E061E071E0DC
:101AC0000E94C31589EC94E068E772E00E943F141D
:101AD000809152032FCF83EF93E068EE71E00E9474
:101AE0001D15882309F433CF2091C3033091C4031B
:101AF0008091660390916703821793074CF480915D
:101B0000540361E00E94490F8091500361E018CFB7
:101B100083EF93E061E071E00E94C31589EC94E0EB
:101B200068E972E00E943F1403CFF801808191813F
:101B3000892B41F0F701808161E00E94490FF80193
:101B4000118210820E5F1F4F82E090E0E80EF91EB6
:101B500094E00430190749F70E94460E2091E803EB
:101B60003091E9034091EA035091EB03621B730B40
:101B7000840B950B2091720330917303442737FD3A
:101B80004095542F261737074807590770F4F4017A
:101B9000808160E00E94490F82E090E0880E991EEB
:101BA00090E6891693E0990691F76AE070E080E08C
:101BB00090E00E94540ECD5BDF4F0FB6F894DEBF6D
:101BC0000FBECDBFCF91DF911F910F91FF90EF908E
:101BD000DF90CF90BF90AF909F908F900895CF935C
:101BE000DF930E94AD0E0E943D08C9EDDFE00E9428
:101BF00061092097E1F30E94D90FF9CF1F920F924C
:101C00000FB60F9211242F933F938F939F93AF930F
:101C1000BF9380913C0490913D04A0913E04B0910B
:101C20003F04309140040196A11DB11D232F2D5F6B
:101C30002D3720F02D570196A11DB11D2093400492
:101C400080933C0490933D04A0933E04B0933F04E2
:101C50008091380490913904A0913A04B0913B04EA
:101C60000196A11DB11D8093380490933904A0936F
:101C70003A04B0933B04BF91AF919F918F913F91F4
:101C80002F910F900FBE0F901F9018958FB7F8945B
:101C900020913C0430913D0440913E0450913F041A
:101CA0008FBFB901CA0108959B01AC017FB7F894B9
:101CB0008091380490913904A0913A04B0913B048A
:101CC00066B5A89B05C06F3F19F00196A11DB11D17
:101CD0007FBFBA2FA92F982F8827860F911DA11D8E
:101CE000B11D62E0880F991FAA1FBB1F6A95D1F72B
:101CF000BC012DC0FFB7F89480913804909139044D
:101D0000A0913A04B0913B04E6B5A89B05C0EF3F13
:101D100019F00196A11DB11DFFBFBA2FA92F982F51
:101D200088278E0F911DA11DB11DE2E0880F991F1C
:101D3000AA1FBB1FEA95D1F7861B970B885E9340BD
:101D4000C8F2215030404040504068517C4F21152E
:101D500031054105510571F60895789484B5826086
:101D600084BD84B5816084BD85B5826085BD85B53F
:101D7000816085BDEEE6F0E0808181608083E1E8EE
:101D8000F0E0108280818260808380818160808326
:101D9000E0E8F0E0808181608083E1EBF0E0808129
:101DA00084608083E0EBF0E0808181608083EAE7FB
:101DB000F0E0808184608083808182608083808184
:101DC000816080838081806880831092C100089543
:101DD000982F8E3008F09E509770809188038295DE
:101DE000880F880F807C892B80937C0080917A00FB
:101DF000806480937A0080917A0086FDFCCF2091E8
:101E0000780040917900942F80E030E0282B392B26
:101E1000C9010895CF93DF93482F50E0CA01865639
:101E20009F4FFC0134914A575F4FFA0184918823F8
:101E300069F190E0880F991FFC01E859FF4FA591C7
:101E4000B491FC01EE58FF4FC591D491662351F433
:101E50002FB7F8948C91932F909589238C93888138
:101E600089230BC0623061F42FB7F8948C91932FC3
:101E7000909589238C938881832B88832FBF06C0FC
:101E80009FB7F8948C91832B8C939FBFDF91CF9158
:101E90000895482F50E0CA0182559F4FFC012491BC
:101EA000CA0186569F4FFC0194914A575F4FFA0131
:101EB0003491332309F440C0222351F1233071F0CF
:101EC000243028F42130A1F0223011F514C026303E
:101ED000B1F02730C1F02430D9F404C080918000E3
:101EE0008F7703C0809180008F7D8093800010C029
:101EF00084B58F7702C084B58F7D84BD09C0809181
:101F0000B0008F7703C08091B0008F7D8093B000C8
:101F1000E32FF0E0EE0FFF1FEE58FF4FA591B491B5
:101F20002FB7F894662321F48C919095892302C0F1
:101F30008C91892B8C932FBF089508951F920F9237
:101F40000FB60F9211242F933F934F938F939F932C
:101F5000EF93FF938091C00082FD1DC04091C600A9
:101F600020918104309182042F5F3F4F2F73307096
:101F700080918304909184042817390771F0E091CF
:101F80008104F0918204EF5BFB4F40833093820425
:101F90002093810402C08091C600FF91EF919F9130
:101FA0008F914F913F912F910F900FBE0F901F90E7
:101FB0001895E091D504F091D604E05CFF4F819133
:101FC000919120813181821B930B8F739070892BAB
:101FD00011F00E949D0F08951F920F920FB60F925D
:101FE00011242F933F938F939F93EF93FF9320910F
:101FF000C5043091C6048091C7049091C804281785
:10200000390731F48091C1008F7D8093C10014C0E5
:10201000E091C704F091C804EB57FB4F20818091F9
:10202000C7049091C80401968F7390709093C80470
:102030008093C7042093C600FF91EF919F918F91E9
:102040003F912F910F900FBE0F901F901895AF9258
:10205000BF92DF92EF92FF920F931F93CF93DF9384
:10206000EC017A018B01DD24403081EE580780E0DD
:10207000680780E0780711F0DD24D39491E0A92E61
:10208000B12CEC89FD89DD2069F0C50108A002C0F2
:10209000880F991F0A94E2F7808360E079E08DE36E
:1020A00090E005C0108260E874E88EE190E0A8013D
:1020B00097010E94841E2150304040405040569568
:1020C00047953795279580E12030380720F0DD20AF
:1020D00011F0DD24D6CFE889F9893083EA89FB89BC
:1020E000208319A2EE89FF89408121E030E0C901F7
:1020F0000C8C02C0880F991F0A94E2F7482B40838A
:10210000EE89FF894081C9010D8C02C0880F991F9B
:102110000A94E2F7482B4083EE89FF894081C90188
:102120000E8C02C0880F991F0A94E2F7482B408357
:10213000EE89FF8980810F8C02C0220F331F0A9421
:10214000E2F7209528232083DF91CF911F910F91F3
:10215000FF90EF90DF90BF90AF900895DC011C9648
:10216000ED91FC911D97E05CFF4F219131918081B1
:102170009181281B390B2F733070C9010895DC0140
:102180001C96ED91FC911D97E05CFF4F2081318101
:10219000E054F040DF01AE5BBF4F8D919C911197F1
:1021A0002817390719F42FEF3FEF07C08D919C9145
:1021B000E80FF91F8081282F30E0C9010895DC0164
:1021C0001C96ED91FC911D97E05CFF4F20813181C1
:1021D000E054F040DF01AE5BBF4F8D919C911197B1
:1021E0002817390719F42FEF3FEF10C08D919C91FC
:1021F0001197E80FF91F20818D919C9111970196FD
:102200008F73907011969C938E9330E0C90108955E
:10221000DC0191968C919197882339F05496ED9139
:10222000FC915597808186FFF9CF91961C92089575
:10223000CF93DF93EC01EE85FF85E05CFF4F2081BB
:102240003181E054F0402F5F3F4F2F733070DF013A
:10225000AE5BBF4F8D919C91119728173907D1F331
:10226000E05CFF4F80819181E054F040E80FF91F5E
:102270006083EE85FF85E05CFF4F31832083EE892C
:10228000FF89208181E090E00F8C02C0880F991FA8
:102290000A94E2F7282B208381E089A3EC89FD8949
:1022A00080818064808381E090E0DF91CF91089508
:1022B0001092CC041092CB0488EE93E0A0E0B0E042
:1022C0008093CD049093CE04A093CF04B093D00418
:1022D0008BE993E09093CA048093C90481E494E06D
:1022E0009093D6048093D50485E894E09093D80425
:1022F0008093D70485EC90E09093DA048093D9041E
:1023000084EC90E09093DC048093DB0480EC90E01C
:102310009093DE048093DD0481EC90E09093E004E0
:102320008093DF0482EC90E09093E2048093E104D8
:1023300086EC90E09093E4048093E30484E080933F
:10234000E50483E08093E60487E08093E70485E07A
:102350008093E80481E08093E9040895CF92DF92AE
:10236000EF92FF920F931F93CF93DF937C016B014A
:102370008A01C0E0D0E00FC0D6016D916D01D70198
:10238000ED91FC910190F081E02DC7010995C80FF6
:10239000D91F015010400115110571F7CE01DF91D1
:1023A000CF911F910F91FF90EF90DF90CF90089504
:1023B000DC01ED91FC910190F081E02D09950895EB
:1023C000EF92FF920F931F938C01DC01ED91FC9132
:1023D0000190F081E02D6DE009957C01D801ED912F
:1023E000FC910190F081E02DC8016AE009959C0103
:1023F0002E0D3F1DC9011F910F91FF90EF90089581
:10240000CF93DF93EC016115710519F420E030E002
:102410000FC0DB010D900020E9F71197A61BB70B49
:10242000E881F9810280F381E02DAD0109959C01DD
:10243000C901DF91CF9108954F925F927F928F9261
:102440009F92AF92BF92CF92DF92EF92FF920F9343
:102450001F93DF93CF93CDB7DEB7A1970FB6F89454
:10246000DEBF0FBECDBF2C01742ECB01223008F48D
:102470002AE019A231E2C32ED12CCC0EDD1E822E11
:102480009924AA24BB24672D752FA50194010E94CD
:10249000841E79018A01C801B701A50194010E9437
:1024A000321E472D461B0894C108D1084A3014F447
:1024B000405D01C0495CF6014083E114F10401056F
:1024C000110521F07E2C5F2DC801DDCFC201B601C0
:1024D0000E940012A1960FB6F894DEBF0FBECDBFCA
:1024E000CF91DF911F910F91FF90EF90DF90CF90F0
:1024F000BF90AF909F908F907F905F904F90089586
:10250000DC012115310541F4ED91FC910190F08140
:10251000E02D642F099508950E941C120895EF92F2
:10252000FF920F931F939A017B0100E010E0B80126
:10253000A7010E9480121F910F91FF90EF900895C4
:10254000EF92FF920F931F939A01E62EFF2400E073
:1025500010E0B801A7010E9480121F910F91FF9017
:10256000EF900895CF92DF92EF92FF920F931F9317
:102570006C01E62E9A01FF2400E010E0B801A701EB
:102580000E9480128C01C6010E94E011080F191FE1
:10259000C8011F910F91FF90EF90DF90CF900895A9
:1025A000CF92DF92EF92FF920F931F93CF93DF931F
:1025B000EC016A017B012115310541F4E881F981C3
:1025C0000190F081E02D642F09951FC02A3031055C
:1025D000D1F477FF17C0E881F9810190F081E02DF7
:1025E0006DE209958C0144275527BA014C195D0904
:1025F0006E097F09CE012AE00E941C129801280F63
:10260000391F04C02AE00E941C129C01C901DF91FD
:10261000CF911F910F91FF90EF90DF90CF90089591
:10262000EF92FF920F931F937B019A010027F7FC13
:102630000095102FB801A7010E94D0121F910F9191
:10264000FF90EF900895CF92DF92EF92FF920F9359
:102650001F936C017B019A010027F7FC0095102F56
:10266000B801A7010E94D0128C01C6010E94E0119E
:10267000080F191FC8011F910F91FF90EF90DF9075
:10268000CF9008950E94001208957F928F929F929A
:10269000AF92BF92CF92DF92EF92FF920F931F9370
:1026A000CF93DF934C017A018B01722ECB01BA01DB
:1026B000A80197010E942E1E882321F0C4016AEB15
:1026C00072E021C0C0E0D0E057016801E894D7F87B
:1026D000C601B5012FEF3FEF4FE75FE70E942E1EC7
:1026E000882351F4C601B5012FEF3FEF4FE75FE7B5
:1026F0000E94231C181614F0C1E0D0E0219739F095
:10270000C4016EEB72E00E940012EC0193C0C8019C
:10271000B7012FEF3FEF4FE75FE40E94C71D181688
:1027200054F0C801B7012FEF3FEF4FE75FEC0E9475
:10273000231C882324F4C40162EC72E0E4CFC801B6
:10274000B70120E030E040E050E00E94231C87FD0C
:1027500003C0C0E0D0E00EC0D401ED91FC91019027
:10276000F081E02DC4016DE20995EC0117FB109595
:1027700017F9109520E030E040E05FE3DD240BC066
:10278000CA01B90120E030E040E251E40E94271C78
:102790009B01AC01D394D71498F3C801B7010E94F0
:1027A000BF1B5B016C010E94941C7B018C01C40166
:1027B000B801A7012AE030E00E948012C80FD91F9B
:1027C000772039F0C40166EC72E00E940012C80F55
:1027D000D91FC801B7010E94C01C9B01AC01C601F2
:1027E000B5010E94BE1B24C020E030E040E251E46D
:1027F0000E94CB1D7B018C010E948F1C5B016C0130
:10280000CC24B7FCC094DC2CC401B601A5012AE09D
:1028100030E00E94D012C80FD91FC601B5010E9436
:10282000C21C9B01AC01C801B7010E94BE1B7A9477
:102830007720D1F6CE01DF91CF911F910F91FF90BC
:10284000EF90DF90CF90BF90AF909F908F907F9050
:1028500008950E9445130895EF92FF920F931F93DE
:102860007C010E9445138C01C7010E94E011080FF2
:10287000191FC8011F910F91FF90EF900895EF92DB
:10288000FF920F931F937C010E9400128C01C701DD
:102890000E94E011080F191FC8011F910F91FF90AE
:1028A000EF900895AF92BF92CF92DF92EF92FF9296
:1028B0000F931F93CF93DF935C016B01EE24FF24F2
:1028C000C0E0D0E010C0D501ED91FC9100811181F4
:1028D000C601BE010E940C15682FC501F8010995BB
:1028E000E80EF91E2196F60184819581C817D90753
:1028F00050F3C701DF91CF911F910F91FF90EF909F
:10290000DF90CF90BF90AF900895EF92FF920F931A
:102910001F937C010E9452148C01C7010E94E01198
:102920009C01200F311FC9011F910F91FF90EF9063
:1029300008952F923F924F925F926F927F928F9263
:102940009F92AF92BF92CF92DF92EF92FF920F933E
:102950001F93DF93CF93CDB7DEB73B014C01190135
:102960002A016D897E898F89988D6A197B098C0966
:102970009D09621A730A840A950AA40193010E94B0
:10298000321EE218F30804091509A80197010E94F4
:10299000A61E2A0D3B1D4C1D5D1DB901CA01CF911C
:1029A000DF911F910F91FF90EF90DF90CF90BF903C
:1029B000AF909F908F907F906F905F904F903F90DF
:1029C0002F900895EF92FF920F931F937B018C013C
:1029D000611571058105910529F420E030E040E0A2
:1029E00050E00BC00E94EA01A80197010E94A61EB8
:1029F000AC01CB01DA019C01AD01B901CA011F9103
:102A00000F91FF90EF900895009729F0BC0180E0AE
:102A100090E00E94EF010895FC0184819581681780
:102A2000790748F40190F081E02D309721F0E60F0E
:102A3000F71F8081089580E00895DC01FB01149662
:102A40008D919C911597892B31F461157105A9F031
:102A500090E0808108C00D90BC91A02D611571059A
:102A600029F490E08C91882349F407C0CD010E949D
:102A7000D9029C0190E0232B09F491E0892F08955D
:102A80000F931F93CF93DF93EC018B016F5F7F4F09
:102A9000888199810E94F801009711F480E005C0B7
:102AA000998388831B830A8381E0DF91CF911F91F3
:102AB0000F910895CF93DF93EC0188819981892B41
:102AC00029F08A819B818617970760F4CE010E94C6
:102AD0004015882341F08C819D81892B19F4E88170
:102AE000F981108281E0DF91CF910895CF93DF9338
:102AF000EC0188819981009711F00E943F011982B1
:102B000018821D821C821B821A82DF91CF91089548
:102B1000EF92FF920F931F93CF93DF93EC017B0112
:102B20008A01BA010E945A15882321F4CE010E941D
:102B3000761507C01D830C8388819981B7010E9497
:102B4000E202CE01DF91CF911F910F91FF90EF90A4
:102B50000895CF93DF93EC01198218821B821A82A9
:102B60001D821C821E826115710551F0DB010D90E2
:102B70000020E9F71197A61BB70BAD010E9488153D
:102B8000DF91CF9108950F931F93182F092F61158F
:102B9000710559F0DB010D900020E9F71197A61B94
:102BA000B70BAD010E94881502C00E947615812FD7
:102BB000902F1F910F910895CF93DF93EC01FB01AC
:102BC0008617970761F0608171816115710529F0A1
:102BD000448155810E94881502C00E947615CE015D
:102BE000DF91CF910895FC01808191810E943F0186
:102BF00008950E943F01089581E08093300560931D
:102C00000D0510922E0510922F05089581E08093F6
:102C1000300560930D0510922E0510922F05089532
:102C200020910C0530E080910B05281B3109C9016A
:102C3000089540910B0580910C05481718F02FEF6F
:102C40003FEF0AC0E42FF0E0E551FB4F8081282FD1
:102C500030E04F5F40930B05C9010895E0910B05EB
:102C600080910C05E81718F0EFEFFFEF06C0F0E0D9
:102C7000E551FB4F8081E82FF0E0CF0108950895E2
:102C8000109234051092330588EE93E0A0E0B0E096
:102C90008093350590933605A0933705B09338059A
:102CA0008BEA93E090933205809331050895CF929B
:102CB000DF92EF92FF920F931F93CF93DF937C01EC
:102CC0006B018A01809130058823A1F0C0E0D0E03B
:102CD0000DC0D701ED91FC91D601AC0FBD1F019045
:102CE000F081E02DC7016C9109952196C017D1079D
:102CF00080F304C0CB01642F0E94F419C801DF9156
:102D0000CF911F910F91FF90EF90DF90CF9008959A
:102D1000DF93CF930F92CDB7DEB7FC01698380912B
:102D200030058823C9F080912F05803238F081E08A
:102D300090E09383828320E030E015C080912E05DF
:102D4000E82FF0E0E25FFA4F998190838F5F8093E4
:102D50002E0580932F0505C0CE01019661E00E94EB
:102D6000F41921E030E0C9010F90CF91DF9108956F
:102D70000F93062F80910D056EE075E040912F05B1
:102D800021E00E949F1910922E0510922F0510929B
:102D900030050F91089561E00E94B8160895413200
:102DA00008F040E2862F6BEE74E00E9456191092F4
:102DB0000B0580930C05089521E00E94CF1608951D
:102DC00021E00E94CF16089510920B0510920C0579
:102DD00010922E0510922F050E94A01B0895DC0171
:102DE00087E0A03DB80710F0A05DB74050E022ECAE
:102DF00030E091E007C0F9018491480F511D9F5FB9
:102E00002F5F3F4F9617B8F3633038F0CD018370D2
:102E10009070892B11F44F5F5F4F8DE691E0A89F72
:102E20009001A99F300DB89F300D112421503040E2
:102E30001396B695A795B695A7952A0F3B1F240F15
:102E4000351FC9010895CF93DF93DC01FB01EB012E
:102E50002996818580538A3008F080E029812053AB
:102E60003AE0839FC0011124280F2C9380818A347B
:102E7000A9F08B343CF48434C1F18634F1F0813410
:102E8000C1F51DC08E3479F18F341CF48D3489F571
:102E90001DC08F3421F1833561F51FC081818136DA
:102EA00011F481E023C082818E3611F087E001C0E9
:102EB00086E011968C93119719C082E017C0828129
:102EC000823711F088E012C084E010C0828182371E
:102ED00011F085E00BC083E009C089E007C01196BE
:102EE0003C93119706C08BE001C08CE011968C9347
:102EF0001197EF012496648160536A3008F060E016
:102F0000298120538AE0689FC0011124280F12965E
:102F10002C931297EA01988190539A3008F090E030
:102F2000FA01218120538AE0989FC0011124280FC3
:102F300013962C9313973396EA019B8190539A3002
:102F400008F090E0218120538AE0989FC00111246D
:102F5000280F14962C931497FA013696EA014E81A5
:102F600040534A3008F040E0218120538AE0489FD6
:102F7000C0011124280F15962C93DF91CF9108954D
:102F80000F931F938C01FC01808190E0618142814D
:102F90000E94EF16A0E0B0E0BC01CD0128E130E0D6
:102FA00040E050E00E94321EF8012381620F711D43
:102FB000811D911D2CE330E040E050E00E94321E64
:102FC000F8012481620F711D811D911D2CE330E0F9
:102FD00040E050E00E94321E9B01AC01F801858167
:102FE000280F311D411D511D20583C4B4249574C63
:102FF000B901CA011F910F91089581E00895BF9210
:10300000CF92DF92EF92FF920F931F93DF93CF93B4
:1030100000D000D000D0CDB7DEB701E315E0C80185
:1030200068E670E00E940616C80160E00E948816FB
:10303000C8010E94CB16C80168E670E047E050E086
:103040000E94DC16C8010E9419169FE7B92EB8220B
:10305000C8010E941916C82EC8010E941916D82E40
:10306000C8010E941916C8010E941916E82EC8014D
:103070000E941916F82EC8010E941916282F30E058
:10308000B4E035952795BA95E1F74AEF5FEFB901BE
:10309000649F9001659F300D749F300D1124820F45
:1030A00090E02B2D30E0A4E035952795AA95E1F727
:1030B000B901649F9001659F300D749F300D1124FC
:1030C000B20E2C2D30E0F4E035952795FA95E1F716
:1030D000B901649F9001659F300D749F300D1124DC
:1030E000C20E2D2D30E0E4E035952795EA95E1F705
:1030F000B901649F9001659F300D749F300D1124BC
:10310000D20E2E2D30E074E0359527957A95E1F7B3
:10311000B901649F9001659F300D749F300D11249B
:10312000E20E2F2D30E064E0359527956A95E1F7A2
:10313000B901649F9001659F300D749F300D11247B
:10314000F20E282F3F2D4E2D5D2D6C2D7B2D80E016
:1031500026960FB6F894DEBF0FBECDBFCF91DF919C
:103160001F910F91FF90EF90DF90CF90BF90089547
:1031700081E395E068E670E00E94061681E395E041
:1031800060E00E94881681E395E00E94CB1681E3FF
:1031900095E068E670E041E050E00E94DC1681E3D3
:1031A00095E00E94191620E090E0880F892F881F73
:1031B000990B892B09F421E0822F0895DF92EF9279
:1031C000FF920F931F937C0101E315E0C80168E6AD
:1031D00070E00E940616C80160E00E948816F701A0
:1031E0002581822F6AE00E94511E46E0D42E8D9DDB
:1031F000C0011124280FC801622F0E948816F70110
:103200002481822F6AE00E94511E8D9DC0011124ED
:10321000280FC801622F0E948816F7012381822F90
:103220006AE00E94511E8D9DC0011124280FC80123
:10323000622F0E948816C80160E00E948816F7017C
:103240002281822F6AE00E94511E8D9DC0011124AF
:10325000280FC801622F0E948816F7012181822F52
:103260006AE00E94511E8D9DC0011124280FC801E3
:10327000622F0E948816F7012081822F6AE00E9447
:10328000511E8D9DC0011124280FC801622F0E947C
:103290008816C80160E00E948816C8010E94CB16FB
:1032A0001F910F91FF90EF90DF900895382F4132DA
:1032B00010F040E042C080913D058823E1F791E0A5
:1032C00090933D0520933F058FEF8093AA051092C0
:1032D00065054150409366054F5F90933E05809190
:1032E0003E05330F832B80933E058091400581304E
:1032F00041F41092400580913E058093BB0085EC1F
:1033000001C085EE8093BC0080913D058130E1F3E2
:1033100080916505841710F44091650520E030E048
:103320000AC0FB01E20FF31FD901AB5BBA4F8C91CE
:1033300080832F5F3F4F2417A0F3842F08950F93AE
:103340001F93582F122F413210F081E04AC0809114
:103350003D058823E1F782E080933D0500933F051A
:103360008FEF8093AA051092650540936605A5E44A
:10337000B5E0FB0102C081918D938E2F861B8417CF
:10338000D0F310923E0580913E05550F852B80931A
:103390003E0580914005813041F4109240058091B6
:1033A0003E058093BB0085EC01C085EE8093BC0098
:1033B000112321F080913D058230E1F38091AA052F
:1033C0008F3F11F480E00DC08091AA05803211F486
:1033D00082E007C08091AA05803311F084E001C02B
:1033E00083E01F910F910895482F613210F081E022
:1033F000089580913D05843011F082E00895609336
:103400008805A7E6B5E0842F9C01F90102C08191EF
:103410008D938E2F841B8617D0F380E008951F9222
:103420000F920FB60F9211242F933F934F935F93F8
:103430006F937F938F939F93AF93BF93EF93FF937C
:103440008091B90090E0887F90708036910509F4F2
:10345000F2C081369105CCF58832910509F47BC024
:1034600089329105B4F48031910509F46FC081313E
:1034700091053CF4009709F447C1089709F04FC142
:1034800065C08831910509F466C0809709F047C18D
:1034900082C08034910509F4A4C08134910544F4BC
:1034A0008033910509F482C0C89709F038C189C0FA
:1034B0008035910509F489C08835910509F496C0D5
:1034C0008834910509F02BC1AEC08839910509F403
:1034D00013C189399105ECF48837910509F4ABC023
:1034E000893791054CF48836910509F4A4C08037DA
:1034F000910509F014C19FC08838910509F4FCC0FA
:103500008039910509F49DC08038910509F007C103
:1035100098C0803B910509F4C6C0813B91054CF4ED
:10352000803A910509F49FC0883A910509F0F7C0E7
:10353000BAC0803C910509F4E3C0883C910509F4C8
:10354000DFC0883B910509F0EAC0C2C080913E050A
:103550008093BB00CFC09091650580916605981758
:1035600068F490916505E92FF0E0EB5BFA4F8081FC
:103570008093BB009F5F90936505BCC080913F0521
:10358000882309F44BC085ED8093BC008091BC007A
:1035900084FDFCCFC2C080E28093AA0585ED8093B4
:1035A000BC008091BC0084FDFCCFB7C080E3809359
:1035B000AA0585ED8093BC008091BC0084FDFCCF02
:1035C000ACC088E38093AA059BC08091650590916B
:1035D000BB00E82FF0E0EB5BFA4F90838F5F8093A6
:1035E0006505909165058091660582C080916505AD
:1035F0009091BB00E82FF0E0EB5BFA4F90838F5F78
:103600008093650580913F05882341F085ED809387
:10361000BC008091BC0084FDFCCF7FC081E0809322
:10362000400584EA6EC085ED8093BC008091BC00AB
:1036300084FDFCCF72C083E080933D051092A90504
:1036400059C08091A905803208F056C08091A90523
:103650009091BB00E82FF0E0E757FA4F90838F5F1F
:103660008093A90547C08091A905803230F4E0918C
:10367000A905F0E0E757FA4F108285ED8093BC0072
:103680008091BC0084FDFCCF10923D056091A9059E
:10369000E0914305F091440589E895E070E00995D3
:1036A0001092A9052DC084E080933D0510928705F6
:1036B00010928805E0914105F091420509958091AD
:1036C0008805882329F481E0809388051092670596
:1036D00090918705E92FF0E0E959FA4F80818093B6
:1036E000BB009F5F90938705909187058091880527
:1036F000981710F485EC01C085E88093BC000FC0DA
:1037000085EC8093BC0009C01092AA0585ED8093DA
:10371000BC008091BC0084FDFCCF10923D05FF9160
:10372000EF91BF91AF919F918F917F916F915F9139
:103730004F913F912F910F900FBE0F901F901895B2
:1037400010923D0581E080933F051092400582E193
:1037500061E00E94490F83E161E00E94490FE9EBBB
:10376000F0E080818E7F808380818D7F808388E4FC
:103770008093B80085E48093BC0008955058BB271F
:10378000AA270ED0B3C1A4D130F0A9D120F031F4D2
:103790009F3F11F41EF499C10EF4E095E7FB64C15C
:1037A000E92FB5D180F3BA1762077307840795072D
:1037B00018F071F49EF5E4C10EF4E0950B2EBA2FCB
:1037C000A02D0B01B90190010C01CA01A001112427
:1037D000FF27591B99F0593F50F4503E68F11A16D3
:1037E000F040A22F232F342F4427585FF3CF469564
:1037F00037952795A795F0405395C9F77EF41F1686
:10380000BA0B620B730B840BBAF09150A1F0FF0F4F
:10381000BB1F661F771F881FC2F70EC0BA0F621F3B
:10382000731F841F48F4879577956795B795F7952B
:103830009E3F08F0B3CF9395880F08F09927EE0FBD
:10384000979587950895ECD008F481E008950CD001
:103850004DC145D140F03CD130F021F45F3F19F02B
:1038600003C151118EC131C152D198F39923C9F3CB
:103870005523B1F3951B550BBB27AA276217730776
:10388000840738F09F5F5F4F220F331F441FAA1F2A
:10389000A9F333D00E2E3AF0E0E830D091505040EA
:1038A000E695001CCAF729D0FE2F27D0660F771F98
:1038B000881FBB1F261737074807AB07B0E809F07A
:1038C000BB0B802DBF01FF2793585F4F2AF09E3F0F
:1038D000510568F0C9C055C15F3FECF3983EDCF379
:1038E000869577956795B795F7959F5FC9F7880F88
:1038F000911D9695879597F90895E1E0660F771FDA
:10390000881FBB1F621773078407BA0720F0621B6A
:10391000730B840BBA0BEE1F88F7E095089504D063
:103920006894B1112EC10895FAD088F09F5790F095
:10393000B92F9927B751A0F0D1F0660F771F881FD4
:10394000991F1AF0BA95C9F712C0B13081F018D199
:10395000B1E0089515C1672F782F8827B85F39F037
:10396000B93FCCF3869577956795B395D9F73EF433
:1039700090958095709561957F4F8F4F9F4F0895DB
:10398000E89409C097FB3EF49095809570956195F9
:103990007F4F8F4F9F4F9923A9F0F92F96E9BB27AF
:1039A0009395F695879577956795B795F111F8CF2B
:1039B000FAF4BB0F11F460FF1BC06F5F7F4F8F4F96
:1039C0009F4F16C0882311F096E911C0772321F08C
:1039D0009EE8872F762F05C0662371F096E8862F24
:1039E00070E060E02AF09A95660F771F881FDAF77B
:1039F000880F9695879597F90895ABD080F09F37FB
:103A000040F491110EF0BDC060E070E080E89FEBE3
:103A1000089526F41B16611D711D811D2BC045C024
:103A2000990F0008550FAA0BE0E8FEEF16161706CF
:103A3000E807F907C0F012161306E407F50798F037
:103A4000621B730B840B950B39F40A2661F0232B50
:103A5000242B252B21F408950A2609F4A140A695CC
:103A60008FEF811D811D089597F99F6780E870E0B1
:103A700060E00895882371F4772321F09850872B14
:103A8000762F07C0662311F499270DC09051862B1D
:103A900070E060E02AF09A95660F771F881FDAF7CA
:103AA000880F9695879597F908959F3F49F0915013
:103AB00028F4869577956795B7959F5F80389F4FD7
:103AC000880F9695879597F908959FEF80EC089554
:103AD00000240A94161617061806090608950024ED
:103AE0000A9412161306140605060895092E039467
:103AF000000C11F4882352F0BB0F40F4BF2B11F4DB
:103B000060FF04C06F5F7F4F8F4F9F4F089557FD39
:103B10009058440F551F59F05F3F71F04795880F3B
:103B200097FB991F61F09F3F79F0879508951216D2
:103B300013061406551FF2CF4695F1DF08C016167E
:103B400017061806991FF1CF86957105610508942F
:103B50000895E5DFA0F0BEE7B91788F4BB279F38CA
:103B600060F41616B11D672F782F8827985FF7CF5E
:103B7000869577956795B11D93959639C8F3089505
:103B8000E894BB2766277727CB0197F9089548DF8C
:103B900008F48FEF08950BD0A9CF9ADF28F09FDFAC
:103BA00018F0952309F060CF90CF1124EACFAFDF52
:103BB000A0F3959FD1F3950F50E0551F629FF00140
:103BC000729FBB27F00DB11D639FAA27F00DB11D99
:103BD000AA1F649F6627B00DA11D661F829F222722
:103BE000B00DA11D621F739FB00DA11D621F839FA9
:103BF000A00D611D221F749F3327A00D611D231F7F
:103C0000849F600D211D822F762F6A2F11249F57CC
:103C100050408AF0E1F088234AF0EE0FFF1FBB1FEF
:103C2000661F771F881F91505040A9F79E3F51058E
:103C300070F01ACFA6CF5F3FECF3983EDCF3869589
:103C400077956795B795F795E7959F5FC1F7FE2B39
:103C5000880F911D9695879597F90895E1DE880B59
:103C6000990B0895629FD001739FF001829FE00D30
:103C7000F11D649FE00DF11D929FF00D839FF00DEB
:103C8000749FF00D659FF00D9927729FB00DE11D97
:103C9000F91F639FB00DE11DF91FBD01CF01112474
:103CA0000895991B79E004C0991F961708F0961B98
:103CB000881F7A95C9F780950895AA1BBB1B51E10F
:103CC00007C0AA1FBB1FA617B70710F0A61BB70B8C
:103CD000881F991F5A95A9F780959095BC01CD0131
:103CE000089597FB092E07260AD077FD04D0E5DF5B
:103CF00006D000201AF4709561957F4F0895F6F76D
:103D0000909581959F4F0895A1E21A2EAA1BBB1B87
:103D1000FD010DC0AA1FBB1FEE1FFF1FA217B30797
:103D2000E407F50720F0A21BB30BE40BF50B661FAD
:103D3000771F881F991F1A9469F760957095809571
:103D400090959B01AC01BD01CF01089597FB092E11
:103D500005260ED057FD04D0D7DF0AD0001C38F45A
:103D600050954095309521953F4F4F4F5F4F0895A7
:103D7000F6F790958095709561957F4F8F4F9F4F87
:103D800008952F923F924F925F926F927F928F92FF
:103D90009F92AF92BF92CF92DF92EF92FF920F93DA
:103DA0001F93CF93DF93CDB7DEB7CA1BDB0B0FB6E4
:103DB000F894DEBF0FBECDBF09942A8839884888A1
:103DC0005F846E847D848C849B84AA84B984C88437
:103DD000DF80EE80FD800C811B81AA81B981CE0F2E
:103DE000D11D0FB6F894DEBF0FBECDBFED01089513
:103DF000EE0FFF1F0590F491E02D099410E0C4ED43
:103E0000D0E004C0FE010E94FA1E2296C63DD107F2
:063E1000C9F7F894FFCF92
:103E16000073746F70002E2E2E00717565727969AD
:103E26006E6720006163747561746F7200616C6CFB
:103E3600006163747561746F72202D2D20636D644B
:103E46003A200009093A3A0963757272656E742060
:103E5600706F736974696F6E3A0900736F6C656E83
:103E66006F69647300736F6C656E6F696473202D80
:103E76002D2000207C2000636C6F636B00636C6FE9
:103E8600636B202D2D20006C6967687400616D6F6F
:103E9600756E74206F66206C69676874202D2D20FE
:103EA600006869680048756D6964697479202D2D0C
:103EB6002000205248202800290054656D70657244
:103EC6006174757265202D2D200020432028005234
:103ED6005443206973204E4F542072756E6E696E7E
:103EE6006721002D2D20736574757020636F6D70CA
:103EF6006C657465202D2D006C696D646F776E009E
:103F06006C696D757000757000696E7075743A2015
:103F16000009206C65747465723A2000646F776ED0
:103F26000062756D7075700062756D70646F776E86
:103F3600007570206C696D69743A2000646F776E45
:103F4600206C696D69743A200073657474696E67D4
:103F56002074696D6520746F2000536570202036CB
:103F6600203230313300202D2D200031333A3239C2
:103F76003A3335002121206C696D697420726561C0
:103F86006368656420212100212120636F6D7075AF
:103F9600746564207570206C696D69742072656142
:103FA6006368656420212100212120636F6D70758F
:103FB60074656420646F776E206C696D6974207215
:103FC600656163686564202121006E616E00696E1B
:103FD60066006F7666002E002000AF050000010027
:103FE60000000200070001000800020008000100AE
:103FF6000800020008000400050009000000040093
:104006000500020003000500030006000000020090
:104016000800070004000700010003000500020075
:10402600060006000200040009000700070005005C
:104036000700020004000700000009000300060054
:104046000900090009000500090005000700040031
:10405600090006000600090006000A000D00080017
:1040660009000B000C000300040005000600070011
:104076000E000F001000AF00FF00FF00AF000500AC
:10408600050032004B00F40106000600060006009B
:1040960006000600060006000100000000E902EF27
:1040A600020803F802E108000000001811AE11AE84
:1040B60010DF10BF100811000000008816571610F8
:0840C6001619162E163F160014
:00000001FF
